{"abi":[{"inputs":[{"internalType":"uint256[]","name":"privateKeyNRO","type":"uint256[]"},{"internalType":"uint256[]","name":"privateKeyCIA","type":"uint256[]"},{"internalType":"uint256[]","name":"privateKeyNSA","type":"uint256[]"},{"internalType":"uint256[]","name":"privateKeyAWS","type":"uint256[]"}],"stateMutability":"nonpayable","type":"constructor","name":"constructor"},{"anonymous":false,"inputs":[{"indexed":true,"internalType":"address","name":"previousOwner","type":"address"},{"indexed":true,"internalType":"address","name":"newOwner","type":"address"}],"name":"OwnershipTransferred","type":"event"},{"inputs":[{"internalType":"string","name":"_name","type":"string"},{"internalType":"uint256","name":"usersPrivateKey","type":"uint256"},{"internalType":"enum DetermineUser.UserType","name":"selectionNumType","type":"uint8"},{"internalType":"enum DetermineUser.OrgName","name":"selectionNumOrg","type":"uint8"}],"name":"addPerson","outputs":[],"stateMutability":"nonpayable","type":"function"},{"inputs":[{"internalType":"uint256[]","name":"_newprivateKeyNRO","type":"uint256[]"},{"internalType":"uint256[]","name":"_newprivateKeyCIA","type":"uint256[]"},{"internalType":"uint256[]","name":"_newprivateKeyNSA","type":"uint256[]"},{"internalType":"uint256[]","name":"_newprivateKeyAWS","type":"uint256[]"}],"name":"changePrivateKeys","outputs":[],"stateMutability":"nonpayable","type":"function"},{"inputs":[{"internalType":"uint256","name":"usersPrivateKey","type":"uint256"},{"internalType":"enum DetermineUser.OrgName","name":"selectionNumOrg","type":"uint8"}],"name":"checkOrgList","outputs":[{"internalType":"bool","name":"","type":"bool"}],"stateMutability":"view","type":"function"},{"inputs":[{"internalType":"enum DetermineUser.OrgName","name":"selectionNumOrg","type":"uint8"},{"internalType":"enum DetermineUser.UserType","name":"selectionNumType","type":"uint8"}],"name":"checkTypeList","outputs":[{"internalType":"bool","name":"","type":"bool"}],"stateMutability":"pure","type":"function"},{"inputs":[],"name":"createMapping","outputs":[],"stateMutability":"nonpayable","type":"function"},{"inputs":[{"internalType":"string","name":"","type":"string"}],"name":"nameToOrganization","outputs":[{"internalType":"enum DetermineUser.OrgName","name":"","type":"uint8"}],"stateMutability":"view","type":"function"},{"inputs":[{"internalType":"string","name":"","type":"string"}],"name":"nameToUserType","outputs":[{"internalType":"enum DetermineUser.UserType","name":"","type":"uint8"}],"stateMutability":"view","type":"function"},{"inputs":[{"internalType":"enum DetermineUser.OrgName","name":"","type":"uint8"},{"internalType":"uint256","name":"","type":"uint256"}],"name":"orgnameToKey","outputs":[{"internalType":"uint256","name":"","type":"uint256"}],"stateMutability":"view","type":"function"},{"inputs":[],"name":"owner","outputs":[{"internalType":"address","name":"","type":"address"}],"stateMutability":"view","type":"function"},{"inputs":[{"internalType":"uint256","name":"","type":"uint256"}],"name":"people","outputs":[{"internalType":"string","name":"name","type":"string"},{"internalType":"enum DetermineUser.UserType","name":"yourUserType","type":"uint8"},{"internalType":"enum DetermineUser.OrgName","name":"organization","type":"uint8"}],"stateMutability":"view","type":"function"},{"inputs":[],"name":"people_list","outputs":[{"components":[{"internalType":"string","name":"name","type":"string"},{"internalType":"enum DetermineUser.UserType","name":"yourUserType","type":"uint8"},{"internalType":"enum DetermineUser.OrgName","name":"organization","type":"uint8"}],"internalType":"struct DetermineUser.People[]","name":"","type":"tuple[]"}],"stateMutability":"view","type":"function"},{"inputs":[],"name":"renounceOwnership","outputs":[],"stateMutability":"nonpayable","type":"function"},{"inputs":[{"internalType":"address","name":"newOwner","type":"address"}],"name":"transferOwnership","outputs":[],"stateMutability":"nonpayable","type":"function"}],"bytecode":"60806040523480156200001157600080fd5b506040516200152038038062001520833981016040819052620000349162000212565b6200003f33620000a1565b835162000054906001906020870190620000f1565b5081516200006a906002906020850190620000f1565b50825162000080906003906020860190620000f1565b50805162000096906004906020840190620000f1565b5050505050620002cb565b600080546001600160a01b038381166001600160a01b0319831681178455604051919092169283917f8be0079c531659141344cd1fd0a4f28419497f9722a3daafe3b4186f6b6457e09190a35050565b8280548282559060005260206000209081019282156200012f579160200282015b828111156200012f57825182559160200191906001019062000112565b506200013d92915062000141565b5090565b5b808211156200013d576000815560010162000142565b634e487b7160e01b600052604160045260246000fd5b600082601f8301126200018057600080fd5b815160206001600160401b03808311156200019f576200019f62000158565b8260051b604051601f19603f83011681018181108482111715620001c757620001c762000158565b604052938452858101830193838101925087851115620001e657600080fd5b83870191505b848210156200020757815183529183019190830190620001ec565b979650505050505050565b600080600080608085870312156200022957600080fd5b84516001600160401b03808211156200024157600080fd5b6200024f888389016200016e565b955060208701519150808211156200026657600080fd5b62000274888389016200016e565b945060408701519150808211156200028b57600080fd5b62000299888389016200016e565b93506060870151915080821115620002b057600080fd5b50620002bf878288016200016e565b91505092959194509250565b61124580620002db6000396000f3fe608060405234801561001057600080fd5b50600436106100cf5760003560e01c80637fa2bc741161008c578063c60c718f11610066578063c60c718f146101cf578063d82b87dc146101e2578063e5796c4f14610210578063f2fde38b1461022357600080fd5b80637fa2bc74146101575780638da5cb5b146101925780639e7a13ad146101ad57600080fd5b8063164b59a9146100d45780633ab4059c146100fc5780634bd118841461010657806352d865391461011b5780635d542f461461013c578063715018a61461014f575b600080fd5b6100e76100e2366004610c80565b610236565b60405190151581526020015b60405180910390f35b610104610317565b005b61010e610434565b6040516100f39190610d3c565b61012e610129366004610dcd565b610591565b6040519081526020016100f3565b61010461014a366004610eb0565b6105c2565b6101046107bc565b610185610165366004610f1c565b805160208183018101805160088252928201919093012091525460ff1681565b6040516100f39190610f59565b6000546040516001600160a01b0390911681526020016100f3565b6101c06101bb366004610f6c565b6107f2565b6040516100f393929190610f85565b6100e76101dd366004610fc0565b6108ba565b6101856101f0366004610f1c565b805160208183018101805160078252928201919093012091525460ff1681565b61010461021e36600461106e565b6109f4565b61010461023136600461111b565b610a7c565b6000808083600481111561024c5761024c610d08565b1415610256575060015b60005b6009600085600481111561026f5761026f610d08565b600481111561028057610280610d08565b815260208101919091526040016000205481101561030f5784600960008660048111156102af576102af610d08565b60048111156102c0576102c0610d08565b815260200190815260200160002082815481106102df576102df611144565b906000526020600020015414156102f9576001915061030f565b60009150806103078161115a565b915050610259565b509392505050565b6000546001600160a01b0316331461034a5760405162461bcd60e51b815260040161034190611183565b60405180910390fd5b6001600081905260096020528054610383917f92e85d02570a8092d09a6e3a57665bc3815a2699a4074001bf1ccabf660f5a3691610b60565b5060026000819052600960205280546103bd917f6cde3cea4b3a3fb2488b2808bae7556f4a405e50f65e1794383bc026131b13c391610b60565b5060036000819052600960205280546103f7917fc575c31fea594a6eb97c8e9d3f9caee4c16218c6ef37e923234c0fe9014a61e791610b60565b506004600081905260096020528054610431917f8dc18c4ccfd75f5c815b63770fa542fd953e8fef7e0e44bbdd4913470ce7e9cb91610b60565b50565b60606006805480602002602001604051908101604052809291908181526020016000905b82821015610588578382906000526020600020906002020160405180606001604052908160008201805461048b906111b8565b80601f01602080910402602001604051908101604052809291908181526020018280546104b7906111b8565b80156105045780601f106104d957610100808354040283529160200191610504565b820191906000526020600020905b8154815290600101906020018083116104e757829003601f168201915b5050509183525050600182015460209091019060ff16600481111561052b5761052b610d08565b600481111561053c5761053c610d08565b81526020016001820160019054906101000a900460ff16600481111561056457610564610d08565b600481111561057557610575610d08565b8152505081526020019060010190610458565b50505050905090565b600960205281600052604060002081815481106105ad57600080fd5b90600052602060002001600091509150505481565b8282826105cf8382610236565b61060e5760405162461bcd60e51b815260206004820152601060248201526f596f752063616e7420646f207468697360801b6044820152606401610341565b61061881836108ba565b6106575760405162461bcd60e51b815260206004820152601060248201526f596f752063616e7420646f207468697360801b6044820152606401610341565b6006604051806060016040528089815260200187600481111561067c5761067c610d08565b815260200186600481111561069357610693610d08565b9052815460018101835560009283526020928390208251805193946002909302909101926106c49284920190610bb0565b50602082015160018083018054909160ff19909116908360048111156106ec576106ec610d08565b0217905550604082015160018201805461ff00191661010083600481111561071657610716610d08565b02179055505060055460405160ff9091169150600890610737908a906111f3565b908152604051908190036020019020805460ff1916600183600481111561076057610760610d08565b0217905550600560019054906101000a900460ff1660078860405161078591906111f3565b908152604051908190036020019020805460ff191660018360048111156107ae576107ae610d08565b021790555050505050505050565b6000546001600160a01b031633146107e65760405162461bcd60e51b815260040161034190611183565b6107f06000610b10565b565b6006818154811061080257600080fd5b9060005260206000209060020201600091509050806000018054610825906111b8565b80601f0160208091040260200160405190810160405280929190818152602001828054610851906111b8565b801561089e5780601f106108735761010080835404028352916020019161089e565b820191906000526020600020905b81548152906001019060200180831161088157829003601f168201915b5050506001909301549192505060ff8082169161010090041683565b60008060018460048111156108d1576108d1610d08565b14806108ee575060028460048111156108ec576108ec610d08565b145b8061090a5750600384600481111561090857610908610d08565b145b80156109275750600183600481111561092557610925610d08565b145b15610934575060016109ed565b600484600481111561094857610948610d08565b1480156109665750600483600481111561096457610964610d08565b145b15610973575060016109ed565b600084600481111561098757610987610d08565b1480156109dc575060038360048111156109a3576109a3610d08565b14806109c0575060028360048111156109be576109be610d08565b145b806109dc575060008360048111156109da576109da610d08565b145b156109e9575060016109ed565b5060005b9392505050565b6000546001600160a01b03163314610a1e5760405162461bcd60e51b815260040161034190611183565b8351610a31906001906020870190610c24565b508151610a45906002906020850190610c24565b508251610a59906003906020860190610c24565b508051610a6d906004906020840190610c24565b50610a76610317565b50505050565b6000546001600160a01b03163314610aa65760405162461bcd60e51b815260040161034190611183565b6001600160a01b038116610b0b5760405162461bcd60e51b815260206004820152602660248201527f4f776e61626c653a206e6577206f776e657220697320746865207a65726f206160448201526564647265737360d01b6064820152608401610341565b610431815b600080546001600160a01b038381166001600160a01b0319831681178455604051919092169283917f8be0079c531659141344cd1fd0a4f28419497f9722a3daafe3b4186f6b6457e09190a35050565b828054828255906000526020600020908101928215610ba05760005260206000209182015b82811115610ba0578254825591600101919060010190610b85565b50610bac929150610c5e565b5090565b828054610bbc906111b8565b90600052602060002090601f016020900481019282610bde5760008555610ba0565b82601f10610bf757805160ff1916838001178555610ba0565b82800160010185558215610ba0579182015b82811115610ba0578251825591602001919060010190610c09565b828054828255906000526020600020908101928215610ba05791602002820182811115610ba0578251825591602001919060010190610c09565b5b80821115610bac5760008155600101610c5f565b6005811061043157600080fd5b60008060408385031215610c9357600080fd5b823591506020830135610ca581610c73565b809150509250929050565b60005b83811015610ccb578181015183820152602001610cb3565b83811115610a765750506000910152565b60008151808452610cf4816020860160208601610cb0565b601f01601f19169290920160200192915050565b634e487b7160e01b600052602160045260246000fd5b6005811061043157634e487b7160e01b600052602160045260246000fd5b60006020808301818452808551808352604092508286019150828160051b87010184880160005b83811015610dbf57603f19898403018552815160608151818652610d8982870182610cdc565b91505088820151610d9981610d1e565b858a01529087015190610dab82610d1e565b938701529386019390860190600101610d63565b509098975050505050505050565b60008060408385031215610de057600080fd5b8235610deb81610c73565b946020939093013593505050565b634e487b7160e01b600052604160045260246000fd5b604051601f8201601f1916810167ffffffffffffffff81118282101715610e3857610e38610df9565b604052919050565b600082601f830112610e5157600080fd5b813567ffffffffffffffff811115610e6b57610e6b610df9565b610e7e601f8201601f1916602001610e0f565b818152846020838601011115610e9357600080fd5b816020850160208301376000918101602001919091529392505050565b60008060008060808587031215610ec657600080fd5b843567ffffffffffffffff811115610edd57600080fd5b610ee987828801610e40565b945050602085013592506040850135610f0181610c73565b91506060850135610f1181610c73565b939692955090935050565b600060208284031215610f2e57600080fd5b813567ffffffffffffffff811115610f4557600080fd5b610f5184828501610e40565b949350505050565b60208101610f6683610d1e565b91905290565b600060208284031215610f7e57600080fd5b5035919050565b606081526000610f986060830186610cdc565b9050610fa384610d1e565b836020830152610fb283610d1e565b826040830152949350505050565b60008060408385031215610fd357600080fd5b8235610fde81610c73565b91506020830135610ca581610c73565b600082601f830112610fff57600080fd5b8135602067ffffffffffffffff82111561101b5761101b610df9565b8160051b61102a828201610e0f565b928352848101820192828101908785111561104457600080fd5b83870192505b848310156110635782358252918301919083019061104a565b979650505050505050565b6000806000806080858703121561108457600080fd5b843567ffffffffffffffff8082111561109c57600080fd5b6110a888838901610fee565b955060208701359150808211156110be57600080fd5b6110ca88838901610fee565b945060408701359150808211156110e057600080fd5b6110ec88838901610fee565b9350606087013591508082111561110257600080fd5b5061110f87828801610fee565b91505092959194509250565b60006020828403121561112d57600080fd5b81356001600160a01b03811681146109ed57600080fd5b634e487b7160e01b600052603260045260246000fd5b600060001982141561117c57634e487b7160e01b600052601160045260246000fd5b5060010190565b6020808252818101527f4f776e61626c653a2063616c6c6572206973206e6f7420746865206f776e6572604082015260600190565b600181811c908216806111cc57607f821691505b602082108114156111ed57634e487b7160e01b600052602260045260246000fd5b50919050565b60008251611205818460208701610cb0565b919091019291505056fea2646970667358221220db80207251e692bb4e297a5e7d56cc4f2f754f7cedf4f0f5dd3e3b70d5f7db4964736f6c634300080b0033","bytecodeSha1":"84fc8de173e1a667b8c5c1e94e0a54119db33535","compiler":{"evm_version":"istanbul","optimizer":{"enabled":true,"runs":200},"version":"0.8.11+commit.d7f03943"},"contractName":"DetermineUser","language":"Solidity","natspec":{"kind":"dev","methods":{"owner()":{"details":"Returns the address of the current owner."},"renounceOwnership()":{"details":"Leaves the contract without owner. It will not be possible to call `onlyOwner` functions anymore. Can only be called by the current owner. NOTE: Renouncing ownership will leave the contract without an owner, thereby removing any functionality that is only available to the owner."},"transferOwnership(address)":{"details":"Transfers ownership of the contract to a new account (`newOwner`). Can only be called by the current owner."}},"version":1},"opcodes":"PUSH1 0x80 PUSH1 0x40 MSTORE CALLVALUE DUP1 ISZERO PUSH2 0x10 JUMPI PUSH1 0x0 DUP1 REVERT JUMPDEST POP PUSH1 0x4 CALLDATASIZE LT PUSH2 0xCF JUMPI PUSH1 0x0 CALLDATALOAD PUSH1 0xE0 SHR DUP1 PUSH4 0x7FA2BC74 GT PUSH2 0x8C JUMPI DUP1 PUSH4 0xC60C718F GT PUSH2 0x66 JUMPI DUP1 PUSH4 0xC60C718F EQ PUSH2 0x1CF JUMPI DUP1 PUSH4 0xD82B87DC EQ PUSH2 0x1E2 JUMPI DUP1 PUSH4 0xE5796C4F EQ PUSH2 0x210 JUMPI DUP1 PUSH4 0xF2FDE38B EQ PUSH2 0x223 JUMPI PUSH1 0x0 DUP1 REVERT JUMPDEST DUP1 PUSH4 0x7FA2BC74 EQ PUSH2 0x157 JUMPI DUP1 PUSH4 0x8DA5CB5B EQ PUSH2 0x192 JUMPI DUP1 PUSH4 0x9E7A13AD EQ PUSH2 0x1AD JUMPI PUSH1 0x0 DUP1 REVERT JUMPDEST DUP1 PUSH4 0x164B59A9 EQ PUSH2 0xD4 JUMPI DUP1 PUSH4 0x3AB4059C EQ PUSH2 0xFC JUMPI DUP1 PUSH4 0x4BD11884 EQ PUSH2 0x106 JUMPI DUP1 PUSH4 0x52D86539 EQ PUSH2 0x11B JUMPI DUP1 PUSH4 0x5D542F46 EQ PUSH2 0x13C JUMPI DUP1 PUSH4 0x715018A6 EQ PUSH2 0x14F JUMPI JUMPDEST PUSH1 0x0 DUP1 REVERT JUMPDEST PUSH2 0xE7 PUSH2 0xE2 CALLDATASIZE PUSH1 0x4 PUSH2 0xC80 JUMP JUMPDEST PUSH2 0x236 JUMP JUMPDEST PUSH1 0x40 MLOAD SWAP1 ISZERO ISZERO DUP2 MSTORE PUSH1 0x20 ADD JUMPDEST PUSH1 0x40 MLOAD DUP1 SWAP2 SUB SWAP1 RETURN JUMPDEST PUSH2 0x104 PUSH2 0x317 JUMP JUMPDEST STOP JUMPDEST PUSH2 0x10E PUSH2 0x434 JUMP JUMPDEST PUSH1 0x40 MLOAD PUSH2 0xF3 SWAP2 SWAP1 PUSH2 0xD3C JUMP JUMPDEST PUSH2 0x12E PUSH2 0x129 CALLDATASIZE PUSH1 0x4 PUSH2 0xDCD JUMP JUMPDEST PUSH2 0x591 JUMP JUMPDEST PUSH1 0x40 MLOAD SWAP1 DUP2 MSTORE PUSH1 0x20 ADD PUSH2 0xF3 JUMP JUMPDEST PUSH2 0x104 PUSH2 0x14A CALLDATASIZE PUSH1 0x4 PUSH2 0xEB0 JUMP JUMPDEST PUSH2 0x5C2 JUMP JUMPDEST PUSH2 0x104 PUSH2 0x7BC JUMP JUMPDEST PUSH2 0x185 PUSH2 0x165 CALLDATASIZE PUSH1 0x4 PUSH2 0xF1C JUMP JUMPDEST DUP1 MLOAD PUSH1 0x20 DUP2 DUP4 ADD DUP2 ADD DUP1 MLOAD PUSH1 0x8 DUP3 MSTORE SWAP3 DUP3 ADD SWAP2 SWAP1 SWAP4 ADD KECCAK256 SWAP2 MSTORE SLOAD PUSH1 0xFF AND DUP2 JUMP JUMPDEST PUSH1 0x40 MLOAD PUSH2 0xF3 SWAP2 SWAP1 PUSH2 0xF59 JUMP JUMPDEST PUSH1 0x0 SLOAD PUSH1 0x40 MLOAD PUSH1 0x1 PUSH1 0x1 PUSH1 0xA0 SHL SUB SWAP1 SWAP2 AND DUP2 MSTORE PUSH1 0x20 ADD PUSH2 0xF3 JUMP JUMPDEST PUSH2 0x1C0 PUSH2 0x1BB CALLDATASIZE PUSH1 0x4 PUSH2 0xF6C JUMP JUMPDEST PUSH2 0x7F2 JUMP JUMPDEST PUSH1 0x40 MLOAD PUSH2 0xF3 SWAP4 SWAP3 SWAP2 SWAP1 PUSH2 0xF85 JUMP JUMPDEST PUSH2 0xE7 PUSH2 0x1DD CALLDATASIZE PUSH1 0x4 PUSH2 0xFC0 JUMP JUMPDEST PUSH2 0x8BA JUMP JUMPDEST PUSH2 0x185 PUSH2 0x1F0 CALLDATASIZE PUSH1 0x4 PUSH2 0xF1C JUMP JUMPDEST DUP1 MLOAD PUSH1 0x20 DUP2 DUP4 ADD DUP2 ADD DUP1 MLOAD PUSH1 0x7 DUP3 MSTORE SWAP3 DUP3 ADD SWAP2 SWAP1 SWAP4 ADD KECCAK256 SWAP2 MSTORE SLOAD PUSH1 0xFF AND DUP2 JUMP JUMPDEST PUSH2 0x104 PUSH2 0x21E CALLDATASIZE PUSH1 0x4 PUSH2 0x106E JUMP JUMPDEST PUSH2 0x9F4 JUMP JUMPDEST PUSH2 0x104 PUSH2 0x231 CALLDATASIZE PUSH1 0x4 PUSH2 0x111B JUMP JUMPDEST PUSH2 0xA7C JUMP JUMPDEST PUSH1 0x0 DUP1 DUP1 DUP4 PUSH1 0x4 DUP2 GT ISZERO PUSH2 0x24C JUMPI PUSH2 0x24C PUSH2 0xD08 JUMP JUMPDEST EQ ISZERO PUSH2 0x256 JUMPI POP PUSH1 0x1 JUMPDEST PUSH1 0x0 JUMPDEST PUSH1 0x9 PUSH1 0x0 DUP6 PUSH1 0x4 DUP2 GT ISZERO PUSH2 0x26F JUMPI PUSH2 0x26F PUSH2 0xD08 JUMP JUMPDEST PUSH1 0x4 DUP2 GT ISZERO PUSH2 0x280 JUMPI PUSH2 0x280 PUSH2 0xD08 JUMP JUMPDEST DUP2 MSTORE PUSH1 0x20 DUP2 ADD SWAP2 SWAP1 SWAP2 MSTORE PUSH1 0x40 ADD PUSH1 0x0 KECCAK256 SLOAD DUP2 LT ISZERO PUSH2 0x30F JUMPI DUP5 PUSH1 0x9 PUSH1 0x0 DUP7 PUSH1 0x4 DUP2 GT ISZERO PUSH2 0x2AF JUMPI PUSH2 0x2AF PUSH2 0xD08 JUMP JUMPDEST PUSH1 0x4 DUP2 GT ISZERO PUSH2 0x2C0 JUMPI PUSH2 0x2C0 PUSH2 0xD08 JUMP JUMPDEST DUP2 MSTORE PUSH1 0x20 ADD SWAP1 DUP2 MSTORE PUSH1 0x20 ADD PUSH1 0x0 KECCAK256 DUP3 DUP2 SLOAD DUP2 LT PUSH2 0x2DF JUMPI PUSH2 0x2DF PUSH2 0x1144 JUMP JUMPDEST SWAP1 PUSH1 0x0 MSTORE PUSH1 0x20 PUSH1 0x0 KECCAK256 ADD SLOAD EQ ISZERO PUSH2 0x2F9 JUMPI PUSH1 0x1 SWAP2 POP PUSH2 0x30F JUMP JUMPDEST PUSH1 0x0 SWAP2 POP DUP1 PUSH2 0x307 DUP2 PUSH2 0x115A JUMP JUMPDEST SWAP2 POP POP PUSH2 0x259 JUMP JUMPDEST POP SWAP4 SWAP3 POP POP POP JUMP JUMPDEST PUSH1 0x0 SLOAD PUSH1 0x1 PUSH1 0x1 PUSH1 0xA0 SHL SUB AND CALLER EQ PUSH2 0x34A JUMPI PUSH1 0x40 MLOAD PUSH3 0x461BCD PUSH1 0xE5 SHL DUP2 MSTORE PUSH1 0x4 ADD PUSH2 0x341 SWAP1 PUSH2 0x1183 JUMP JUMPDEST PUSH1 0x40 MLOAD DUP1 SWAP2 SUB SWAP1 REVERT JUMPDEST PUSH1 0x1 PUSH1 0x0 DUP2 SWAP1 MSTORE PUSH1 0x9 PUSH1 0x20 MSTORE DUP1 SLOAD PUSH2 0x383 SWAP2 PUSH32 0x92E85D02570A8092D09A6E3A57665BC3815A2699A4074001BF1CCABF660F5A36 SWAP2 PUSH2 0xB60 JUMP JUMPDEST POP PUSH1 0x2 PUSH1 0x0 DUP2 SWAP1 MSTORE PUSH1 0x9 PUSH1 0x20 MSTORE DUP1 SLOAD PUSH2 0x3BD SWAP2 PUSH32 0x6CDE3CEA4B3A3FB2488B2808BAE7556F4A405E50F65E1794383BC026131B13C3 SWAP2 PUSH2 0xB60 JUMP JUMPDEST POP PUSH1 0x3 PUSH1 0x0 DUP2 SWAP1 MSTORE PUSH1 0x9 PUSH1 0x20 MSTORE DUP1 SLOAD PUSH2 0x3F7 SWAP2 PUSH32 0xC575C31FEA594A6EB97C8E9D3F9CAEE4C16218C6EF37E923234C0FE9014A61E7 SWAP2 PUSH2 0xB60 JUMP JUMPDEST POP PUSH1 0x4 PUSH1 0x0 DUP2 SWAP1 MSTORE PUSH1 0x9 PUSH1 0x20 MSTORE DUP1 SLOAD PUSH2 0x431 SWAP2 PUSH32 0x8DC18C4CCFD75F5C815B63770FA542FD953E8FEF7E0E44BBDD4913470CE7E9CB SWAP2 PUSH2 0xB60 JUMP JUMPDEST POP JUMP JUMPDEST PUSH1 0x60 PUSH1 0x6 DUP1 SLOAD DUP1 PUSH1 0x20 MUL PUSH1 0x20 ADD PUSH1 0x40 MLOAD SWAP1 DUP2 ADD PUSH1 0x40 MSTORE DUP1 SWAP3 SWAP2 SWAP1 DUP2 DUP2 MSTORE PUSH1 0x20 ADD PUSH1 0x0 SWAP1 JUMPDEST DUP3 DUP3 LT ISZERO PUSH2 0x588 JUMPI DUP4 DUP3 SWAP1 PUSH1 0x0 MSTORE PUSH1 0x20 PUSH1 0x0 KECCAK256 SWAP1 PUSH1 0x2 MUL ADD PUSH1 0x40 MLOAD DUP1 PUSH1 0x60 ADD PUSH1 0x40 MSTORE SWAP1 DUP2 PUSH1 0x0 DUP3 ADD DUP1 SLOAD PUSH2 0x48B SWAP1 PUSH2 0x11B8 JUMP JUMPDEST DUP1 PUSH1 0x1F ADD PUSH1 0x20 DUP1 SWAP2 DIV MUL PUSH1 0x20 ADD PUSH1 0x40 MLOAD SWAP1 DUP2 ADD PUSH1 0x40 MSTORE DUP1 SWAP3 SWAP2 SWAP1 DUP2 DUP2 MSTORE PUSH1 0x20 ADD DUP3 DUP1 SLOAD PUSH2 0x4B7 SWAP1 PUSH2 0x11B8 JUMP JUMPDEST DUP1 ISZERO PUSH2 0x504 JUMPI DUP1 PUSH1 0x1F LT PUSH2 0x4D9 JUMPI PUSH2 0x100 DUP1 DUP4 SLOAD DIV MUL DUP4 MSTORE SWAP2 PUSH1 0x20 ADD SWAP2 PUSH2 0x504 JUMP JUMPDEST DUP3 ADD SWAP2 SWAP1 PUSH1 0x0 MSTORE PUSH1 0x20 PUSH1 0x0 KECCAK256 SWAP1 JUMPDEST DUP2 SLOAD DUP2 MSTORE SWAP1 PUSH1 0x1 ADD SWAP1 PUSH1 0x20 ADD DUP1 DUP4 GT PUSH2 0x4E7 JUMPI DUP3 SWAP1 SUB PUSH1 0x1F AND DUP3 ADD SWAP2 JUMPDEST POP POP POP SWAP2 DUP4 MSTORE POP POP PUSH1 0x1 DUP3 ADD SLOAD PUSH1 0x20 SWAP1 SWAP2 ADD SWAP1 PUSH1 0xFF AND PUSH1 0x4 DUP2 GT ISZERO PUSH2 0x52B JUMPI PUSH2 0x52B PUSH2 0xD08 JUMP JUMPDEST PUSH1 0x4 DUP2 GT ISZERO PUSH2 0x53C JUMPI PUSH2 0x53C PUSH2 0xD08 JUMP JUMPDEST DUP2 MSTORE PUSH1 0x20 ADD PUSH1 0x1 DUP3 ADD PUSH1 0x1 SWAP1 SLOAD SWAP1 PUSH2 0x100 EXP SWAP1 DIV PUSH1 0xFF AND PUSH1 0x4 DUP2 GT ISZERO PUSH2 0x564 JUMPI PUSH2 0x564 PUSH2 0xD08 JUMP JUMPDEST PUSH1 0x4 DUP2 GT ISZERO PUSH2 0x575 JUMPI PUSH2 0x575 PUSH2 0xD08 JUMP JUMPDEST DUP2 MSTORE POP POP DUP2 MSTORE PUSH1 0x20 ADD SWAP1 PUSH1 0x1 ADD SWAP1 PUSH2 0x458 JUMP JUMPDEST POP POP POP POP SWAP1 POP SWAP1 JUMP JUMPDEST PUSH1 0x9 PUSH1 0x20 MSTORE DUP2 PUSH1 0x0 MSTORE PUSH1 0x40 PUSH1 0x0 KECCAK256 DUP2 DUP2 SLOAD DUP2 LT PUSH2 0x5AD JUMPI PUSH1 0x0 DUP1 REVERT JUMPDEST SWAP1 PUSH1 0x0 MSTORE PUSH1 0x20 PUSH1 0x0 KECCAK256 ADD PUSH1 0x0 SWAP2 POP SWAP2 POP POP SLOAD DUP2 JUMP JUMPDEST DUP3 DUP3 DUP3 PUSH2 0x5CF DUP4 DUP3 PUSH2 0x236 JUMP JUMPDEST PUSH2 0x60E JUMPI PUSH1 0x40 MLOAD PUSH3 0x461BCD PUSH1 0xE5 SHL DUP2 MSTORE PUSH1 0x20 PUSH1 0x4 DUP3 ADD MSTORE PUSH1 0x10 PUSH1 0x24 DUP3 ADD MSTORE PUSH16 0x596F752063616E7420646F2074686973 PUSH1 0x80 SHL PUSH1 0x44 DUP3 ADD MSTORE PUSH1 0x64 ADD PUSH2 0x341 JUMP JUMPDEST PUSH2 0x618 DUP2 DUP4 PUSH2 0x8BA JUMP JUMPDEST PUSH2 0x657 JUMPI PUSH1 0x40 MLOAD PUSH3 0x461BCD PUSH1 0xE5 SHL DUP2 MSTORE PUSH1 0x20 PUSH1 0x4 DUP3 ADD MSTORE PUSH1 0x10 PUSH1 0x24 DUP3 ADD MSTORE PUSH16 0x596F752063616E7420646F2074686973 PUSH1 0x80 SHL PUSH1 0x44 DUP3 ADD MSTORE PUSH1 0x64 ADD PUSH2 0x341 JUMP JUMPDEST PUSH1 0x6 PUSH1 0x40 MLOAD DUP1 PUSH1 0x60 ADD PUSH1 0x40 MSTORE DUP1 DUP10 DUP2 MSTORE PUSH1 0x20 ADD DUP8 PUSH1 0x4 DUP2 GT ISZERO PUSH2 0x67C JUMPI PUSH2 0x67C PUSH2 0xD08 JUMP JUMPDEST DUP2 MSTORE PUSH1 0x20 ADD DUP7 PUSH1 0x4 DUP2 GT ISZERO PUSH2 0x693 JUMPI PUSH2 0x693 PUSH2 0xD08 JUMP JUMPDEST SWAP1 MSTORE DUP2 SLOAD PUSH1 0x1 DUP2 ADD DUP4 SSTORE PUSH1 0x0 SWAP3 DUP4 MSTORE PUSH1 0x20 SWAP3 DUP4 SWAP1 KECCAK256 DUP3 MLOAD DUP1 MLOAD SWAP4 SWAP5 PUSH1 0x2 SWAP1 SWAP4 MUL SWAP1 SWAP2 ADD SWAP3 PUSH2 0x6C4 SWAP3 DUP5 SWAP3 ADD SWAP1 PUSH2 0xBB0 JUMP JUMPDEST POP PUSH1 0x20 DUP3 ADD MLOAD PUSH1 0x1 DUP1 DUP4 ADD DUP1 SLOAD SWAP1 SWAP2 PUSH1 0xFF NOT SWAP1 SWAP2 AND SWAP1 DUP4 PUSH1 0x4 DUP2 GT ISZERO PUSH2 0x6EC JUMPI PUSH2 0x6EC PUSH2 0xD08 JUMP JUMPDEST MUL OR SWAP1 SSTORE POP PUSH1 0x40 DUP3 ADD MLOAD PUSH1 0x1 DUP3 ADD DUP1 SLOAD PUSH2 0xFF00 NOT AND PUSH2 0x100 DUP4 PUSH1 0x4 DUP2 GT ISZERO PUSH2 0x716 JUMPI PUSH2 0x716 PUSH2 0xD08 JUMP JUMPDEST MUL OR SWAP1 SSTORE POP POP PUSH1 0x5 SLOAD PUSH1 0x40 MLOAD PUSH1 0xFF SWAP1 SWAP2 AND SWAP2 POP PUSH1 0x8 SWAP1 PUSH2 0x737 SWAP1 DUP11 SWAP1 PUSH2 0x11F3 JUMP JUMPDEST SWAP1 DUP2 MSTORE PUSH1 0x40 MLOAD SWAP1 DUP2 SWAP1 SUB PUSH1 0x20 ADD SWAP1 KECCAK256 DUP1 SLOAD PUSH1 0xFF NOT AND PUSH1 0x1 DUP4 PUSH1 0x4 DUP2 GT ISZERO PUSH2 0x760 JUMPI PUSH2 0x760 PUSH2 0xD08 JUMP JUMPDEST MUL OR SWAP1 SSTORE POP PUSH1 0x5 PUSH1 0x1 SWAP1 SLOAD SWAP1 PUSH2 0x100 EXP SWAP1 DIV PUSH1 0xFF AND PUSH1 0x7 DUP9 PUSH1 0x40 MLOAD PUSH2 0x785 SWAP2 SWAP1 PUSH2 0x11F3 JUMP JUMPDEST SWAP1 DUP2 MSTORE PUSH1 0x40 MLOAD SWAP1 DUP2 SWAP1 SUB PUSH1 0x20 ADD SWAP1 KECCAK256 DUP1 SLOAD PUSH1 0xFF NOT AND PUSH1 0x1 DUP4 PUSH1 0x4 DUP2 GT ISZERO PUSH2 0x7AE JUMPI PUSH2 0x7AE PUSH2 0xD08 JUMP JUMPDEST MUL OR SWAP1 SSTORE POP POP POP POP POP POP POP POP JUMP JUMPDEST PUSH1 0x0 SLOAD PUSH1 0x1 PUSH1 0x1 PUSH1 0xA0 SHL SUB AND CALLER EQ PUSH2 0x7E6 JUMPI PUSH1 0x40 MLOAD PUSH3 0x461BCD PUSH1 0xE5 SHL DUP2 MSTORE PUSH1 0x4 ADD PUSH2 0x341 SWAP1 PUSH2 0x1183 JUMP JUMPDEST PUSH2 0x7F0 PUSH1 0x0 PUSH2 0xB10 JUMP JUMPDEST JUMP JUMPDEST PUSH1 0x6 DUP2 DUP2 SLOAD DUP2 LT PUSH2 0x802 JUMPI PUSH1 0x0 DUP1 REVERT JUMPDEST SWAP1 PUSH1 0x0 MSTORE PUSH1 0x20 PUSH1 0x0 KECCAK256 SWAP1 PUSH1 0x2 MUL ADD PUSH1 0x0 SWAP2 POP SWAP1 POP DUP1 PUSH1 0x0 ADD DUP1 SLOAD PUSH2 0x825 SWAP1 PUSH2 0x11B8 JUMP JUMPDEST DUP1 PUSH1 0x1F ADD PUSH1 0x20 DUP1 SWAP2 DIV MUL PUSH1 0x20 ADD PUSH1 0x40 MLOAD SWAP1 DUP2 ADD PUSH1 0x40 MSTORE DUP1 SWAP3 SWAP2 SWAP1 DUP2 DUP2 MSTORE PUSH1 0x20 ADD DUP3 DUP1 SLOAD PUSH2 0x851 SWAP1 PUSH2 0x11B8 JUMP JUMPDEST DUP1 ISZERO PUSH2 0x89E JUMPI DUP1 PUSH1 0x1F LT PUSH2 0x873 JUMPI PUSH2 0x100 DUP1 DUP4 SLOAD DIV MUL DUP4 MSTORE SWAP2 PUSH1 0x20 ADD SWAP2 PUSH2 0x89E JUMP JUMPDEST DUP3 ADD SWAP2 SWAP1 PUSH1 0x0 MSTORE PUSH1 0x20 PUSH1 0x0 KECCAK256 SWAP1 JUMPDEST DUP2 SLOAD DUP2 MSTORE SWAP1 PUSH1 0x1 ADD SWAP1 PUSH1 0x20 ADD DUP1 DUP4 GT PUSH2 0x881 JUMPI DUP3 SWAP1 SUB PUSH1 0x1F AND DUP3 ADD SWAP2 JUMPDEST POP POP POP PUSH1 0x1 SWAP1 SWAP4 ADD SLOAD SWAP2 SWAP3 POP POP PUSH1 0xFF DUP1 DUP3 AND SWAP2 PUSH2 0x100 SWAP1 DIV AND DUP4 JUMP JUMPDEST PUSH1 0x0 DUP1 PUSH1 0x1 DUP5 PUSH1 0x4 DUP2 GT ISZERO PUSH2 0x8D1 JUMPI PUSH2 0x8D1 PUSH2 0xD08 JUMP JUMPDEST EQ DUP1 PUSH2 0x8EE JUMPI POP PUSH1 0x2 DUP5 PUSH1 0x4 DUP2 GT ISZERO PUSH2 0x8EC JUMPI PUSH2 0x8EC PUSH2 0xD08 JUMP JUMPDEST EQ JUMPDEST DUP1 PUSH2 0x90A JUMPI POP PUSH1 0x3 DUP5 PUSH1 0x4 DUP2 GT ISZERO PUSH2 0x908 JUMPI PUSH2 0x908 PUSH2 0xD08 JUMP JUMPDEST EQ JUMPDEST DUP1 ISZERO PUSH2 0x927 JUMPI POP PUSH1 0x1 DUP4 PUSH1 0x4 DUP2 GT ISZERO PUSH2 0x925 JUMPI PUSH2 0x925 PUSH2 0xD08 JUMP JUMPDEST EQ JUMPDEST ISZERO PUSH2 0x934 JUMPI POP PUSH1 0x1 PUSH2 0x9ED JUMP JUMPDEST PUSH1 0x4 DUP5 PUSH1 0x4 DUP2 GT ISZERO PUSH2 0x948 JUMPI PUSH2 0x948 PUSH2 0xD08 JUMP JUMPDEST EQ DUP1 ISZERO PUSH2 0x966 JUMPI POP PUSH1 0x4 DUP4 PUSH1 0x4 DUP2 GT ISZERO PUSH2 0x964 JUMPI PUSH2 0x964 PUSH2 0xD08 JUMP JUMPDEST EQ JUMPDEST ISZERO PUSH2 0x973 JUMPI POP PUSH1 0x1 PUSH2 0x9ED JUMP JUMPDEST PUSH1 0x0 DUP5 PUSH1 0x4 DUP2 GT ISZERO PUSH2 0x987 JUMPI PUSH2 0x987 PUSH2 0xD08 JUMP JUMPDEST EQ DUP1 ISZERO PUSH2 0x9DC JUMPI POP PUSH1 0x3 DUP4 PUSH1 0x4 DUP2 GT ISZERO PUSH2 0x9A3 JUMPI PUSH2 0x9A3 PUSH2 0xD08 JUMP JUMPDEST EQ DUP1 PUSH2 0x9C0 JUMPI POP PUSH1 0x2 DUP4 PUSH1 0x4 DUP2 GT ISZERO PUSH2 0x9BE JUMPI PUSH2 0x9BE PUSH2 0xD08 JUMP JUMPDEST EQ JUMPDEST DUP1 PUSH2 0x9DC JUMPI POP PUSH1 0x0 DUP4 PUSH1 0x4 DUP2 GT ISZERO PUSH2 0x9DA JUMPI PUSH2 0x9DA PUSH2 0xD08 JUMP JUMPDEST EQ JUMPDEST ISZERO PUSH2 0x9E9 JUMPI POP PUSH1 0x1 PUSH2 0x9ED JUMP JUMPDEST POP PUSH1 0x0 JUMPDEST SWAP4 SWAP3 POP POP POP JUMP JUMPDEST PUSH1 0x0 SLOAD PUSH1 0x1 PUSH1 0x1 PUSH1 0xA0 SHL SUB AND CALLER EQ PUSH2 0xA1E JUMPI PUSH1 0x40 MLOAD PUSH3 0x461BCD PUSH1 0xE5 SHL DUP2 MSTORE PUSH1 0x4 ADD PUSH2 0x341 SWAP1 PUSH2 0x1183 JUMP JUMPDEST DUP4 MLOAD PUSH2 0xA31 SWAP1 PUSH1 0x1 SWAP1 PUSH1 0x20 DUP8 ADD SWAP1 PUSH2 0xC24 JUMP JUMPDEST POP DUP2 MLOAD PUSH2 0xA45 SWAP1 PUSH1 0x2 SWAP1 PUSH1 0x20 DUP6 ADD SWAP1 PUSH2 0xC24 JUMP JUMPDEST POP DUP3 MLOAD PUSH2 0xA59 SWAP1 PUSH1 0x3 SWAP1 PUSH1 0x20 DUP7 ADD SWAP1 PUSH2 0xC24 JUMP JUMPDEST POP DUP1 MLOAD PUSH2 0xA6D SWAP1 PUSH1 0x4 SWAP1 PUSH1 0x20 DUP5 ADD SWAP1 PUSH2 0xC24 JUMP JUMPDEST POP PUSH2 0xA76 PUSH2 0x317 JUMP JUMPDEST POP POP POP POP JUMP JUMPDEST PUSH1 0x0 SLOAD PUSH1 0x1 PUSH1 0x1 PUSH1 0xA0 SHL SUB AND CALLER EQ PUSH2 0xAA6 JUMPI PUSH1 0x40 MLOAD PUSH3 0x461BCD PUSH1 0xE5 SHL DUP2 MSTORE PUSH1 0x4 ADD PUSH2 0x341 SWAP1 PUSH2 0x1183 JUMP JUMPDEST PUSH1 0x1 PUSH1 0x1 PUSH1 0xA0 SHL SUB DUP2 AND PUSH2 0xB0B JUMPI PUSH1 0x40 MLOAD PUSH3 0x461BCD PUSH1 0xE5 SHL DUP2 MSTORE PUSH1 0x20 PUSH1 0x4 DUP3 ADD MSTORE PUSH1 0x26 PUSH1 0x24 DUP3 ADD MSTORE PUSH32 0x4F776E61626C653A206E6577206F776E657220697320746865207A65726F2061 PUSH1 0x44 DUP3 ADD MSTORE PUSH6 0x646472657373 PUSH1 0xD0 SHL PUSH1 0x64 DUP3 ADD MSTORE PUSH1 0x84 ADD PUSH2 0x341 JUMP JUMPDEST PUSH2 0x431 DUP2 JUMPDEST PUSH1 0x0 DUP1 SLOAD PUSH1 0x1 PUSH1 0x1 PUSH1 0xA0 SHL SUB DUP4 DUP2 AND PUSH1 0x1 PUSH1 0x1 PUSH1 0xA0 SHL SUB NOT DUP4 AND DUP2 OR DUP5 SSTORE PUSH1 0x40 MLOAD SWAP2 SWAP1 SWAP3 AND SWAP3 DUP4 SWAP2 PUSH32 0x8BE0079C531659141344CD1FD0A4F28419497F9722A3DAAFE3B4186F6B6457E0 SWAP2 SWAP1 LOG3 POP POP JUMP JUMPDEST DUP3 DUP1 SLOAD DUP3 DUP3 SSTORE SWAP1 PUSH1 0x0 MSTORE PUSH1 0x20 PUSH1 0x0 KECCAK256 SWAP1 DUP2 ADD SWAP3 DUP3 ISZERO PUSH2 0xBA0 JUMPI PUSH1 0x0 MSTORE PUSH1 0x20 PUSH1 0x0 KECCAK256 SWAP2 DUP3 ADD JUMPDEST DUP3 DUP2 GT ISZERO PUSH2 0xBA0 JUMPI DUP3 SLOAD DUP3 SSTORE SWAP2 PUSH1 0x1 ADD SWAP2 SWAP1 PUSH1 0x1 ADD SWAP1 PUSH2 0xB85 JUMP JUMPDEST POP PUSH2 0xBAC SWAP3 SWAP2 POP PUSH2 0xC5E JUMP JUMPDEST POP SWAP1 JUMP JUMPDEST DUP3 DUP1 SLOAD PUSH2 0xBBC SWAP1 PUSH2 0x11B8 JUMP JUMPDEST SWAP1 PUSH1 0x0 MSTORE PUSH1 0x20 PUSH1 0x0 KECCAK256 SWAP1 PUSH1 0x1F ADD PUSH1 0x20 SWAP1 DIV DUP2 ADD SWAP3 DUP3 PUSH2 0xBDE JUMPI PUSH1 0x0 DUP6 SSTORE PUSH2 0xBA0 JUMP JUMPDEST DUP3 PUSH1 0x1F LT PUSH2 0xBF7 JUMPI DUP1 MLOAD PUSH1 0xFF NOT AND DUP4 DUP1 ADD OR DUP6 SSTORE PUSH2 0xBA0 JUMP JUMPDEST DUP3 DUP1 ADD PUSH1 0x1 ADD DUP6 SSTORE DUP3 ISZERO PUSH2 0xBA0 JUMPI SWAP2 DUP3 ADD JUMPDEST DUP3 DUP2 GT ISZERO PUSH2 0xBA0 JUMPI DUP3 MLOAD DUP3 SSTORE SWAP2 PUSH1 0x20 ADD SWAP2 SWAP1 PUSH1 0x1 ADD SWAP1 PUSH2 0xC09 JUMP JUMPDEST DUP3 DUP1 SLOAD DUP3 DUP3 SSTORE SWAP1 PUSH1 0x0 MSTORE PUSH1 0x20 PUSH1 0x0 KECCAK256 SWAP1 DUP2 ADD SWAP3 DUP3 ISZERO PUSH2 0xBA0 JUMPI SWAP2 PUSH1 0x20 MUL DUP3 ADD DUP3 DUP2 GT ISZERO PUSH2 0xBA0 JUMPI DUP3 MLOAD DUP3 SSTORE SWAP2 PUSH1 0x20 ADD SWAP2 SWAP1 PUSH1 0x1 ADD SWAP1 PUSH2 0xC09 JUMP JUMPDEST JUMPDEST DUP1 DUP3 GT ISZERO PUSH2 0xBAC JUMPI PUSH1 0x0 DUP2 SSTORE PUSH1 0x1 ADD PUSH2 0xC5F JUMP JUMPDEST PUSH1 0x5 DUP2 LT PUSH2 0x431 JUMPI PUSH1 0x0 DUP1 REVERT JUMPDEST PUSH1 0x0 DUP1 PUSH1 0x40 DUP4 DUP6 SUB SLT ISZERO PUSH2 0xC93 JUMPI PUSH1 0x0 DUP1 REVERT JUMPDEST DUP3 CALLDATALOAD SWAP2 POP PUSH1 0x20 DUP4 ADD CALLDATALOAD PUSH2 0xCA5 DUP2 PUSH2 0xC73 JUMP JUMPDEST DUP1 SWAP2 POP POP SWAP3 POP SWAP3 SWAP1 POP JUMP JUMPDEST PUSH1 0x0 JUMPDEST DUP4 DUP2 LT ISZERO PUSH2 0xCCB JUMPI DUP2 DUP2 ADD MLOAD DUP4 DUP3 ADD MSTORE PUSH1 0x20 ADD PUSH2 0xCB3 JUMP JUMPDEST DUP4 DUP2 GT ISZERO PUSH2 0xA76 JUMPI POP POP PUSH1 0x0 SWAP2 ADD MSTORE JUMP JUMPDEST PUSH1 0x0 DUP2 MLOAD DUP1 DUP5 MSTORE PUSH2 0xCF4 DUP2 PUSH1 0x20 DUP7 ADD PUSH1 0x20 DUP7 ADD PUSH2 0xCB0 JUMP JUMPDEST PUSH1 0x1F ADD PUSH1 0x1F NOT AND SWAP3 SWAP1 SWAP3 ADD PUSH1 0x20 ADD SWAP3 SWAP2 POP POP JUMP JUMPDEST PUSH4 0x4E487B71 PUSH1 0xE0 SHL PUSH1 0x0 MSTORE PUSH1 0x21 PUSH1 0x4 MSTORE PUSH1 0x24 PUSH1 0x0 REVERT JUMPDEST PUSH1 0x5 DUP2 LT PUSH2 0x431 JUMPI PUSH4 0x4E487B71 PUSH1 0xE0 SHL PUSH1 0x0 MSTORE PUSH1 0x21 PUSH1 0x4 MSTORE PUSH1 0x24 PUSH1 0x0 REVERT JUMPDEST PUSH1 0x0 PUSH1 0x20 DUP1 DUP4 ADD DUP2 DUP5 MSTORE DUP1 DUP6 MLOAD DUP1 DUP4 MSTORE PUSH1 0x40 SWAP3 POP DUP3 DUP7 ADD SWAP2 POP DUP3 DUP2 PUSH1 0x5 SHL DUP8 ADD ADD DUP5 DUP9 ADD PUSH1 0x0 JUMPDEST DUP4 DUP2 LT ISZERO PUSH2 0xDBF JUMPI PUSH1 0x3F NOT DUP10 DUP5 SUB ADD DUP6 MSTORE DUP2 MLOAD PUSH1 0x60 DUP2 MLOAD DUP2 DUP7 MSTORE PUSH2 0xD89 DUP3 DUP8 ADD DUP3 PUSH2 0xCDC JUMP JUMPDEST SWAP2 POP POP DUP9 DUP3 ADD MLOAD PUSH2 0xD99 DUP2 PUSH2 0xD1E JUMP JUMPDEST DUP6 DUP11 ADD MSTORE SWAP1 DUP8 ADD MLOAD SWAP1 PUSH2 0xDAB DUP3 PUSH2 0xD1E JUMP JUMPDEST SWAP4 DUP8 ADD MSTORE SWAP4 DUP7 ADD SWAP4 SWAP1 DUP7 ADD SWAP1 PUSH1 0x1 ADD PUSH2 0xD63 JUMP JUMPDEST POP SWAP1 SWAP9 SWAP8 POP POP POP POP POP POP POP POP JUMP JUMPDEST PUSH1 0x0 DUP1 PUSH1 0x40 DUP4 DUP6 SUB SLT ISZERO PUSH2 0xDE0 JUMPI PUSH1 0x0 DUP1 REVERT JUMPDEST DUP3 CALLDATALOAD PUSH2 0xDEB DUP2 PUSH2 0xC73 JUMP JUMPDEST SWAP5 PUSH1 0x20 SWAP4 SWAP1 SWAP4 ADD CALLDATALOAD SWAP4 POP POP POP JUMP JUMPDEST PUSH4 0x4E487B71 PUSH1 0xE0 SHL PUSH1 0x0 MSTORE PUSH1 0x41 PUSH1 0x4 MSTORE PUSH1 0x24 PUSH1 0x0 REVERT JUMPDEST PUSH1 0x40 MLOAD PUSH1 0x1F DUP3 ADD PUSH1 0x1F NOT AND DUP2 ADD PUSH8 0xFFFFFFFFFFFFFFFF DUP2 GT DUP3 DUP3 LT OR ISZERO PUSH2 0xE38 JUMPI PUSH2 0xE38 PUSH2 0xDF9 JUMP JUMPDEST PUSH1 0x40 MSTORE SWAP2 SWAP1 POP JUMP JUMPDEST PUSH1 0x0 DUP3 PUSH1 0x1F DUP4 ADD SLT PUSH2 0xE51 JUMPI PUSH1 0x0 DUP1 REVERT JUMPDEST DUP2 CALLDATALOAD PUSH8 0xFFFFFFFFFFFFFFFF DUP2 GT ISZERO PUSH2 0xE6B JUMPI PUSH2 0xE6B PUSH2 0xDF9 JUMP JUMPDEST PUSH2 0xE7E PUSH1 0x1F DUP3 ADD PUSH1 0x1F NOT AND PUSH1 0x20 ADD PUSH2 0xE0F JUMP JUMPDEST DUP2 DUP2 MSTORE DUP5 PUSH1 0x20 DUP4 DUP7 ADD ADD GT ISZERO PUSH2 0xE93 JUMPI PUSH1 0x0 DUP1 REVERT JUMPDEST DUP2 PUSH1 0x20 DUP6 ADD PUSH1 0x20 DUP4 ADD CALLDATACOPY PUSH1 0x0 SWAP2 DUP2 ADD PUSH1 0x20 ADD SWAP2 SWAP1 SWAP2 MSTORE SWAP4 SWAP3 POP POP POP JUMP JUMPDEST PUSH1 0x0 DUP1 PUSH1 0x0 DUP1 PUSH1 0x80 DUP6 DUP8 SUB SLT ISZERO PUSH2 0xEC6 JUMPI PUSH1 0x0 DUP1 REVERT JUMPDEST DUP5 CALLDATALOAD PUSH8 0xFFFFFFFFFFFFFFFF DUP2 GT ISZERO PUSH2 0xEDD JUMPI PUSH1 0x0 DUP1 REVERT JUMPDEST PUSH2 0xEE9 DUP8 DUP3 DUP9 ADD PUSH2 0xE40 JUMP JUMPDEST SWAP5 POP POP PUSH1 0x20 DUP6 ADD CALLDATALOAD SWAP3 POP PUSH1 0x40 DUP6 ADD CALLDATALOAD PUSH2 0xF01 DUP2 PUSH2 0xC73 JUMP JUMPDEST SWAP2 POP PUSH1 0x60 DUP6 ADD CALLDATALOAD PUSH2 0xF11 DUP2 PUSH2 0xC73 JUMP JUMPDEST SWAP4 SWAP7 SWAP3 SWAP6 POP SWAP1 SWAP4 POP POP JUMP JUMPDEST PUSH1 0x0 PUSH1 0x20 DUP3 DUP5 SUB SLT ISZERO PUSH2 0xF2E JUMPI PUSH1 0x0 DUP1 REVERT JUMPDEST DUP2 CALLDATALOAD PUSH8 0xFFFFFFFFFFFFFFFF DUP2 GT ISZERO PUSH2 0xF45 JUMPI PUSH1 0x0 DUP1 REVERT JUMPDEST PUSH2 0xF51 DUP5 DUP3 DUP6 ADD PUSH2 0xE40 JUMP JUMPDEST SWAP5 SWAP4 POP POP POP POP JUMP JUMPDEST PUSH1 0x20 DUP2 ADD PUSH2 0xF66 DUP4 PUSH2 0xD1E JUMP JUMPDEST SWAP2 SWAP1 MSTORE SWAP1 JUMP JUMPDEST PUSH1 0x0 PUSH1 0x20 DUP3 DUP5 SUB SLT ISZERO PUSH2 0xF7E JUMPI PUSH1 0x0 DUP1 REVERT JUMPDEST POP CALLDATALOAD SWAP2 SWAP1 POP JUMP JUMPDEST PUSH1 0x60 DUP2 MSTORE PUSH1 0x0 PUSH2 0xF98 PUSH1 0x60 DUP4 ADD DUP7 PUSH2 0xCDC JUMP JUMPDEST SWAP1 POP PUSH2 0xFA3 DUP5 PUSH2 0xD1E JUMP JUMPDEST DUP4 PUSH1 0x20 DUP4 ADD MSTORE PUSH2 0xFB2 DUP4 PUSH2 0xD1E JUMP JUMPDEST DUP3 PUSH1 0x40 DUP4 ADD MSTORE SWAP5 SWAP4 POP POP POP POP JUMP JUMPDEST PUSH1 0x0 DUP1 PUSH1 0x40 DUP4 DUP6 SUB SLT ISZERO PUSH2 0xFD3 JUMPI PUSH1 0x0 DUP1 REVERT JUMPDEST DUP3 CALLDATALOAD PUSH2 0xFDE DUP2 PUSH2 0xC73 JUMP JUMPDEST SWAP2 POP PUSH1 0x20 DUP4 ADD CALLDATALOAD PUSH2 0xCA5 DUP2 PUSH2 0xC73 JUMP JUMPDEST PUSH1 0x0 DUP3 PUSH1 0x1F DUP4 ADD SLT PUSH2 0xFFF JUMPI PUSH1 0x0 DUP1 REVERT JUMPDEST DUP2 CALLDATALOAD PUSH1 0x20 PUSH8 0xFFFFFFFFFFFFFFFF DUP3 GT ISZERO PUSH2 0x101B JUMPI PUSH2 0x101B PUSH2 0xDF9 JUMP JUMPDEST DUP2 PUSH1 0x5 SHL PUSH2 0x102A DUP3 DUP3 ADD PUSH2 0xE0F JUMP JUMPDEST SWAP3 DUP4 MSTORE DUP5 DUP2 ADD DUP3 ADD SWAP3 DUP3 DUP2 ADD SWAP1 DUP8 DUP6 GT ISZERO PUSH2 0x1044 JUMPI PUSH1 0x0 DUP1 REVERT JUMPDEST DUP4 DUP8 ADD SWAP3 POP JUMPDEST DUP5 DUP4 LT ISZERO PUSH2 0x1063 JUMPI DUP3 CALLDATALOAD DUP3 MSTORE SWAP2 DUP4 ADD SWAP2 SWAP1 DUP4 ADD SWAP1 PUSH2 0x104A JUMP JUMPDEST SWAP8 SWAP7 POP POP POP POP POP POP POP JUMP JUMPDEST PUSH1 0x0 DUP1 PUSH1 0x0 DUP1 PUSH1 0x80 DUP6 DUP8 SUB SLT ISZERO PUSH2 0x1084 JUMPI PUSH1 0x0 DUP1 REVERT JUMPDEST DUP5 CALLDATALOAD PUSH8 0xFFFFFFFFFFFFFFFF DUP1 DUP3 GT ISZERO PUSH2 0x109C JUMPI PUSH1 0x0 DUP1 REVERT JUMPDEST PUSH2 0x10A8 DUP9 DUP4 DUP10 ADD PUSH2 0xFEE JUMP JUMPDEST SWAP6 POP PUSH1 0x20 DUP8 ADD CALLDATALOAD SWAP2 POP DUP1 DUP3 GT ISZERO PUSH2 0x10BE JUMPI PUSH1 0x0 DUP1 REVERT JUMPDEST PUSH2 0x10CA DUP9 DUP4 DUP10 ADD PUSH2 0xFEE JUMP JUMPDEST SWAP5 POP PUSH1 0x40 DUP8 ADD CALLDATALOAD SWAP2 POP DUP1 DUP3 GT ISZERO PUSH2 0x10E0 JUMPI PUSH1 0x0 DUP1 REVERT JUMPDEST PUSH2 0x10EC DUP9 DUP4 DUP10 ADD PUSH2 0xFEE JUMP JUMPDEST SWAP4 POP PUSH1 0x60 DUP8 ADD CALLDATALOAD SWAP2 POP DUP1 DUP3 GT ISZERO PUSH2 0x1102 JUMPI PUSH1 0x0 DUP1 REVERT JUMPDEST POP PUSH2 0x110F DUP8 DUP3 DUP9 ADD PUSH2 0xFEE JUMP JUMPDEST SWAP2 POP POP SWAP3 SWAP6 SWAP2 SWAP5 POP SWAP3 POP JUMP JUMPDEST PUSH1 0x0 PUSH1 0x20 DUP3 DUP5 SUB SLT ISZERO PUSH2 0x112D JUMPI PUSH1 0x0 DUP1 REVERT JUMPDEST DUP2 CALLDATALOAD PUSH1 0x1 PUSH1 0x1 PUSH1 0xA0 SHL SUB DUP2 AND DUP2 EQ PUSH2 0x9ED JUMPI PUSH1 0x0 DUP1 REVERT JUMPDEST PUSH4 0x4E487B71 PUSH1 0xE0 SHL PUSH1 0x0 MSTORE PUSH1 0x32 PUSH1 0x4 MSTORE PUSH1 0x24 PUSH1 0x0 REVERT JUMPDEST PUSH1 0x0 PUSH1 0x0 NOT DUP3 EQ ISZERO PUSH2 0x117C JUMPI PUSH4 0x4E487B71 PUSH1 0xE0 SHL PUSH1 0x0 MSTORE PUSH1 0x11 PUSH1 0x4 MSTORE PUSH1 0x24 PUSH1 0x0 REVERT JUMPDEST POP PUSH1 0x1 ADD SWAP1 JUMP JUMPDEST PUSH1 0x20 DUP1 DUP3 MSTORE DUP2 DUP2 ADD MSTORE PUSH32 0x4F776E61626C653A2063616C6C6572206973206E6F7420746865206F776E6572 PUSH1 0x40 DUP3 ADD MSTORE PUSH1 0x60 ADD SWAP1 JUMP JUMPDEST PUSH1 0x1 DUP2 DUP2 SHR SWAP1 DUP3 AND DUP1 PUSH2 0x11CC JUMPI PUSH1 0x7F DUP3 AND SWAP2 POP JUMPDEST PUSH1 0x20 DUP3 LT DUP2 EQ ISZERO PUSH2 0x11ED JUMPI PUSH4 0x4E487B71 PUSH1 0xE0 SHL PUSH1 0x0 MSTORE PUSH1 0x22 PUSH1 0x4 MSTORE PUSH1 0x24 PUSH1 0x0 REVERT JUMPDEST POP SWAP2 SWAP1 POP JUMP JUMPDEST PUSH1 0x0 DUP3 MLOAD PUSH2 0x1205 DUP2 DUP5 PUSH1 0x20 DUP8 ADD PUSH2 0xCB0 JUMP JUMPDEST SWAP2 SWAP1 SWAP2 ADD SWAP3 SWAP2 POP POP JUMP INVALID LOG2 PUSH5 0x6970667358 0x22 SLT KECCAK256 0xDB DUP1 KECCAK256 PUSH19 0x51E692BB4E297A5E7D56CC4F2F754F7CEDF4F0 CREATE2 0xDD RETURNDATACOPY EXTCODESIZE PUSH17 0xD5F7DB4964736F6C634300080B00330000 ","sha1":"5f46d5037fb71be46ff86bd22f04097ed49ede5e","source":"// SPDX-License-Identifier: MIT\n\n// This contract will allow you to setup your user account to either be an uploader and downloadedr and cloud storage user (NRO user), service provider for storage, cloud or both (AWS)\n// Users should belong to an organization. * Can implement different coins to allow you to authenticate to a group. * Service providers do not need to belong to an organization for now\n// Authentication should be occuring throughout. Once your account is established correctly you should only be able to click the link for the page you will be allowed to use.\n// There will be different contracts once you enter a link. \n\npragma solidity >=0.6.0 <0.9.0;\nimport \"@openzeppelin/contracts/access/Ownable.sol\";\n\ncontract DetermineUser is Ownable{\n\n    uint256[] _privateKeyNRO;uint256[] _privateKeyNSA;uint256[] _privateKeyCIA;uint256[] _privateKeyAWS;\n    constructor(uint256[] memory privateKeyNRO,uint256[] memory privateKeyCIA,uint256[] memory privateKeyNSA,uint256[] memory privateKeyAWS) { // extend this for user type and orgname, should be a list of numbers\n\n        _privateKeyNRO = privateKeyNRO;\n        _privateKeyNSA = privateKeyNSA;\n        _privateKeyCIA = privateKeyCIA;\n        _privateKeyAWS = privateKeyAWS;\n    }\n\n    enum OrgName{ None, NRO, NSA, CIA, AWS }\n    OrgName _orgName;\n\n    enum UserType{ None, User,ProviderStorage, ProviderCloud, ProviderBoth}\n    UserType _userType;\n\n    struct People {\n        string name;\n        UserType yourUserType;\n        OrgName organization;\n    }\n    \n    People[] public people;\n    mapping(string => UserType) public nameToUserType;\n    mapping(string => OrgName) public nameToOrganization;\n    mapping(OrgName => uint256[]) public orgnameToKey;\n    \n    function createMapping() public onlyOwner{ //must be called in order for contract to run\n        orgnameToKey[OrgName.NRO]= _privateKeyNRO;\n        orgnameToKey[OrgName.NSA]= _privateKeyNSA;\n        orgnameToKey[OrgName.CIA]= _privateKeyCIA;\n        orgnameToKey[OrgName.AWS]= _privateKeyAWS;\n        \n    }\n\n    // if owner wants to change private keys after contract is deployed\n    function changePrivateKeys(uint256[] memory _newprivateKeyNRO,uint256[] memory _newprivateKeyCIA,uint256[] memory _newprivateKeyNSA,uint256[] memory _newprivateKeyAWS) public onlyOwner{ //input should be a new list of numbers\n        _privateKeyNRO=_newprivateKeyNRO;\n        _privateKeyNSA=_newprivateKeyNSA;\n        _privateKeyCIA=_newprivateKeyCIA;\n        _privateKeyAWS=_newprivateKeyAWS;\n        createMapping();\n    }\n\n   \n\n    function checkOrgList(uint256 usersPrivateKey,  OrgName selectionNumOrg) public view returns(bool){//checks if number is in list and list is based on organization chosen\n        bool result;\n        result= false;\n        if (selectionNumOrg==OrgName.None) {result=true;}\n        //wont go through the loop anyway if orgname is none\n        for (uint j = 0; j < orgnameToKey[selectionNumOrg].length; j++) {\n            if (orgnameToKey[selectionNumOrg][j]==usersPrivateKey){result=true;break;} else {result=false;} \n        }\n        return result;\n\n    }\n    function checkTypeList(OrgName selectionNumOrg, UserType selectionNumType) public pure returns(bool){ // ensure that only certain organizations can be determined as a specific type etc.\n        bool result;\n        result= false;\n\n        if ((selectionNumOrg==OrgName.NRO || selectionNumOrg==OrgName.NSA || selectionNumOrg==OrgName.CIA) && selectionNumType==UserType.User){result=true;\n        } else if (selectionNumOrg==OrgName.AWS && selectionNumType==UserType.ProviderBoth) {result=true;\n        } else if (selectionNumOrg==OrgName.None && (selectionNumType==UserType.ProviderCloud || selectionNumType==UserType.ProviderStorage || selectionNumType==UserType.None)){result=true;\n        } else {result=false;}\n        \n        return result;\n\n    }\n     // modifier to check whether your private key has authorization to a specific user type. \n    modifier onlyCertainKeys(uint256 usersPrivateKey, UserType selectionNumType, OrgName selectionNumOrg){ \n\n        require(checkOrgList(usersPrivateKey, selectionNumOrg), 'You cant do this');\n        require(checkTypeList(selectionNumOrg, selectionNumType), 'You cant do this');\n        _;\n\n    }\n\n    function people_list() public view returns (People[] memory) { //A list of users\n        return people;\n    }\n\n    // add a person to an organization and determine the type of user.\n    function addPerson( string memory _name, uint256 usersPrivateKey, UserType selectionNumType, OrgName selectionNumOrg) public onlyCertainKeys(usersPrivateKey, selectionNumType, selectionNumOrg) {\n        // Check whether user is authorized to the organization and user type by using their private key and authenticating in the two seperate functions\n\n        people.push(People( _name, selectionNumType, selectionNumOrg));\n        nameToOrganization[_name]= _orgName;\n        nameToUserType[_name]= _userType;\n    }\n\n\n    // only owner can authenticate a key because the contract deployment process and the changePrivateKeys function\n    // if i implement an automatic payment to user type in here than the same owner would have to be for both contracts and i would have to increase allowance everytime someone is added anyway.\n    \n    \n\n}\n","sourcePath":"contracts/DetermineUser.sol","type":"contract","deployment":{"address":"0x590EE4596480F8Bf407C209C1cAA4223B0068D50","chainid":"4","blockHeight":10073228}}