{"bytecode":"6080604052600160035534801561001557600080fd5b506040516107f23803806107f283398101604081905261003491610081565b600080546001600160a01b039384166001600160a01b031991821617909155600180549290931691161790556100b4565b80516001600160a01b038116811461007c57600080fd5b919050565b6000806040838503121561009457600080fd5b61009d83610065565b91506100ab60208401610065565b90509250929050565b61072f806100c36000396000f3fe608060405234801561001057600080fd5b506004361061004c5760003560e01c806306b091f9146100515780631a0c069a1461006657806326a4e8d214610079578063b46300ec1461008c575b600080fd5b61006461005f3660046104bd565b610094565b005b6100646100743660046104e7565b6101fd565b610064610087366004610500565b61022c565b610064610278565b6001546001600160a01b031633146100c75760405162461bcd60e51b81526004016100be90610522565b60405180910390fd5b6000546040516370a0823160e01b815230600482015282916001600160a01b0316906370a0823190602401602060405180830381865afa15801561010f573d6000803e3d6000fd5b505050506040513d601f19601f820116820180604052508101906101339190610559565b10156101815760405162461bcd60e51b815260206004820152601f60248201527f4661756365744572726f723a20496e73756666696369656e742066756e64730060448201526064016100be565b60005460405163a9059cbb60e01b81526001600160a01b038481166004830152602482018490529091169063a9059cbb906044016020604051808303816000875af11580156101d4573d6000803e3d6000fd5b505050506040513d601f19601f820116820180604052508101906101f89190610572565b505050565b6001546001600160a01b031633146102275760405162461bcd60e51b81526004016100be90610522565b600355565b6001546001600160a01b031633146102565760405162461bcd60e51b81526004016100be90610522565b600080546001600160a01b0319166001600160a01b0392909216919091179055565b6000546040516370a0823160e01b81523060048201526001916001600160a01b0316906370a0823190602401602060405180830381865afa1580156102c1573d6000803e3d6000fd5b505050506040513d601f19601f820116820180604052508101906102e59190610559565b116103275760405162461bcd60e51b81526020600482015260126024820152714661756365744572726f723a20456d70747960701b60448201526064016100be565b3360009081526002602052604090205442116103855760405162461bcd60e51b815260206004820152601c60248201527f4661756365744572726f723a2054727920616761696e206c617465720000000060448201526064016100be565b6103914261012c6105aa565b336000818152600260209081526040808320949094559054835163313ce56760e01b815293516001600160a01b039091169363a9059cbb9392859263313ce5679260048082019392918290030181865afa1580156103f3573d6000803e3d6000fd5b505050506040513d601f19601f8201168201806040525081019061041791906105c2565b61042290600a6106cb565b60035461042f91906106da565b6040516001600160e01b031960e085901b1681526001600160a01b03909216600483015260248201526044016020604051808303816000875af115801561047a573d6000803e3d6000fd5b505050506040513d601f19601f8201168201806040525081019061049e9190610572565b50565b80356001600160a01b03811681146104b857600080fd5b919050565b600080604083850312156104d057600080fd5b6104d9836104a1565b946020939093013593505050565b6000602082840312156104f957600080fd5b5035919050565b60006020828403121561051257600080fd5b61051b826104a1565b9392505050565b6020808252601d908201527f4661756365744572726f723a2043616c6c6572206e6f74206f776e6572000000604082015260600190565b60006020828403121561056b57600080fd5b5051919050565b60006020828403121561058457600080fd5b8151801515811461051b57600080fd5b634e487b7160e01b600052601160045260246000fd5b600082198211156105bd576105bd610594565b500190565b6000602082840312156105d457600080fd5b815160ff8116811461051b57600080fd5b600181815b8085111561062057816000190482111561060657610606610594565b8085161561061357918102915b93841c93908002906105ea565b509250929050565b600082610637575060016106c5565b81610644575060006106c5565b816001811461065a576002811461066457610680565b60019150506106c5565b60ff84111561067557610675610594565b50506001821b6106c5565b5060208310610133831016604e8410600b84101617156106a3575081810a6106c5565b6106ad83836105e5565b80600019048211156106c1576106c1610594565b0290505b92915050565b600061051b60ff841683610628565b60008160001904831182151516156106f4576106f4610594565b50029056fea26469706673582212207f3f8c11781c3f330c1929b51614aae7c15065037fb5675ad8c0900a8a72ad0664736f6c634300080b0033","bytecodeSha1":"5fcef2f25cae1e471e140ee13c0f70a9dea23f30","type":"contract","abi":[{"inputs":[{"internalType":"address","name":"_smtAddress","type":"address"},{"internalType":"address","name":"_ownerAddress","type":"address"}],"stateMutability":"nonpayable","type":"constructor","name":"constructor"},{"inputs":[],"name":"send","outputs":[],"stateMutability":"nonpayable","type":"function"},{"inputs":[{"internalType":"uint256","name":"_amount","type":"uint256"}],"name":"setFaucetDripAmount","outputs":[],"stateMutability":"nonpayable","type":"function"},{"inputs":[{"internalType":"address","name":"_tokenAddr","type":"address"}],"name":"setTokenAddress","outputs":[],"stateMutability":"nonpayable","type":"function"},{"inputs":[{"internalType":"address","name":"_receiver","type":"address"},{"internalType":"uint256","name":"_amount","type":"uint256"}],"name":"withdrawTokens","outputs":[],"stateMutability":"nonpayable","type":"function"}],"compiler":{"version":"0.8.11+commit.d7f03943","evm_version":"istanbul","optimizer":{"enabled":true,"runs":200}},"contractName":"Faucet","language":"Solidity","natspec":{"methods":{},"kind":"dev","version":1},"opcodes":"PUSH1 0x80 PUSH1 0x40 MSTORE CALLVALUE DUP1 ISZERO PUSH2 0x10 JUMPI PUSH1 0x0 DUP1 REVERT JUMPDEST POP PUSH1 0x4 CALLDATASIZE LT PUSH2 0x4C JUMPI PUSH1 0x0 CALLDATALOAD PUSH1 0xE0 SHR DUP1 PUSH4 0x6B091F9 EQ PUSH2 0x51 JUMPI DUP1 PUSH4 0x1A0C069A EQ PUSH2 0x66 JUMPI DUP1 PUSH4 0x26A4E8D2 EQ PUSH2 0x79 JUMPI DUP1 PUSH4 0xB46300EC EQ PUSH2 0x8C JUMPI JUMPDEST PUSH1 0x0 DUP1 REVERT JUMPDEST PUSH2 0x64 PUSH2 0x5F CALLDATASIZE PUSH1 0x4 PUSH2 0x4BD JUMP JUMPDEST PUSH2 0x94 JUMP JUMPDEST STOP JUMPDEST PUSH2 0x64 PUSH2 0x74 CALLDATASIZE PUSH1 0x4 PUSH2 0x4E7 JUMP JUMPDEST PUSH2 0x1FD JUMP JUMPDEST PUSH2 0x64 PUSH2 0x87 CALLDATASIZE PUSH1 0x4 PUSH2 0x500 JUMP JUMPDEST PUSH2 0x22C JUMP JUMPDEST PUSH2 0x64 PUSH2 0x278 JUMP JUMPDEST PUSH1 0x1 SLOAD PUSH1 0x1 PUSH1 0x1 PUSH1 0xA0 SHL SUB AND CALLER EQ PUSH2 0xC7 JUMPI PUSH1 0x40 MLOAD PUSH3 0x461BCD PUSH1 0xE5 SHL DUP2 MSTORE PUSH1 0x4 ADD PUSH2 0xBE SWAP1 PUSH2 0x522 JUMP JUMPDEST PUSH1 0x40 MLOAD DUP1 SWAP2 SUB SWAP1 REVERT JUMPDEST PUSH1 0x0 SLOAD PUSH1 0x40 MLOAD PUSH4 0x70A08231 PUSH1 0xE0 SHL DUP2 MSTORE ADDRESS PUSH1 0x4 DUP3 ADD MSTORE DUP3 SWAP2 PUSH1 0x1 PUSH1 0x1 PUSH1 0xA0 SHL SUB AND SWAP1 PUSH4 0x70A08231 SWAP1 PUSH1 0x24 ADD PUSH1 0x20 PUSH1 0x40 MLOAD DUP1 DUP4 SUB DUP2 DUP7 GAS STATICCALL ISZERO DUP1 ISZERO PUSH2 0x10F JUMPI RETURNDATASIZE PUSH1 0x0 DUP1 RETURNDATACOPY RETURNDATASIZE PUSH1 0x0 REVERT JUMPDEST POP POP POP POP PUSH1 0x40 MLOAD RETURNDATASIZE PUSH1 0x1F NOT PUSH1 0x1F DUP3 ADD AND DUP3 ADD DUP1 PUSH1 0x40 MSTORE POP DUP2 ADD SWAP1 PUSH2 0x133 SWAP2 SWAP1 PUSH2 0x559 JUMP JUMPDEST LT ISZERO PUSH2 0x181 JUMPI PUSH1 0x40 MLOAD PUSH3 0x461BCD PUSH1 0xE5 SHL DUP2 MSTORE PUSH1 0x20 PUSH1 0x4 DUP3 ADD MSTORE PUSH1 0x1F PUSH1 0x24 DUP3 ADD MSTORE PUSH32 0x4661756365744572726F723A20496E73756666696369656E742066756E647300 PUSH1 0x44 DUP3 ADD MSTORE PUSH1 0x64 ADD PUSH2 0xBE JUMP JUMPDEST PUSH1 0x0 SLOAD PUSH1 0x40 MLOAD PUSH4 0xA9059CBB PUSH1 0xE0 SHL DUP2 MSTORE PUSH1 0x1 PUSH1 0x1 PUSH1 0xA0 SHL SUB DUP5 DUP2 AND PUSH1 0x4 DUP4 ADD MSTORE PUSH1 0x24 DUP3 ADD DUP5 SWAP1 MSTORE SWAP1 SWAP2 AND SWAP1 PUSH4 0xA9059CBB SWAP1 PUSH1 0x44 ADD PUSH1 0x20 PUSH1 0x40 MLOAD DUP1 DUP4 SUB DUP2 PUSH1 0x0 DUP8 GAS CALL ISZERO DUP1 ISZERO PUSH2 0x1D4 JUMPI RETURNDATASIZE PUSH1 0x0 DUP1 RETURNDATACOPY RETURNDATASIZE PUSH1 0x0 REVERT JUMPDEST POP POP POP POP PUSH1 0x40 MLOAD RETURNDATASIZE PUSH1 0x1F NOT PUSH1 0x1F DUP3 ADD AND DUP3 ADD DUP1 PUSH1 0x40 MSTORE POP DUP2 ADD SWAP1 PUSH2 0x1F8 SWAP2 SWAP1 PUSH2 0x572 JUMP JUMPDEST POP POP POP JUMP JUMPDEST PUSH1 0x1 SLOAD PUSH1 0x1 PUSH1 0x1 PUSH1 0xA0 SHL SUB AND CALLER EQ PUSH2 0x227 JUMPI PUSH1 0x40 MLOAD PUSH3 0x461BCD PUSH1 0xE5 SHL DUP2 MSTORE PUSH1 0x4 ADD PUSH2 0xBE SWAP1 PUSH2 0x522 JUMP JUMPDEST PUSH1 0x3 SSTORE JUMP JUMPDEST PUSH1 0x1 SLOAD PUSH1 0x1 PUSH1 0x1 PUSH1 0xA0 SHL SUB AND CALLER EQ PUSH2 0x256 JUMPI PUSH1 0x40 MLOAD PUSH3 0x461BCD PUSH1 0xE5 SHL DUP2 MSTORE PUSH1 0x4 ADD PUSH2 0xBE SWAP1 PUSH2 0x522 JUMP JUMPDEST PUSH1 0x0 DUP1 SLOAD PUSH1 0x1 PUSH1 0x1 PUSH1 0xA0 SHL SUB NOT AND PUSH1 0x1 PUSH1 0x1 PUSH1 0xA0 SHL SUB SWAP3 SWAP1 SWAP3 AND SWAP2 SWAP1 SWAP2 OR SWAP1 SSTORE JUMP JUMPDEST PUSH1 0x0 SLOAD PUSH1 0x40 MLOAD PUSH4 0x70A08231 PUSH1 0xE0 SHL DUP2 MSTORE ADDRESS PUSH1 0x4 DUP3 ADD MSTORE PUSH1 0x1 SWAP2 PUSH1 0x1 PUSH1 0x1 PUSH1 0xA0 SHL SUB AND SWAP1 PUSH4 0x70A08231 SWAP1 PUSH1 0x24 ADD PUSH1 0x20 PUSH1 0x40 MLOAD DUP1 DUP4 SUB DUP2 DUP7 GAS STATICCALL ISZERO DUP1 ISZERO PUSH2 0x2C1 JUMPI RETURNDATASIZE PUSH1 0x0 DUP1 RETURNDATACOPY RETURNDATASIZE PUSH1 0x0 REVERT JUMPDEST POP POP POP POP PUSH1 0x40 MLOAD RETURNDATASIZE PUSH1 0x1F NOT PUSH1 0x1F DUP3 ADD AND DUP3 ADD DUP1 PUSH1 0x40 MSTORE POP DUP2 ADD SWAP1 PUSH2 0x2E5 SWAP2 SWAP1 PUSH2 0x559 JUMP JUMPDEST GT PUSH2 0x327 JUMPI PUSH1 0x40 MLOAD PUSH3 0x461BCD PUSH1 0xE5 SHL DUP2 MSTORE PUSH1 0x20 PUSH1 0x4 DUP3 ADD MSTORE PUSH1 0x12 PUSH1 0x24 DUP3 ADD MSTORE PUSH18 0x4661756365744572726F723A20456D707479 PUSH1 0x70 SHL PUSH1 0x44 DUP3 ADD MSTORE PUSH1 0x64 ADD PUSH2 0xBE JUMP JUMPDEST CALLER PUSH1 0x0 SWAP1 DUP2 MSTORE PUSH1 0x2 PUSH1 0x20 MSTORE PUSH1 0x40 SWAP1 KECCAK256 SLOAD TIMESTAMP GT PUSH2 0x385 JUMPI PUSH1 0x40 MLOAD PUSH3 0x461BCD PUSH1 0xE5 SHL DUP2 MSTORE PUSH1 0x20 PUSH1 0x4 DUP3 ADD MSTORE PUSH1 0x1C PUSH1 0x24 DUP3 ADD MSTORE PUSH32 0x4661756365744572726F723A2054727920616761696E206C6174657200000000 PUSH1 0x44 DUP3 ADD MSTORE PUSH1 0x64 ADD PUSH2 0xBE JUMP JUMPDEST PUSH2 0x391 TIMESTAMP PUSH2 0x12C PUSH2 0x5AA JUMP JUMPDEST CALLER PUSH1 0x0 DUP2 DUP2 MSTORE PUSH1 0x2 PUSH1 0x20 SWAP1 DUP2 MSTORE PUSH1 0x40 DUP1 DUP4 KECCAK256 SWAP5 SWAP1 SWAP5 SSTORE SWAP1 SLOAD DUP4 MLOAD PUSH4 0x313CE567 PUSH1 0xE0 SHL DUP2 MSTORE SWAP4 MLOAD PUSH1 0x1 PUSH1 0x1 PUSH1 0xA0 SHL SUB SWAP1 SWAP2 AND SWAP4 PUSH4 0xA9059CBB SWAP4 SWAP3 DUP6 SWAP3 PUSH4 0x313CE567 SWAP3 PUSH1 0x4 DUP1 DUP3 ADD SWAP4 SWAP3 SWAP2 DUP3 SWAP1 SUB ADD DUP2 DUP7 GAS STATICCALL ISZERO DUP1 ISZERO PUSH2 0x3F3 JUMPI RETURNDATASIZE PUSH1 0x0 DUP1 RETURNDATACOPY RETURNDATASIZE PUSH1 0x0 REVERT JUMPDEST POP POP POP POP PUSH1 0x40 MLOAD RETURNDATASIZE PUSH1 0x1F NOT PUSH1 0x1F DUP3 ADD AND DUP3 ADD DUP1 PUSH1 0x40 MSTORE POP DUP2 ADD SWAP1 PUSH2 0x417 SWAP2 SWAP1 PUSH2 0x5C2 JUMP JUMPDEST PUSH2 0x422 SWAP1 PUSH1 0xA PUSH2 0x6CB JUMP JUMPDEST PUSH1 0x3 SLOAD PUSH2 0x42F SWAP2 SWAP1 PUSH2 0x6DA JUMP JUMPDEST PUSH1 0x40 MLOAD PUSH1 0x1 PUSH1 0x1 PUSH1 0xE0 SHL SUB NOT PUSH1 0xE0 DUP6 SWAP1 SHL AND DUP2 MSTORE PUSH1 0x1 PUSH1 0x1 PUSH1 0xA0 SHL SUB SWAP1 SWAP3 AND PUSH1 0x4 DUP4 ADD MSTORE PUSH1 0x24 DUP3 ADD MSTORE PUSH1 0x44 ADD PUSH1 0x20 PUSH1 0x40 MLOAD DUP1 DUP4 SUB DUP2 PUSH1 0x0 DUP8 GAS CALL ISZERO DUP1 ISZERO PUSH2 0x47A JUMPI RETURNDATASIZE PUSH1 0x0 DUP1 RETURNDATACOPY RETURNDATASIZE PUSH1 0x0 REVERT JUMPDEST POP POP POP POP PUSH1 0x40 MLOAD RETURNDATASIZE PUSH1 0x1F NOT PUSH1 0x1F DUP3 ADD AND DUP3 ADD DUP1 PUSH1 0x40 MSTORE POP DUP2 ADD SWAP1 PUSH2 0x49E SWAP2 SWAP1 PUSH2 0x572 JUMP JUMPDEST POP JUMP JUMPDEST DUP1 CALLDATALOAD PUSH1 0x1 PUSH1 0x1 PUSH1 0xA0 SHL SUB DUP2 AND DUP2 EQ PUSH2 0x4B8 JUMPI PUSH1 0x0 DUP1 REVERT JUMPDEST SWAP2 SWAP1 POP JUMP JUMPDEST PUSH1 0x0 DUP1 PUSH1 0x40 DUP4 DUP6 SUB SLT ISZERO PUSH2 0x4D0 JUMPI PUSH1 0x0 DUP1 REVERT JUMPDEST PUSH2 0x4D9 DUP4 PUSH2 0x4A1 JUMP JUMPDEST SWAP5 PUSH1 0x20 SWAP4 SWAP1 SWAP4 ADD CALLDATALOAD SWAP4 POP POP POP JUMP JUMPDEST PUSH1 0x0 PUSH1 0x20 DUP3 DUP5 SUB SLT ISZERO PUSH2 0x4F9 JUMPI PUSH1 0x0 DUP1 REVERT JUMPDEST POP CALLDATALOAD SWAP2 SWAP1 POP JUMP JUMPDEST PUSH1 0x0 PUSH1 0x20 DUP3 DUP5 SUB SLT ISZERO PUSH2 0x512 JUMPI PUSH1 0x0 DUP1 REVERT JUMPDEST PUSH2 0x51B DUP3 PUSH2 0x4A1 JUMP JUMPDEST SWAP4 SWAP3 POP POP POP JUMP JUMPDEST PUSH1 0x20 DUP1 DUP3 MSTORE PUSH1 0x1D SWAP1 DUP3 ADD MSTORE PUSH32 0x4661756365744572726F723A2043616C6C6572206E6F74206F776E6572000000 PUSH1 0x40 DUP3 ADD MSTORE PUSH1 0x60 ADD SWAP1 JUMP JUMPDEST PUSH1 0x0 PUSH1 0x20 DUP3 DUP5 SUB SLT ISZERO PUSH2 0x56B JUMPI PUSH1 0x0 DUP1 REVERT JUMPDEST POP MLOAD SWAP2 SWAP1 POP JUMP JUMPDEST PUSH1 0x0 PUSH1 0x20 DUP3 DUP5 SUB SLT ISZERO PUSH2 0x584 JUMPI PUSH1 0x0 DUP1 REVERT JUMPDEST DUP2 MLOAD DUP1 ISZERO ISZERO DUP2 EQ PUSH2 0x51B JUMPI PUSH1 0x0 DUP1 REVERT JUMPDEST PUSH4 0x4E487B71 PUSH1 0xE0 SHL PUSH1 0x0 MSTORE PUSH1 0x11 PUSH1 0x4 MSTORE PUSH1 0x24 PUSH1 0x0 REVERT JUMPDEST PUSH1 0x0 DUP3 NOT DUP3 GT ISZERO PUSH2 0x5BD JUMPI PUSH2 0x5BD PUSH2 0x594 JUMP JUMPDEST POP ADD SWAP1 JUMP JUMPDEST PUSH1 0x0 PUSH1 0x20 DUP3 DUP5 SUB SLT ISZERO PUSH2 0x5D4 JUMPI PUSH1 0x0 DUP1 REVERT JUMPDEST DUP2 MLOAD PUSH1 0xFF DUP2 AND DUP2 EQ PUSH2 0x51B JUMPI PUSH1 0x0 DUP1 REVERT JUMPDEST PUSH1 0x1 DUP2 DUP2 JUMPDEST DUP1 DUP6 GT ISZERO PUSH2 0x620 JUMPI DUP2 PUSH1 0x0 NOT DIV DUP3 GT ISZERO PUSH2 0x606 JUMPI PUSH2 0x606 PUSH2 0x594 JUMP JUMPDEST DUP1 DUP6 AND ISZERO PUSH2 0x613 JUMPI SWAP2 DUP2 MUL SWAP2 JUMPDEST SWAP4 DUP5 SHR SWAP4 SWAP1 DUP1 MUL SWAP1 PUSH2 0x5EA JUMP JUMPDEST POP SWAP3 POP SWAP3 SWAP1 POP JUMP JUMPDEST PUSH1 0x0 DUP3 PUSH2 0x637 JUMPI POP PUSH1 0x1 PUSH2 0x6C5 JUMP JUMPDEST DUP2 PUSH2 0x644 JUMPI POP PUSH1 0x0 PUSH2 0x6C5 JUMP JUMPDEST DUP2 PUSH1 0x1 DUP2 EQ PUSH2 0x65A JUMPI PUSH1 0x2 DUP2 EQ PUSH2 0x664 JUMPI PUSH2 0x680 JUMP JUMPDEST PUSH1 0x1 SWAP2 POP POP PUSH2 0x6C5 JUMP JUMPDEST PUSH1 0xFF DUP5 GT ISZERO PUSH2 0x675 JUMPI PUSH2 0x675 PUSH2 0x594 JUMP JUMPDEST POP POP PUSH1 0x1 DUP3 SHL PUSH2 0x6C5 JUMP JUMPDEST POP PUSH1 0x20 DUP4 LT PUSH2 0x133 DUP4 LT AND PUSH1 0x4E DUP5 LT PUSH1 0xB DUP5 LT AND OR ISZERO PUSH2 0x6A3 JUMPI POP DUP2 DUP2 EXP PUSH2 0x6C5 JUMP JUMPDEST PUSH2 0x6AD DUP4 DUP4 PUSH2 0x5E5 JUMP JUMPDEST DUP1 PUSH1 0x0 NOT DIV DUP3 GT ISZERO PUSH2 0x6C1 JUMPI PUSH2 0x6C1 PUSH2 0x594 JUMP JUMPDEST MUL SWAP1 POP JUMPDEST SWAP3 SWAP2 POP POP JUMP JUMPDEST PUSH1 0x0 PUSH2 0x51B PUSH1 0xFF DUP5 AND DUP4 PUSH2 0x628 JUMP JUMPDEST PUSH1 0x0 DUP2 PUSH1 0x0 NOT DIV DUP4 GT DUP3 ISZERO ISZERO AND ISZERO PUSH2 0x6F4 JUMPI PUSH2 0x6F4 PUSH2 0x594 JUMP JUMPDEST POP MUL SWAP1 JUMP INVALID LOG2 PUSH5 0x6970667358 0x22 SLT KECCAK256 PUSH32 0x3F8C11781C3F330C1929B51614AAE7C15065037FB5675AD8C0900A8A72AD0664 PUSH20 0x6F6C634300080B00330000000000000000000000 ","sha1":"63db63ad6b5b4e6032f32d2c0cc7acc2a9c7dd48","source":"// SPDX-License-Identifier: UNLISCENSED\n\npragma solidity ^0.8.4;\n\ninterface IERC20 {\n    \n     /**\n     * @dev returns the tokens owned by `account`.\n     */\n    function balanceOf(address account) external view returns (uint256);\n\n     /**\n     * @dev returns the decimal places of a token\n     */\n    function decimals() external view returns (uint8);\n\n    /**\n     * @dev transfers the `amount` of tokens from caller's account\n     * to the `recipient` account.\n     *\n     * returns boolean value indicating the operation status.\n     *\n     * Emits a {Transfer} event\n     */\n    function transfer(address recipient, uint256 amount)\n        external\n        returns (bool);\n \n}\n\ncontract Faucet {\n    \n    // The underlying token of the Faucet\n    IERC20 token;\n    \n    // The address of the faucet owner\n    address owner;\n    \n    // For rate limiting\n    mapping(address=>uint256) nextRequestAt;\n    \n    // No.of tokens to send when requested\n    uint256 faucetDripAmount = 1;\n    \n    // Sets the addresses of the Owner and the underlying token\n    constructor (address _smtAddress, address _ownerAddress) {\n        token = IERC20(_smtAddress);\n        owner = _ownerAddress;\n    }   \n    \n    // Verifies whether the caller is the owner \n    modifier onlyOwner{\n        require(msg.sender == owner,\"FaucetError: Caller not owner\");\n        _;\n    }\n    \n    // Sends the amount of token to the caller.\n    function send() external {\n        require(token.balanceOf(address(this)) > 1,\"FaucetError: Empty\");\n        require(nextRequestAt[msg.sender] < block.timestamp, \"FaucetError: Try again later\");\n        \n        // Next request from the address can be made only after 5 minutes         \n        nextRequestAt[msg.sender] = block.timestamp + (5 minutes); \n        \n        token.transfer(msg.sender,faucetDripAmount * 10**token.decimals());\n    }  \n    \n    // Updates the underlying token address\n     function setTokenAddress(address _tokenAddr) external onlyOwner {\n        token = IERC20(_tokenAddr);\n    }    \n    \n    // Updates the drip rate\n     function setFaucetDripAmount(uint256 _amount) external onlyOwner {\n        faucetDripAmount = _amount;\n    }  \n     \n     \n     // Allows the owner to withdraw tokens from the contract.\n     function withdrawTokens(address _receiver, uint256 _amount) external onlyOwner {\n        require(token.balanceOf(address(this)) >= _amount,\"FaucetError: Insufficient funds\");\n        token.transfer(_receiver,_amount);\n    }    \n}\n    ","sourcePath":"contracts/Faucet.sol","deployment":{"address":"0x7c7b23156A6188cc9e5261c3F8083CF0f7CcBc47","chainid":"4","blockHeight":10162000}}