{"abi":[{"inputs":[{"internalType":"address[]","name":"privateKeyNRO","type":"address[]"},{"internalType":"address[]","name":"privateKeyCIA","type":"address[]"},{"internalType":"address[]","name":"privateKeyNSA","type":"address[]"},{"internalType":"address[]","name":"privateKeyAWS","type":"address[]"}],"stateMutability":"nonpayable","type":"constructor","name":"constructor"},{"anonymous":false,"inputs":[{"indexed":true,"internalType":"address","name":"previousOwner","type":"address"},{"indexed":true,"internalType":"address","name":"newOwner","type":"address"}],"name":"OwnershipTransferred","type":"event"},{"inputs":[{"internalType":"string","name":"_name","type":"string"},{"internalType":"address","name":"usersPrivateKey","type":"address"},{"internalType":"enum DetermineUser.UserType","name":"selectionNumType","type":"uint8"},{"internalType":"enum DetermineUser.OrgName","name":"selectionNumOrg","type":"uint8"}],"name":"addPerson","outputs":[],"stateMutability":"nonpayable","type":"function"},{"inputs":[{"internalType":"address[]","name":"_newprivateKeyNRO","type":"address[]"},{"internalType":"address[]","name":"_newprivateKeyCIA","type":"address[]"},{"internalType":"address[]","name":"_newprivateKeyNSA","type":"address[]"},{"internalType":"address[]","name":"_newprivateKeyAWS","type":"address[]"}],"name":"changePrivateKeys","outputs":[],"stateMutability":"nonpayable","type":"function"},{"inputs":[{"internalType":"address","name":"usersPrivateKey","type":"address"},{"internalType":"enum DetermineUser.OrgName","name":"selectionNumOrg","type":"uint8"}],"name":"checkOrgList","outputs":[{"internalType":"bool","name":"","type":"bool"}],"stateMutability":"view","type":"function"},{"inputs":[{"internalType":"enum DetermineUser.OrgName","name":"selectionNumOrg","type":"uint8"},{"internalType":"enum DetermineUser.UserType","name":"selectionNumType","type":"uint8"}],"name":"checkTypeList","outputs":[{"internalType":"bool","name":"","type":"bool"}],"stateMutability":"pure","type":"function"},{"inputs":[],"name":"createMapping","outputs":[],"stateMutability":"nonpayable","type":"function"},{"inputs":[{"internalType":"string","name":"","type":"string"}],"name":"nameToOrganization","outputs":[{"internalType":"enum DetermineUser.OrgName","name":"","type":"uint8"}],"stateMutability":"view","type":"function"},{"inputs":[{"internalType":"string","name":"","type":"string"}],"name":"nameToUserType","outputs":[{"internalType":"enum DetermineUser.UserType","name":"","type":"uint8"}],"stateMutability":"view","type":"function"},{"inputs":[{"internalType":"enum DetermineUser.OrgName","name":"","type":"uint8"},{"internalType":"uint256","name":"","type":"uint256"}],"name":"orgnameToKey","outputs":[{"internalType":"address","name":"","type":"address"}],"stateMutability":"view","type":"function"},{"inputs":[],"name":"owner","outputs":[{"internalType":"address","name":"","type":"address"}],"stateMutability":"view","type":"function"},{"inputs":[{"internalType":"uint256","name":"","type":"uint256"}],"name":"people","outputs":[{"internalType":"string","name":"name","type":"string"},{"internalType":"enum DetermineUser.UserType","name":"yourUserType","type":"uint8"},{"internalType":"enum DetermineUser.OrgName","name":"organization","type":"uint8"}],"stateMutability":"view","type":"function"},{"inputs":[],"name":"people_list","outputs":[{"components":[{"internalType":"string","name":"name","type":"string"},{"internalType":"enum DetermineUser.UserType","name":"yourUserType","type":"uint8"},{"internalType":"enum DetermineUser.OrgName","name":"organization","type":"uint8"}],"internalType":"struct DetermineUser.People[]","name":"","type":"tuple[]"}],"stateMutability":"view","type":"function"},{"inputs":[],"name":"renounceOwnership","outputs":[],"stateMutability":"nonpayable","type":"function"},{"inputs":[{"internalType":"address","name":"newOwner","type":"address"}],"name":"transferOwnership","outputs":[],"stateMutability":"nonpayable","type":"function"}],"bytecode":"60806040523480156200001157600080fd5b50604051620015a8380380620015a8833981016040819052620000349162000252565b6200003f33620000a1565b835162000054906001906020870190620000f1565b5081516200006a906002906020850190620000f1565b50825162000080906003906020860190620000f1565b50805162000096906004906020840190620000f1565b50505050506200030b565b600080546001600160a01b038381166001600160a01b0319831681178455604051919092169283917f8be0079c531659141344cd1fd0a4f28419497f9722a3daafe3b4186f6b6457e09190a35050565b82805482825590600052602060002090810192821562000149579160200282015b828111156200014957825182546001600160a01b0319166001600160a01b0390911617825560209092019160019091019062000112565b50620001579291506200015b565b5090565b5b808211156200015757600081556001016200015c565b634e487b7160e01b600052604160045260246000fd5b80516001600160a01b0381168114620001a057600080fd5b919050565b600082601f830112620001b757600080fd5b815160206001600160401b0380831115620001d657620001d662000172565b8260051b604051601f19603f83011681018181108482111715620001fe57620001fe62000172565b6040529384528581018301938381019250878511156200021d57600080fd5b83870191505b848210156200024757620002378262000188565b8352918301919083019062000223565b979650505050505050565b600080600080608085870312156200026957600080fd5b84516001600160401b03808211156200028157600080fd5b6200028f88838901620001a5565b95506020870151915080821115620002a657600080fd5b620002b488838901620001a5565b94506040870151915080821115620002cb57600080fd5b620002d988838901620001a5565b93506060870151915080821115620002f057600080fd5b50620002ff87828801620001a5565b91505092959194509250565b61128d806200031b6000396000f3fe608060405234801561001057600080fd5b50600436106100cf5760003560e01c80638da5cb5b1161008c578063cb44a11611610066578063cb44a116146101cf578063d82b87dc146101e2578063db8e269114610210578063f2fde38b1461022357600080fd5b80638da5cb5b146101895780639e7a13ad1461019a578063c60c718f146101bc57600080fd5b806333586ff9146100d45780633ab4059c146100fc5780634bd118841461010657806352d865391461011b578063715018a6146101465780637fa2bc741461014e575b600080fd5b6100e76100e2366004610cd1565b610236565b60405190151581526020015b60405180910390f35b61010461032a565b005b61010e610447565b6040516100f39190610d94565b61012e610129366004610e25565b6105a4565b6040516001600160a01b0390911681526020016100f3565b6101046105dc565b61017c61015c366004610f08565b805160208183018101805160088252928201919093012091525460ff1681565b6040516100f39190610f45565b6000546001600160a01b031661012e565b6101ad6101a8366004610f58565b610612565b6040516100f393929190610f71565b6100e76101ca366004610fac565b6106da565b6101046101dd366004611051565b610814565b61017c6101f0366004610f08565b805160208183018101805160078252928201919093012091525460ff1681565b61010461021e3660046110fe565b61089c565b610104610231366004611171565b610a96565b6000808083600481111561024c5761024c610d60565b1415610256575060015b60005b6009600085600481111561026f5761026f610d60565b600481111561028057610280610d60565b815260208101919091526040016000205481101561032257846001600160a01b0316600960008660048111156102b8576102b8610d60565b60048111156102c9576102c9610d60565b815260200190815260200160002082815481106102e8576102e861118c565b6000918252602090912001546001600160a01b0316141561030c5760019150610322565b600091508061031a816111a2565b915050610259565b509392505050565b6000546001600160a01b0316331461035d5760405162461bcd60e51b8152600401610354906111cb565b60405180910390fd5b6001600081905260096020528054610396917f92e85d02570a8092d09a6e3a57665bc3815a2699a4074001bf1ccabf660f5a3691610b7a565b5060026000819052600960205280546103d0917f6cde3cea4b3a3fb2488b2808bae7556f4a405e50f65e1794383bc026131b13c391610b7a565b50600360008190526009602052805461040a917fc575c31fea594a6eb97c8e9d3f9caee4c16218c6ef37e923234c0fe9014a61e791610b7a565b506004600081905260096020528054610444917f8dc18c4ccfd75f5c815b63770fa542fd953e8fef7e0e44bbdd4913470ce7e9cb91610b7a565b50565b60606006805480602002602001604051908101604052809291908181526020016000905b8282101561059b578382906000526020600020906002020160405180606001604052908160008201805461049e90611200565b80601f01602080910402602001604051908101604052809291908181526020018280546104ca90611200565b80156105175780601f106104ec57610100808354040283529160200191610517565b820191906000526020600020905b8154815290600101906020018083116104fa57829003601f168201915b5050509183525050600182015460209091019060ff16600481111561053e5761053e610d60565b600481111561054f5761054f610d60565b81526020016001820160019054906101000a900460ff16600481111561057757610577610d60565b600481111561058857610588610d60565b815250508152602001906001019061046b565b50505050905090565b600960205281600052604060002081815481106105c057600080fd5b6000918252602090912001546001600160a01b03169150829050565b6000546001600160a01b031633146106065760405162461bcd60e51b8152600401610354906111cb565b6106106000610b2a565b565b6006818154811061062257600080fd5b906000526020600020906002020160009150905080600001805461064590611200565b80601f016020809104026020016040519081016040528092919081815260200182805461067190611200565b80156106be5780601f10610693576101008083540402835291602001916106be565b820191906000526020600020905b8154815290600101906020018083116106a157829003601f168201915b5050506001909301549192505060ff8082169161010090041683565b60008060018460048111156106f1576106f1610d60565b148061070e5750600284600481111561070c5761070c610d60565b145b8061072a5750600384600481111561072857610728610d60565b145b80156107475750600183600481111561074557610745610d60565b145b156107545750600161080d565b600484600481111561076857610768610d60565b1480156107865750600483600481111561078457610784610d60565b145b156107935750600161080d565b60008460048111156107a7576107a7610d60565b1480156107fc575060038360048111156107c3576107c3610d60565b14806107e0575060028360048111156107de576107de610d60565b145b806107fc575060008360048111156107fa576107fa610d60565b145b156108095750600161080d565b5060005b9392505050565b6000546001600160a01b0316331461083e5760405162461bcd60e51b8152600401610354906111cb565b8351610851906001906020870190610bca565b508151610865906002906020850190610bca565b508251610879906003906020860190610bca565b50805161088d906004906020840190610bca565b5061089661032a565b50505050565b8282826108a98382610236565b6108e85760405162461bcd60e51b815260206004820152601060248201526f596f752063616e7420646f207468697360801b6044820152606401610354565b6108f281836106da565b6109315760405162461bcd60e51b815260206004820152601060248201526f596f752063616e7420646f207468697360801b6044820152606401610354565b6006604051806060016040528089815260200187600481111561095657610956610d60565b815260200186600481111561096d5761096d610d60565b90528154600181018355600092835260209283902082518051939460029093029091019261099e9284920190610c1f565b50602082015160018083018054909160ff19909116908360048111156109c6576109c6610d60565b0217905550604082015160018201805461ff0019166101008360048111156109f0576109f0610d60565b02179055505060055460405160ff9091169150600890610a11908a9061123b565b908152604051908190036020019020805460ff19166001836004811115610a3a57610a3a610d60565b0217905550600560019054906101000a900460ff16600788604051610a5f919061123b565b908152604051908190036020019020805460ff19166001836004811115610a8857610a88610d60565b021790555050505050505050565b6000546001600160a01b03163314610ac05760405162461bcd60e51b8152600401610354906111cb565b6001600160a01b038116610b255760405162461bcd60e51b815260206004820152602660248201527f4f776e61626c653a206e6577206f776e657220697320746865207a65726f206160448201526564647265737360d01b6064820152608401610354565b610444815b600080546001600160a01b038381166001600160a01b0319831681178455604051919092169283917f8be0079c531659141344cd1fd0a4f28419497f9722a3daafe3b4186f6b6457e09190a35050565b828054828255906000526020600020908101928215610bba5760005260206000209182015b82811115610bba578254825591600101919060010190610b9f565b50610bc6929150610c93565b5090565b828054828255906000526020600020908101928215610bba579160200282015b82811115610bba57825182546001600160a01b0319166001600160a01b03909116178255602090920191600190910190610bea565b828054610c2b90611200565b90600052602060002090601f016020900481019282610c4d5760008555610bba565b82601f10610c6657805160ff1916838001178555610bba565b82800160010185558215610bba579182015b82811115610bba578251825591602001919060010190610c78565b5b80821115610bc65760008155600101610c94565b80356001600160a01b0381168114610cbf57600080fd5b919050565b6005811061044457600080fd5b60008060408385031215610ce457600080fd5b610ced83610ca8565b91506020830135610cfd81610cc4565b809150509250929050565b60005b83811015610d23578181015183820152602001610d0b565b838111156108965750506000910152565b60008151808452610d4c816020860160208601610d08565b601f01601f19169290920160200192915050565b634e487b7160e01b600052602160045260246000fd5b6005811061044457634e487b7160e01b600052602160045260246000fd5b60006020808301818452808551808352604092508286019150828160051b87010184880160005b83811015610e1757603f19898403018552815160608151818652610de182870182610d34565b91505088820151610df181610d76565b858a01529087015190610e0382610d76565b938701529386019390860190600101610dbb565b509098975050505050505050565b60008060408385031215610e3857600080fd5b8235610e4381610cc4565b946020939093013593505050565b634e487b7160e01b600052604160045260246000fd5b604051601f8201601f1916810167ffffffffffffffff81118282101715610e9057610e90610e51565b604052919050565b600082601f830112610ea957600080fd5b813567ffffffffffffffff811115610ec357610ec3610e51565b610ed6601f8201601f1916602001610e67565b818152846020838601011115610eeb57600080fd5b816020850160208301376000918101602001919091529392505050565b600060208284031215610f1a57600080fd5b813567ffffffffffffffff811115610f3157600080fd5b610f3d84828501610e98565b949350505050565b60208101610f5283610d76565b91905290565b600060208284031215610f6a57600080fd5b5035919050565b606081526000610f846060830186610d34565b9050610f8f84610d76565b836020830152610f9e83610d76565b826040830152949350505050565b60008060408385031215610fbf57600080fd5b8235610ced81610cc4565b600082601f830112610fdb57600080fd5b8135602067ffffffffffffffff821115610ff757610ff7610e51565b8160051b611006828201610e67565b928352848101820192828101908785111561102057600080fd5b83870192505b848310156110465761103783610ca8565b82529183019190830190611026565b979650505050505050565b6000806000806080858703121561106757600080fd5b843567ffffffffffffffff8082111561107f57600080fd5b61108b88838901610fca565b955060208701359150808211156110a157600080fd5b6110ad88838901610fca565b945060408701359150808211156110c357600080fd5b6110cf88838901610fca565b935060608701359150808211156110e557600080fd5b506110f287828801610fca565b91505092959194509250565b6000806000806080858703121561111457600080fd5b843567ffffffffffffffff81111561112b57600080fd5b61113787828801610e98565b94505061114660208601610ca8565b9250604085013561115681610cc4565b9150606085013561116681610cc4565b939692955090935050565b60006020828403121561118357600080fd5b61080d82610ca8565b634e487b7160e01b600052603260045260246000fd5b60006000198214156111c457634e487b7160e01b600052601160045260246000fd5b5060010190565b6020808252818101527f4f776e61626c653a2063616c6c6572206973206e6f7420746865206f776e6572604082015260600190565b600181811c9082168061121457607f821691505b6020821081141561123557634e487b7160e01b600052602260045260246000fd5b50919050565b6000825161124d818460208701610d08565b919091019291505056fea2646970667358221220deeb959d85c362f7f83437c46ea0eec90d249c8a89766c4dbff5816f256a558a64736f6c634300080b0033","bytecodeSha1":"0c7f45e1f82e19a96f521eeadfc498784fe59ac0","compiler":{"evm_version":"istanbul","optimizer":{"enabled":true,"runs":200},"version":"0.8.11+commit.d7f03943"},"contractName":"DetermineUser","language":"Solidity","natspec":{"kind":"dev","methods":{"owner()":{"details":"Returns the address of the current owner."},"renounceOwnership()":{"details":"Leaves the contract without owner. It will not be possible to call `onlyOwner` functions anymore. Can only be called by the current owner. NOTE: Renouncing ownership will leave the contract without an owner, thereby removing any functionality that is only available to the owner."},"transferOwnership(address)":{"details":"Transfers ownership of the contract to a new account (`newOwner`). Can only be called by the current owner."}},"version":1},"opcodes":"PUSH1 0x80 PUSH1 0x40 MSTORE CALLVALUE DUP1 ISZERO PUSH2 0x10 JUMPI PUSH1 0x0 DUP1 REVERT JUMPDEST POP PUSH1 0x4 CALLDATASIZE LT PUSH2 0xCF JUMPI PUSH1 0x0 CALLDATALOAD PUSH1 0xE0 SHR DUP1 PUSH4 0x8DA5CB5B GT PUSH2 0x8C JUMPI DUP1 PUSH4 0xCB44A116 GT PUSH2 0x66 JUMPI DUP1 PUSH4 0xCB44A116 EQ PUSH2 0x1CF JUMPI DUP1 PUSH4 0xD82B87DC EQ PUSH2 0x1E2 JUMPI DUP1 PUSH4 0xDB8E2691 EQ PUSH2 0x210 JUMPI DUP1 PUSH4 0xF2FDE38B EQ PUSH2 0x223 JUMPI PUSH1 0x0 DUP1 REVERT JUMPDEST DUP1 PUSH4 0x8DA5CB5B EQ PUSH2 0x189 JUMPI DUP1 PUSH4 0x9E7A13AD EQ PUSH2 0x19A JUMPI DUP1 PUSH4 0xC60C718F EQ PUSH2 0x1BC JUMPI PUSH1 0x0 DUP1 REVERT JUMPDEST DUP1 PUSH4 0x33586FF9 EQ PUSH2 0xD4 JUMPI DUP1 PUSH4 0x3AB4059C EQ PUSH2 0xFC JUMPI DUP1 PUSH4 0x4BD11884 EQ PUSH2 0x106 JUMPI DUP1 PUSH4 0x52D86539 EQ PUSH2 0x11B JUMPI DUP1 PUSH4 0x715018A6 EQ PUSH2 0x146 JUMPI DUP1 PUSH4 0x7FA2BC74 EQ PUSH2 0x14E JUMPI JUMPDEST PUSH1 0x0 DUP1 REVERT JUMPDEST PUSH2 0xE7 PUSH2 0xE2 CALLDATASIZE PUSH1 0x4 PUSH2 0xCD1 JUMP JUMPDEST PUSH2 0x236 JUMP JUMPDEST PUSH1 0x40 MLOAD SWAP1 ISZERO ISZERO DUP2 MSTORE PUSH1 0x20 ADD JUMPDEST PUSH1 0x40 MLOAD DUP1 SWAP2 SUB SWAP1 RETURN JUMPDEST PUSH2 0x104 PUSH2 0x32A JUMP JUMPDEST STOP JUMPDEST PUSH2 0x10E PUSH2 0x447 JUMP JUMPDEST PUSH1 0x40 MLOAD PUSH2 0xF3 SWAP2 SWAP1 PUSH2 0xD94 JUMP JUMPDEST PUSH2 0x12E PUSH2 0x129 CALLDATASIZE PUSH1 0x4 PUSH2 0xE25 JUMP JUMPDEST PUSH2 0x5A4 JUMP JUMPDEST PUSH1 0x40 MLOAD PUSH1 0x1 PUSH1 0x1 PUSH1 0xA0 SHL SUB SWAP1 SWAP2 AND DUP2 MSTORE PUSH1 0x20 ADD PUSH2 0xF3 JUMP JUMPDEST PUSH2 0x104 PUSH2 0x5DC JUMP JUMPDEST PUSH2 0x17C PUSH2 0x15C CALLDATASIZE PUSH1 0x4 PUSH2 0xF08 JUMP JUMPDEST DUP1 MLOAD PUSH1 0x20 DUP2 DUP4 ADD DUP2 ADD DUP1 MLOAD PUSH1 0x8 DUP3 MSTORE SWAP3 DUP3 ADD SWAP2 SWAP1 SWAP4 ADD KECCAK256 SWAP2 MSTORE SLOAD PUSH1 0xFF AND DUP2 JUMP JUMPDEST PUSH1 0x40 MLOAD PUSH2 0xF3 SWAP2 SWAP1 PUSH2 0xF45 JUMP JUMPDEST PUSH1 0x0 SLOAD PUSH1 0x1 PUSH1 0x1 PUSH1 0xA0 SHL SUB AND PUSH2 0x12E JUMP JUMPDEST PUSH2 0x1AD PUSH2 0x1A8 CALLDATASIZE PUSH1 0x4 PUSH2 0xF58 JUMP JUMPDEST PUSH2 0x612 JUMP JUMPDEST PUSH1 0x40 MLOAD PUSH2 0xF3 SWAP4 SWAP3 SWAP2 SWAP1 PUSH2 0xF71 JUMP JUMPDEST PUSH2 0xE7 PUSH2 0x1CA CALLDATASIZE PUSH1 0x4 PUSH2 0xFAC JUMP JUMPDEST PUSH2 0x6DA JUMP JUMPDEST PUSH2 0x104 PUSH2 0x1DD CALLDATASIZE PUSH1 0x4 PUSH2 0x1051 JUMP JUMPDEST PUSH2 0x814 JUMP JUMPDEST PUSH2 0x17C PUSH2 0x1F0 CALLDATASIZE PUSH1 0x4 PUSH2 0xF08 JUMP JUMPDEST DUP1 MLOAD PUSH1 0x20 DUP2 DUP4 ADD DUP2 ADD DUP1 MLOAD PUSH1 0x7 DUP3 MSTORE SWAP3 DUP3 ADD SWAP2 SWAP1 SWAP4 ADD KECCAK256 SWAP2 MSTORE SLOAD PUSH1 0xFF AND DUP2 JUMP JUMPDEST PUSH2 0x104 PUSH2 0x21E CALLDATASIZE PUSH1 0x4 PUSH2 0x10FE JUMP JUMPDEST PUSH2 0x89C JUMP JUMPDEST PUSH2 0x104 PUSH2 0x231 CALLDATASIZE PUSH1 0x4 PUSH2 0x1171 JUMP JUMPDEST PUSH2 0xA96 JUMP JUMPDEST PUSH1 0x0 DUP1 DUP1 DUP4 PUSH1 0x4 DUP2 GT ISZERO PUSH2 0x24C JUMPI PUSH2 0x24C PUSH2 0xD60 JUMP JUMPDEST EQ ISZERO PUSH2 0x256 JUMPI POP PUSH1 0x1 JUMPDEST PUSH1 0x0 JUMPDEST PUSH1 0x9 PUSH1 0x0 DUP6 PUSH1 0x4 DUP2 GT ISZERO PUSH2 0x26F JUMPI PUSH2 0x26F PUSH2 0xD60 JUMP JUMPDEST PUSH1 0x4 DUP2 GT ISZERO PUSH2 0x280 JUMPI PUSH2 0x280 PUSH2 0xD60 JUMP JUMPDEST DUP2 MSTORE PUSH1 0x20 DUP2 ADD SWAP2 SWAP1 SWAP2 MSTORE PUSH1 0x40 ADD PUSH1 0x0 KECCAK256 SLOAD DUP2 LT ISZERO PUSH2 0x322 JUMPI DUP5 PUSH1 0x1 PUSH1 0x1 PUSH1 0xA0 SHL SUB AND PUSH1 0x9 PUSH1 0x0 DUP7 PUSH1 0x4 DUP2 GT ISZERO PUSH2 0x2B8 JUMPI PUSH2 0x2B8 PUSH2 0xD60 JUMP JUMPDEST PUSH1 0x4 DUP2 GT ISZERO PUSH2 0x2C9 JUMPI PUSH2 0x2C9 PUSH2 0xD60 JUMP JUMPDEST DUP2 MSTORE PUSH1 0x20 ADD SWAP1 DUP2 MSTORE PUSH1 0x20 ADD PUSH1 0x0 KECCAK256 DUP3 DUP2 SLOAD DUP2 LT PUSH2 0x2E8 JUMPI PUSH2 0x2E8 PUSH2 0x118C JUMP JUMPDEST PUSH1 0x0 SWAP2 DUP3 MSTORE PUSH1 0x20 SWAP1 SWAP2 KECCAK256 ADD SLOAD PUSH1 0x1 PUSH1 0x1 PUSH1 0xA0 SHL SUB AND EQ ISZERO PUSH2 0x30C JUMPI PUSH1 0x1 SWAP2 POP PUSH2 0x322 JUMP JUMPDEST PUSH1 0x0 SWAP2 POP DUP1 PUSH2 0x31A DUP2 PUSH2 0x11A2 JUMP JUMPDEST SWAP2 POP POP PUSH2 0x259 JUMP JUMPDEST POP SWAP4 SWAP3 POP POP POP JUMP JUMPDEST PUSH1 0x0 SLOAD PUSH1 0x1 PUSH1 0x1 PUSH1 0xA0 SHL SUB AND CALLER EQ PUSH2 0x35D JUMPI PUSH1 0x40 MLOAD PUSH3 0x461BCD PUSH1 0xE5 SHL DUP2 MSTORE PUSH1 0x4 ADD PUSH2 0x354 SWAP1 PUSH2 0x11CB JUMP JUMPDEST PUSH1 0x40 MLOAD DUP1 SWAP2 SUB SWAP1 REVERT JUMPDEST PUSH1 0x1 PUSH1 0x0 DUP2 SWAP1 MSTORE PUSH1 0x9 PUSH1 0x20 MSTORE DUP1 SLOAD PUSH2 0x396 SWAP2 PUSH32 0x92E85D02570A8092D09A6E3A57665BC3815A2699A4074001BF1CCABF660F5A36 SWAP2 PUSH2 0xB7A JUMP JUMPDEST POP PUSH1 0x2 PUSH1 0x0 DUP2 SWAP1 MSTORE PUSH1 0x9 PUSH1 0x20 MSTORE DUP1 SLOAD PUSH2 0x3D0 SWAP2 PUSH32 0x6CDE3CEA4B3A3FB2488B2808BAE7556F4A405E50F65E1794383BC026131B13C3 SWAP2 PUSH2 0xB7A JUMP JUMPDEST POP PUSH1 0x3 PUSH1 0x0 DUP2 SWAP1 MSTORE PUSH1 0x9 PUSH1 0x20 MSTORE DUP1 SLOAD PUSH2 0x40A SWAP2 PUSH32 0xC575C31FEA594A6EB97C8E9D3F9CAEE4C16218C6EF37E923234C0FE9014A61E7 SWAP2 PUSH2 0xB7A JUMP JUMPDEST POP PUSH1 0x4 PUSH1 0x0 DUP2 SWAP1 MSTORE PUSH1 0x9 PUSH1 0x20 MSTORE DUP1 SLOAD PUSH2 0x444 SWAP2 PUSH32 0x8DC18C4CCFD75F5C815B63770FA542FD953E8FEF7E0E44BBDD4913470CE7E9CB SWAP2 PUSH2 0xB7A JUMP JUMPDEST POP JUMP JUMPDEST PUSH1 0x60 PUSH1 0x6 DUP1 SLOAD DUP1 PUSH1 0x20 MUL PUSH1 0x20 ADD PUSH1 0x40 MLOAD SWAP1 DUP2 ADD PUSH1 0x40 MSTORE DUP1 SWAP3 SWAP2 SWAP1 DUP2 DUP2 MSTORE PUSH1 0x20 ADD PUSH1 0x0 SWAP1 JUMPDEST DUP3 DUP3 LT ISZERO PUSH2 0x59B JUMPI DUP4 DUP3 SWAP1 PUSH1 0x0 MSTORE PUSH1 0x20 PUSH1 0x0 KECCAK256 SWAP1 PUSH1 0x2 MUL ADD PUSH1 0x40 MLOAD DUP1 PUSH1 0x60 ADD PUSH1 0x40 MSTORE SWAP1 DUP2 PUSH1 0x0 DUP3 ADD DUP1 SLOAD PUSH2 0x49E SWAP1 PUSH2 0x1200 JUMP JUMPDEST DUP1 PUSH1 0x1F ADD PUSH1 0x20 DUP1 SWAP2 DIV MUL PUSH1 0x20 ADD PUSH1 0x40 MLOAD SWAP1 DUP2 ADD PUSH1 0x40 MSTORE DUP1 SWAP3 SWAP2 SWAP1 DUP2 DUP2 MSTORE PUSH1 0x20 ADD DUP3 DUP1 SLOAD PUSH2 0x4CA SWAP1 PUSH2 0x1200 JUMP JUMPDEST DUP1 ISZERO PUSH2 0x517 JUMPI DUP1 PUSH1 0x1F LT PUSH2 0x4EC JUMPI PUSH2 0x100 DUP1 DUP4 SLOAD DIV MUL DUP4 MSTORE SWAP2 PUSH1 0x20 ADD SWAP2 PUSH2 0x517 JUMP JUMPDEST DUP3 ADD SWAP2 SWAP1 PUSH1 0x0 MSTORE PUSH1 0x20 PUSH1 0x0 KECCAK256 SWAP1 JUMPDEST DUP2 SLOAD DUP2 MSTORE SWAP1 PUSH1 0x1 ADD SWAP1 PUSH1 0x20 ADD DUP1 DUP4 GT PUSH2 0x4FA JUMPI DUP3 SWAP1 SUB PUSH1 0x1F AND DUP3 ADD SWAP2 JUMPDEST POP POP POP SWAP2 DUP4 MSTORE POP POP PUSH1 0x1 DUP3 ADD SLOAD PUSH1 0x20 SWAP1 SWAP2 ADD SWAP1 PUSH1 0xFF AND PUSH1 0x4 DUP2 GT ISZERO PUSH2 0x53E JUMPI PUSH2 0x53E PUSH2 0xD60 JUMP JUMPDEST PUSH1 0x4 DUP2 GT ISZERO PUSH2 0x54F JUMPI PUSH2 0x54F PUSH2 0xD60 JUMP JUMPDEST DUP2 MSTORE PUSH1 0x20 ADD PUSH1 0x1 DUP3 ADD PUSH1 0x1 SWAP1 SLOAD SWAP1 PUSH2 0x100 EXP SWAP1 DIV PUSH1 0xFF AND PUSH1 0x4 DUP2 GT ISZERO PUSH2 0x577 JUMPI PUSH2 0x577 PUSH2 0xD60 JUMP JUMPDEST PUSH1 0x4 DUP2 GT ISZERO PUSH2 0x588 JUMPI PUSH2 0x588 PUSH2 0xD60 JUMP JUMPDEST DUP2 MSTORE POP POP DUP2 MSTORE PUSH1 0x20 ADD SWAP1 PUSH1 0x1 ADD SWAP1 PUSH2 0x46B JUMP JUMPDEST POP POP POP POP SWAP1 POP SWAP1 JUMP JUMPDEST PUSH1 0x9 PUSH1 0x20 MSTORE DUP2 PUSH1 0x0 MSTORE PUSH1 0x40 PUSH1 0x0 KECCAK256 DUP2 DUP2 SLOAD DUP2 LT PUSH2 0x5C0 JUMPI PUSH1 0x0 DUP1 REVERT JUMPDEST PUSH1 0x0 SWAP2 DUP3 MSTORE PUSH1 0x20 SWAP1 SWAP2 KECCAK256 ADD SLOAD PUSH1 0x1 PUSH1 0x1 PUSH1 0xA0 SHL SUB AND SWAP2 POP DUP3 SWAP1 POP JUMP JUMPDEST PUSH1 0x0 SLOAD PUSH1 0x1 PUSH1 0x1 PUSH1 0xA0 SHL SUB AND CALLER EQ PUSH2 0x606 JUMPI PUSH1 0x40 MLOAD PUSH3 0x461BCD PUSH1 0xE5 SHL DUP2 MSTORE PUSH1 0x4 ADD PUSH2 0x354 SWAP1 PUSH2 0x11CB JUMP JUMPDEST PUSH2 0x610 PUSH1 0x0 PUSH2 0xB2A JUMP JUMPDEST JUMP JUMPDEST PUSH1 0x6 DUP2 DUP2 SLOAD DUP2 LT PUSH2 0x622 JUMPI PUSH1 0x0 DUP1 REVERT JUMPDEST SWAP1 PUSH1 0x0 MSTORE PUSH1 0x20 PUSH1 0x0 KECCAK256 SWAP1 PUSH1 0x2 MUL ADD PUSH1 0x0 SWAP2 POP SWAP1 POP DUP1 PUSH1 0x0 ADD DUP1 SLOAD PUSH2 0x645 SWAP1 PUSH2 0x1200 JUMP JUMPDEST DUP1 PUSH1 0x1F ADD PUSH1 0x20 DUP1 SWAP2 DIV MUL PUSH1 0x20 ADD PUSH1 0x40 MLOAD SWAP1 DUP2 ADD PUSH1 0x40 MSTORE DUP1 SWAP3 SWAP2 SWAP1 DUP2 DUP2 MSTORE PUSH1 0x20 ADD DUP3 DUP1 SLOAD PUSH2 0x671 SWAP1 PUSH2 0x1200 JUMP JUMPDEST DUP1 ISZERO PUSH2 0x6BE JUMPI DUP1 PUSH1 0x1F LT PUSH2 0x693 JUMPI PUSH2 0x100 DUP1 DUP4 SLOAD DIV MUL DUP4 MSTORE SWAP2 PUSH1 0x20 ADD SWAP2 PUSH2 0x6BE JUMP JUMPDEST DUP3 ADD SWAP2 SWAP1 PUSH1 0x0 MSTORE PUSH1 0x20 PUSH1 0x0 KECCAK256 SWAP1 JUMPDEST DUP2 SLOAD DUP2 MSTORE SWAP1 PUSH1 0x1 ADD SWAP1 PUSH1 0x20 ADD DUP1 DUP4 GT PUSH2 0x6A1 JUMPI DUP3 SWAP1 SUB PUSH1 0x1F AND DUP3 ADD SWAP2 JUMPDEST POP POP POP PUSH1 0x1 SWAP1 SWAP4 ADD SLOAD SWAP2 SWAP3 POP POP PUSH1 0xFF DUP1 DUP3 AND SWAP2 PUSH2 0x100 SWAP1 DIV AND DUP4 JUMP JUMPDEST PUSH1 0x0 DUP1 PUSH1 0x1 DUP5 PUSH1 0x4 DUP2 GT ISZERO PUSH2 0x6F1 JUMPI PUSH2 0x6F1 PUSH2 0xD60 JUMP JUMPDEST EQ DUP1 PUSH2 0x70E JUMPI POP PUSH1 0x2 DUP5 PUSH1 0x4 DUP2 GT ISZERO PUSH2 0x70C JUMPI PUSH2 0x70C PUSH2 0xD60 JUMP JUMPDEST EQ JUMPDEST DUP1 PUSH2 0x72A JUMPI POP PUSH1 0x3 DUP5 PUSH1 0x4 DUP2 GT ISZERO PUSH2 0x728 JUMPI PUSH2 0x728 PUSH2 0xD60 JUMP JUMPDEST EQ JUMPDEST DUP1 ISZERO PUSH2 0x747 JUMPI POP PUSH1 0x1 DUP4 PUSH1 0x4 DUP2 GT ISZERO PUSH2 0x745 JUMPI PUSH2 0x745 PUSH2 0xD60 JUMP JUMPDEST EQ JUMPDEST ISZERO PUSH2 0x754 JUMPI POP PUSH1 0x1 PUSH2 0x80D JUMP JUMPDEST PUSH1 0x4 DUP5 PUSH1 0x4 DUP2 GT ISZERO PUSH2 0x768 JUMPI PUSH2 0x768 PUSH2 0xD60 JUMP JUMPDEST EQ DUP1 ISZERO PUSH2 0x786 JUMPI POP PUSH1 0x4 DUP4 PUSH1 0x4 DUP2 GT ISZERO PUSH2 0x784 JUMPI PUSH2 0x784 PUSH2 0xD60 JUMP JUMPDEST EQ JUMPDEST ISZERO PUSH2 0x793 JUMPI POP PUSH1 0x1 PUSH2 0x80D JUMP JUMPDEST PUSH1 0x0 DUP5 PUSH1 0x4 DUP2 GT ISZERO PUSH2 0x7A7 JUMPI PUSH2 0x7A7 PUSH2 0xD60 JUMP JUMPDEST EQ DUP1 ISZERO PUSH2 0x7FC JUMPI POP PUSH1 0x3 DUP4 PUSH1 0x4 DUP2 GT ISZERO PUSH2 0x7C3 JUMPI PUSH2 0x7C3 PUSH2 0xD60 JUMP JUMPDEST EQ DUP1 PUSH2 0x7E0 JUMPI POP PUSH1 0x2 DUP4 PUSH1 0x4 DUP2 GT ISZERO PUSH2 0x7DE JUMPI PUSH2 0x7DE PUSH2 0xD60 JUMP JUMPDEST EQ JUMPDEST DUP1 PUSH2 0x7FC JUMPI POP PUSH1 0x0 DUP4 PUSH1 0x4 DUP2 GT ISZERO PUSH2 0x7FA JUMPI PUSH2 0x7FA PUSH2 0xD60 JUMP JUMPDEST EQ JUMPDEST ISZERO PUSH2 0x809 JUMPI POP PUSH1 0x1 PUSH2 0x80D JUMP JUMPDEST POP PUSH1 0x0 JUMPDEST SWAP4 SWAP3 POP POP POP JUMP JUMPDEST PUSH1 0x0 SLOAD PUSH1 0x1 PUSH1 0x1 PUSH1 0xA0 SHL SUB AND CALLER EQ PUSH2 0x83E JUMPI PUSH1 0x40 MLOAD PUSH3 0x461BCD PUSH1 0xE5 SHL DUP2 MSTORE PUSH1 0x4 ADD PUSH2 0x354 SWAP1 PUSH2 0x11CB JUMP JUMPDEST DUP4 MLOAD PUSH2 0x851 SWAP1 PUSH1 0x1 SWAP1 PUSH1 0x20 DUP8 ADD SWAP1 PUSH2 0xBCA JUMP JUMPDEST POP DUP2 MLOAD PUSH2 0x865 SWAP1 PUSH1 0x2 SWAP1 PUSH1 0x20 DUP6 ADD SWAP1 PUSH2 0xBCA JUMP JUMPDEST POP DUP3 MLOAD PUSH2 0x879 SWAP1 PUSH1 0x3 SWAP1 PUSH1 0x20 DUP7 ADD SWAP1 PUSH2 0xBCA JUMP JUMPDEST POP DUP1 MLOAD PUSH2 0x88D SWAP1 PUSH1 0x4 SWAP1 PUSH1 0x20 DUP5 ADD SWAP1 PUSH2 0xBCA JUMP JUMPDEST POP PUSH2 0x896 PUSH2 0x32A JUMP JUMPDEST POP POP POP POP JUMP JUMPDEST DUP3 DUP3 DUP3 PUSH2 0x8A9 DUP4 DUP3 PUSH2 0x236 JUMP JUMPDEST PUSH2 0x8E8 JUMPI PUSH1 0x40 MLOAD PUSH3 0x461BCD PUSH1 0xE5 SHL DUP2 MSTORE PUSH1 0x20 PUSH1 0x4 DUP3 ADD MSTORE PUSH1 0x10 PUSH1 0x24 DUP3 ADD MSTORE PUSH16 0x596F752063616E7420646F2074686973 PUSH1 0x80 SHL PUSH1 0x44 DUP3 ADD MSTORE PUSH1 0x64 ADD PUSH2 0x354 JUMP JUMPDEST PUSH2 0x8F2 DUP2 DUP4 PUSH2 0x6DA JUMP JUMPDEST PUSH2 0x931 JUMPI PUSH1 0x40 MLOAD PUSH3 0x461BCD PUSH1 0xE5 SHL DUP2 MSTORE PUSH1 0x20 PUSH1 0x4 DUP3 ADD MSTORE PUSH1 0x10 PUSH1 0x24 DUP3 ADD MSTORE PUSH16 0x596F752063616E7420646F2074686973 PUSH1 0x80 SHL PUSH1 0x44 DUP3 ADD MSTORE PUSH1 0x64 ADD PUSH2 0x354 JUMP JUMPDEST PUSH1 0x6 PUSH1 0x40 MLOAD DUP1 PUSH1 0x60 ADD PUSH1 0x40 MSTORE DUP1 DUP10 DUP2 MSTORE PUSH1 0x20 ADD DUP8 PUSH1 0x4 DUP2 GT ISZERO PUSH2 0x956 JUMPI PUSH2 0x956 PUSH2 0xD60 JUMP JUMPDEST DUP2 MSTORE PUSH1 0x20 ADD DUP7 PUSH1 0x4 DUP2 GT ISZERO PUSH2 0x96D JUMPI PUSH2 0x96D PUSH2 0xD60 JUMP JUMPDEST SWAP1 MSTORE DUP2 SLOAD PUSH1 0x1 DUP2 ADD DUP4 SSTORE PUSH1 0x0 SWAP3 DUP4 MSTORE PUSH1 0x20 SWAP3 DUP4 SWAP1 KECCAK256 DUP3 MLOAD DUP1 MLOAD SWAP4 SWAP5 PUSH1 0x2 SWAP1 SWAP4 MUL SWAP1 SWAP2 ADD SWAP3 PUSH2 0x99E SWAP3 DUP5 SWAP3 ADD SWAP1 PUSH2 0xC1F JUMP JUMPDEST POP PUSH1 0x20 DUP3 ADD MLOAD PUSH1 0x1 DUP1 DUP4 ADD DUP1 SLOAD SWAP1 SWAP2 PUSH1 0xFF NOT SWAP1 SWAP2 AND SWAP1 DUP4 PUSH1 0x4 DUP2 GT ISZERO PUSH2 0x9C6 JUMPI PUSH2 0x9C6 PUSH2 0xD60 JUMP JUMPDEST MUL OR SWAP1 SSTORE POP PUSH1 0x40 DUP3 ADD MLOAD PUSH1 0x1 DUP3 ADD DUP1 SLOAD PUSH2 0xFF00 NOT AND PUSH2 0x100 DUP4 PUSH1 0x4 DUP2 GT ISZERO PUSH2 0x9F0 JUMPI PUSH2 0x9F0 PUSH2 0xD60 JUMP JUMPDEST MUL OR SWAP1 SSTORE POP POP PUSH1 0x5 SLOAD PUSH1 0x40 MLOAD PUSH1 0xFF SWAP1 SWAP2 AND SWAP2 POP PUSH1 0x8 SWAP1 PUSH2 0xA11 SWAP1 DUP11 SWAP1 PUSH2 0x123B JUMP JUMPDEST SWAP1 DUP2 MSTORE PUSH1 0x40 MLOAD SWAP1 DUP2 SWAP1 SUB PUSH1 0x20 ADD SWAP1 KECCAK256 DUP1 SLOAD PUSH1 0xFF NOT AND PUSH1 0x1 DUP4 PUSH1 0x4 DUP2 GT ISZERO PUSH2 0xA3A JUMPI PUSH2 0xA3A PUSH2 0xD60 JUMP JUMPDEST MUL OR SWAP1 SSTORE POP PUSH1 0x5 PUSH1 0x1 SWAP1 SLOAD SWAP1 PUSH2 0x100 EXP SWAP1 DIV PUSH1 0xFF AND PUSH1 0x7 DUP9 PUSH1 0x40 MLOAD PUSH2 0xA5F SWAP2 SWAP1 PUSH2 0x123B JUMP JUMPDEST SWAP1 DUP2 MSTORE PUSH1 0x40 MLOAD SWAP1 DUP2 SWAP1 SUB PUSH1 0x20 ADD SWAP1 KECCAK256 DUP1 SLOAD PUSH1 0xFF NOT AND PUSH1 0x1 DUP4 PUSH1 0x4 DUP2 GT ISZERO PUSH2 0xA88 JUMPI PUSH2 0xA88 PUSH2 0xD60 JUMP JUMPDEST MUL OR SWAP1 SSTORE POP POP POP POP POP POP POP POP JUMP JUMPDEST PUSH1 0x0 SLOAD PUSH1 0x1 PUSH1 0x1 PUSH1 0xA0 SHL SUB AND CALLER EQ PUSH2 0xAC0 JUMPI PUSH1 0x40 MLOAD PUSH3 0x461BCD PUSH1 0xE5 SHL DUP2 MSTORE PUSH1 0x4 ADD PUSH2 0x354 SWAP1 PUSH2 0x11CB JUMP JUMPDEST PUSH1 0x1 PUSH1 0x1 PUSH1 0xA0 SHL SUB DUP2 AND PUSH2 0xB25 JUMPI PUSH1 0x40 MLOAD PUSH3 0x461BCD PUSH1 0xE5 SHL DUP2 MSTORE PUSH1 0x20 PUSH1 0x4 DUP3 ADD MSTORE PUSH1 0x26 PUSH1 0x24 DUP3 ADD MSTORE PUSH32 0x4F776E61626C653A206E6577206F776E657220697320746865207A65726F2061 PUSH1 0x44 DUP3 ADD MSTORE PUSH6 0x646472657373 PUSH1 0xD0 SHL PUSH1 0x64 DUP3 ADD MSTORE PUSH1 0x84 ADD PUSH2 0x354 JUMP JUMPDEST PUSH2 0x444 DUP2 JUMPDEST PUSH1 0x0 DUP1 SLOAD PUSH1 0x1 PUSH1 0x1 PUSH1 0xA0 SHL SUB DUP4 DUP2 AND PUSH1 0x1 PUSH1 0x1 PUSH1 0xA0 SHL SUB NOT DUP4 AND DUP2 OR DUP5 SSTORE PUSH1 0x40 MLOAD SWAP2 SWAP1 SWAP3 AND SWAP3 DUP4 SWAP2 PUSH32 0x8BE0079C531659141344CD1FD0A4F28419497F9722A3DAAFE3B4186F6B6457E0 SWAP2 SWAP1 LOG3 POP POP JUMP JUMPDEST DUP3 DUP1 SLOAD DUP3 DUP3 SSTORE SWAP1 PUSH1 0x0 MSTORE PUSH1 0x20 PUSH1 0x0 KECCAK256 SWAP1 DUP2 ADD SWAP3 DUP3 ISZERO PUSH2 0xBBA JUMPI PUSH1 0x0 MSTORE PUSH1 0x20 PUSH1 0x0 KECCAK256 SWAP2 DUP3 ADD JUMPDEST DUP3 DUP2 GT ISZERO PUSH2 0xBBA JUMPI DUP3 SLOAD DUP3 SSTORE SWAP2 PUSH1 0x1 ADD SWAP2 SWAP1 PUSH1 0x1 ADD SWAP1 PUSH2 0xB9F JUMP JUMPDEST POP PUSH2 0xBC6 SWAP3 SWAP2 POP PUSH2 0xC93 JUMP JUMPDEST POP SWAP1 JUMP JUMPDEST DUP3 DUP1 SLOAD DUP3 DUP3 SSTORE SWAP1 PUSH1 0x0 MSTORE PUSH1 0x20 PUSH1 0x0 KECCAK256 SWAP1 DUP2 ADD SWAP3 DUP3 ISZERO PUSH2 0xBBA JUMPI SWAP2 PUSH1 0x20 MUL DUP3 ADD JUMPDEST DUP3 DUP2 GT ISZERO PUSH2 0xBBA JUMPI DUP3 MLOAD DUP3 SLOAD PUSH1 0x1 PUSH1 0x1 PUSH1 0xA0 SHL SUB NOT AND PUSH1 0x1 PUSH1 0x1 PUSH1 0xA0 SHL SUB SWAP1 SWAP2 AND OR DUP3 SSTORE PUSH1 0x20 SWAP1 SWAP3 ADD SWAP2 PUSH1 0x1 SWAP1 SWAP2 ADD SWAP1 PUSH2 0xBEA JUMP JUMPDEST DUP3 DUP1 SLOAD PUSH2 0xC2B SWAP1 PUSH2 0x1200 JUMP JUMPDEST SWAP1 PUSH1 0x0 MSTORE PUSH1 0x20 PUSH1 0x0 KECCAK256 SWAP1 PUSH1 0x1F ADD PUSH1 0x20 SWAP1 DIV DUP2 ADD SWAP3 DUP3 PUSH2 0xC4D JUMPI PUSH1 0x0 DUP6 SSTORE PUSH2 0xBBA JUMP JUMPDEST DUP3 PUSH1 0x1F LT PUSH2 0xC66 JUMPI DUP1 MLOAD PUSH1 0xFF NOT AND DUP4 DUP1 ADD OR DUP6 SSTORE PUSH2 0xBBA JUMP JUMPDEST DUP3 DUP1 ADD PUSH1 0x1 ADD DUP6 SSTORE DUP3 ISZERO PUSH2 0xBBA JUMPI SWAP2 DUP3 ADD JUMPDEST DUP3 DUP2 GT ISZERO PUSH2 0xBBA JUMPI DUP3 MLOAD DUP3 SSTORE SWAP2 PUSH1 0x20 ADD SWAP2 SWAP1 PUSH1 0x1 ADD SWAP1 PUSH2 0xC78 JUMP JUMPDEST JUMPDEST DUP1 DUP3 GT ISZERO PUSH2 0xBC6 JUMPI PUSH1 0x0 DUP2 SSTORE PUSH1 0x1 ADD PUSH2 0xC94 JUMP JUMPDEST DUP1 CALLDATALOAD PUSH1 0x1 PUSH1 0x1 PUSH1 0xA0 SHL SUB DUP2 AND DUP2 EQ PUSH2 0xCBF JUMPI PUSH1 0x0 DUP1 REVERT JUMPDEST SWAP2 SWAP1 POP JUMP JUMPDEST PUSH1 0x5 DUP2 LT PUSH2 0x444 JUMPI PUSH1 0x0 DUP1 REVERT JUMPDEST PUSH1 0x0 DUP1 PUSH1 0x40 DUP4 DUP6 SUB SLT ISZERO PUSH2 0xCE4 JUMPI PUSH1 0x0 DUP1 REVERT JUMPDEST PUSH2 0xCED DUP4 PUSH2 0xCA8 JUMP JUMPDEST SWAP2 POP PUSH1 0x20 DUP4 ADD CALLDATALOAD PUSH2 0xCFD DUP2 PUSH2 0xCC4 JUMP JUMPDEST DUP1 SWAP2 POP POP SWAP3 POP SWAP3 SWAP1 POP JUMP JUMPDEST PUSH1 0x0 JUMPDEST DUP4 DUP2 LT ISZERO PUSH2 0xD23 JUMPI DUP2 DUP2 ADD MLOAD DUP4 DUP3 ADD MSTORE PUSH1 0x20 ADD PUSH2 0xD0B JUMP JUMPDEST DUP4 DUP2 GT ISZERO PUSH2 0x896 JUMPI POP POP PUSH1 0x0 SWAP2 ADD MSTORE JUMP JUMPDEST PUSH1 0x0 DUP2 MLOAD DUP1 DUP5 MSTORE PUSH2 0xD4C DUP2 PUSH1 0x20 DUP7 ADD PUSH1 0x20 DUP7 ADD PUSH2 0xD08 JUMP JUMPDEST PUSH1 0x1F ADD PUSH1 0x1F NOT AND SWAP3 SWAP1 SWAP3 ADD PUSH1 0x20 ADD SWAP3 SWAP2 POP POP JUMP JUMPDEST PUSH4 0x4E487B71 PUSH1 0xE0 SHL PUSH1 0x0 MSTORE PUSH1 0x21 PUSH1 0x4 MSTORE PUSH1 0x24 PUSH1 0x0 REVERT JUMPDEST PUSH1 0x5 DUP2 LT PUSH2 0x444 JUMPI PUSH4 0x4E487B71 PUSH1 0xE0 SHL PUSH1 0x0 MSTORE PUSH1 0x21 PUSH1 0x4 MSTORE PUSH1 0x24 PUSH1 0x0 REVERT JUMPDEST PUSH1 0x0 PUSH1 0x20 DUP1 DUP4 ADD DUP2 DUP5 MSTORE DUP1 DUP6 MLOAD DUP1 DUP4 MSTORE PUSH1 0x40 SWAP3 POP DUP3 DUP7 ADD SWAP2 POP DUP3 DUP2 PUSH1 0x5 SHL DUP8 ADD ADD DUP5 DUP9 ADD PUSH1 0x0 JUMPDEST DUP4 DUP2 LT ISZERO PUSH2 0xE17 JUMPI PUSH1 0x3F NOT DUP10 DUP5 SUB ADD DUP6 MSTORE DUP2 MLOAD PUSH1 0x60 DUP2 MLOAD DUP2 DUP7 MSTORE PUSH2 0xDE1 DUP3 DUP8 ADD DUP3 PUSH2 0xD34 JUMP JUMPDEST SWAP2 POP POP DUP9 DUP3 ADD MLOAD PUSH2 0xDF1 DUP2 PUSH2 0xD76 JUMP JUMPDEST DUP6 DUP11 ADD MSTORE SWAP1 DUP8 ADD MLOAD SWAP1 PUSH2 0xE03 DUP3 PUSH2 0xD76 JUMP JUMPDEST SWAP4 DUP8 ADD MSTORE SWAP4 DUP7 ADD SWAP4 SWAP1 DUP7 ADD SWAP1 PUSH1 0x1 ADD PUSH2 0xDBB JUMP JUMPDEST POP SWAP1 SWAP9 SWAP8 POP POP POP POP POP POP POP POP JUMP JUMPDEST PUSH1 0x0 DUP1 PUSH1 0x40 DUP4 DUP6 SUB SLT ISZERO PUSH2 0xE38 JUMPI PUSH1 0x0 DUP1 REVERT JUMPDEST DUP3 CALLDATALOAD PUSH2 0xE43 DUP2 PUSH2 0xCC4 JUMP JUMPDEST SWAP5 PUSH1 0x20 SWAP4 SWAP1 SWAP4 ADD CALLDATALOAD SWAP4 POP POP POP JUMP JUMPDEST PUSH4 0x4E487B71 PUSH1 0xE0 SHL PUSH1 0x0 MSTORE PUSH1 0x41 PUSH1 0x4 MSTORE PUSH1 0x24 PUSH1 0x0 REVERT JUMPDEST PUSH1 0x40 MLOAD PUSH1 0x1F DUP3 ADD PUSH1 0x1F NOT AND DUP2 ADD PUSH8 0xFFFFFFFFFFFFFFFF DUP2 GT DUP3 DUP3 LT OR ISZERO PUSH2 0xE90 JUMPI PUSH2 0xE90 PUSH2 0xE51 JUMP JUMPDEST PUSH1 0x40 MSTORE SWAP2 SWAP1 POP JUMP JUMPDEST PUSH1 0x0 DUP3 PUSH1 0x1F DUP4 ADD SLT PUSH2 0xEA9 JUMPI PUSH1 0x0 DUP1 REVERT JUMPDEST DUP2 CALLDATALOAD PUSH8 0xFFFFFFFFFFFFFFFF DUP2 GT ISZERO PUSH2 0xEC3 JUMPI PUSH2 0xEC3 PUSH2 0xE51 JUMP JUMPDEST PUSH2 0xED6 PUSH1 0x1F DUP3 ADD PUSH1 0x1F NOT AND PUSH1 0x20 ADD PUSH2 0xE67 JUMP JUMPDEST DUP2 DUP2 MSTORE DUP5 PUSH1 0x20 DUP4 DUP7 ADD ADD GT ISZERO PUSH2 0xEEB JUMPI PUSH1 0x0 DUP1 REVERT JUMPDEST DUP2 PUSH1 0x20 DUP6 ADD PUSH1 0x20 DUP4 ADD CALLDATACOPY PUSH1 0x0 SWAP2 DUP2 ADD PUSH1 0x20 ADD SWAP2 SWAP1 SWAP2 MSTORE SWAP4 SWAP3 POP POP POP JUMP JUMPDEST PUSH1 0x0 PUSH1 0x20 DUP3 DUP5 SUB SLT ISZERO PUSH2 0xF1A JUMPI PUSH1 0x0 DUP1 REVERT JUMPDEST DUP2 CALLDATALOAD PUSH8 0xFFFFFFFFFFFFFFFF DUP2 GT ISZERO PUSH2 0xF31 JUMPI PUSH1 0x0 DUP1 REVERT JUMPDEST PUSH2 0xF3D DUP5 DUP3 DUP6 ADD PUSH2 0xE98 JUMP JUMPDEST SWAP5 SWAP4 POP POP POP POP JUMP JUMPDEST PUSH1 0x20 DUP2 ADD PUSH2 0xF52 DUP4 PUSH2 0xD76 JUMP JUMPDEST SWAP2 SWAP1 MSTORE SWAP1 JUMP JUMPDEST PUSH1 0x0 PUSH1 0x20 DUP3 DUP5 SUB SLT ISZERO PUSH2 0xF6A JUMPI PUSH1 0x0 DUP1 REVERT JUMPDEST POP CALLDATALOAD SWAP2 SWAP1 POP JUMP JUMPDEST PUSH1 0x60 DUP2 MSTORE PUSH1 0x0 PUSH2 0xF84 PUSH1 0x60 DUP4 ADD DUP7 PUSH2 0xD34 JUMP JUMPDEST SWAP1 POP PUSH2 0xF8F DUP5 PUSH2 0xD76 JUMP JUMPDEST DUP4 PUSH1 0x20 DUP4 ADD MSTORE PUSH2 0xF9E DUP4 PUSH2 0xD76 JUMP JUMPDEST DUP3 PUSH1 0x40 DUP4 ADD MSTORE SWAP5 SWAP4 POP POP POP POP JUMP JUMPDEST PUSH1 0x0 DUP1 PUSH1 0x40 DUP4 DUP6 SUB SLT ISZERO PUSH2 0xFBF JUMPI PUSH1 0x0 DUP1 REVERT JUMPDEST DUP3 CALLDATALOAD PUSH2 0xCED DUP2 PUSH2 0xCC4 JUMP JUMPDEST PUSH1 0x0 DUP3 PUSH1 0x1F DUP4 ADD SLT PUSH2 0xFDB JUMPI PUSH1 0x0 DUP1 REVERT JUMPDEST DUP2 CALLDATALOAD PUSH1 0x20 PUSH8 0xFFFFFFFFFFFFFFFF DUP3 GT ISZERO PUSH2 0xFF7 JUMPI PUSH2 0xFF7 PUSH2 0xE51 JUMP JUMPDEST DUP2 PUSH1 0x5 SHL PUSH2 0x1006 DUP3 DUP3 ADD PUSH2 0xE67 JUMP JUMPDEST SWAP3 DUP4 MSTORE DUP5 DUP2 ADD DUP3 ADD SWAP3 DUP3 DUP2 ADD SWAP1 DUP8 DUP6 GT ISZERO PUSH2 0x1020 JUMPI PUSH1 0x0 DUP1 REVERT JUMPDEST DUP4 DUP8 ADD SWAP3 POP JUMPDEST DUP5 DUP4 LT ISZERO PUSH2 0x1046 JUMPI PUSH2 0x1037 DUP4 PUSH2 0xCA8 JUMP JUMPDEST DUP3 MSTORE SWAP2 DUP4 ADD SWAP2 SWAP1 DUP4 ADD SWAP1 PUSH2 0x1026 JUMP JUMPDEST SWAP8 SWAP7 POP POP POP POP POP POP POP JUMP JUMPDEST PUSH1 0x0 DUP1 PUSH1 0x0 DUP1 PUSH1 0x80 DUP6 DUP8 SUB SLT ISZERO PUSH2 0x1067 JUMPI PUSH1 0x0 DUP1 REVERT JUMPDEST DUP5 CALLDATALOAD PUSH8 0xFFFFFFFFFFFFFFFF DUP1 DUP3 GT ISZERO PUSH2 0x107F JUMPI PUSH1 0x0 DUP1 REVERT JUMPDEST PUSH2 0x108B DUP9 DUP4 DUP10 ADD PUSH2 0xFCA JUMP JUMPDEST SWAP6 POP PUSH1 0x20 DUP8 ADD CALLDATALOAD SWAP2 POP DUP1 DUP3 GT ISZERO PUSH2 0x10A1 JUMPI PUSH1 0x0 DUP1 REVERT JUMPDEST PUSH2 0x10AD DUP9 DUP4 DUP10 ADD PUSH2 0xFCA JUMP JUMPDEST SWAP5 POP PUSH1 0x40 DUP8 ADD CALLDATALOAD SWAP2 POP DUP1 DUP3 GT ISZERO PUSH2 0x10C3 JUMPI PUSH1 0x0 DUP1 REVERT JUMPDEST PUSH2 0x10CF DUP9 DUP4 DUP10 ADD PUSH2 0xFCA JUMP JUMPDEST SWAP4 POP PUSH1 0x60 DUP8 ADD CALLDATALOAD SWAP2 POP DUP1 DUP3 GT ISZERO PUSH2 0x10E5 JUMPI PUSH1 0x0 DUP1 REVERT JUMPDEST POP PUSH2 0x10F2 DUP8 DUP3 DUP9 ADD PUSH2 0xFCA JUMP JUMPDEST SWAP2 POP POP SWAP3 SWAP6 SWAP2 SWAP5 POP SWAP3 POP JUMP JUMPDEST PUSH1 0x0 DUP1 PUSH1 0x0 DUP1 PUSH1 0x80 DUP6 DUP8 SUB SLT ISZERO PUSH2 0x1114 JUMPI PUSH1 0x0 DUP1 REVERT JUMPDEST DUP5 CALLDATALOAD PUSH8 0xFFFFFFFFFFFFFFFF DUP2 GT ISZERO PUSH2 0x112B JUMPI PUSH1 0x0 DUP1 REVERT JUMPDEST PUSH2 0x1137 DUP8 DUP3 DUP9 ADD PUSH2 0xE98 JUMP JUMPDEST SWAP5 POP POP PUSH2 0x1146 PUSH1 0x20 DUP7 ADD PUSH2 0xCA8 JUMP JUMPDEST SWAP3 POP PUSH1 0x40 DUP6 ADD CALLDATALOAD PUSH2 0x1156 DUP2 PUSH2 0xCC4 JUMP JUMPDEST SWAP2 POP PUSH1 0x60 DUP6 ADD CALLDATALOAD PUSH2 0x1166 DUP2 PUSH2 0xCC4 JUMP JUMPDEST SWAP4 SWAP7 SWAP3 SWAP6 POP SWAP1 SWAP4 POP POP JUMP JUMPDEST PUSH1 0x0 PUSH1 0x20 DUP3 DUP5 SUB SLT ISZERO PUSH2 0x1183 JUMPI PUSH1 0x0 DUP1 REVERT JUMPDEST PUSH2 0x80D DUP3 PUSH2 0xCA8 JUMP JUMPDEST PUSH4 0x4E487B71 PUSH1 0xE0 SHL PUSH1 0x0 MSTORE PUSH1 0x32 PUSH1 0x4 MSTORE PUSH1 0x24 PUSH1 0x0 REVERT JUMPDEST PUSH1 0x0 PUSH1 0x0 NOT DUP3 EQ ISZERO PUSH2 0x11C4 JUMPI PUSH4 0x4E487B71 PUSH1 0xE0 SHL PUSH1 0x0 MSTORE PUSH1 0x11 PUSH1 0x4 MSTORE PUSH1 0x24 PUSH1 0x0 REVERT JUMPDEST POP PUSH1 0x1 ADD SWAP1 JUMP JUMPDEST PUSH1 0x20 DUP1 DUP3 MSTORE DUP2 DUP2 ADD MSTORE PUSH32 0x4F776E61626C653A2063616C6C6572206973206E6F7420746865206F776E6572 PUSH1 0x40 DUP3 ADD MSTORE PUSH1 0x60 ADD SWAP1 JUMP JUMPDEST PUSH1 0x1 DUP2 DUP2 SHR SWAP1 DUP3 AND DUP1 PUSH2 0x1214 JUMPI PUSH1 0x7F DUP3 AND SWAP2 POP JUMPDEST PUSH1 0x20 DUP3 LT DUP2 EQ ISZERO PUSH2 0x1235 JUMPI PUSH4 0x4E487B71 PUSH1 0xE0 SHL PUSH1 0x0 MSTORE PUSH1 0x22 PUSH1 0x4 MSTORE PUSH1 0x24 PUSH1 0x0 REVERT JUMPDEST POP SWAP2 SWAP1 POP JUMP JUMPDEST PUSH1 0x0 DUP3 MLOAD PUSH2 0x124D DUP2 DUP5 PUSH1 0x20 DUP8 ADD PUSH2 0xD08 JUMP JUMPDEST SWAP2 SWAP1 SWAP2 ADD SWAP3 SWAP2 POP POP JUMP INVALID LOG2 PUSH5 0x6970667358 0x22 SLT KECCAK256 0xDE 0xEB SWAP6 SWAP14 DUP6 0xC3 PUSH3 0xF7F834 CALLDATACOPY 0xC4 PUSH15 0xA0EEC90D249C8A89766C4DBFF5816F 0x25 PUSH11 0x558A64736F6C634300080B STOP CALLER ","sha1":"0b8e61d5ef1d55eb52a89e002f6404cafa1c013c","source":"// SPDX-License-Identifier: MIT\n\n// This contract will allow you to setup your user account to either be an uploader and downloadedr and cloud storage user (NRO user), service provider for storage, cloud or both (AWS)\n// Users should belong to an organization. * Can implement different coins to allow you to authenticate to a group. * Service providers do not need to belong to an organization for now\n// Authentication should be occuring throughout. Once your account is established correctly you should only be able to click the link for the page you will be allowed to use.\n// There will be different contracts once you enter a link. \n\npragma solidity >=0.6.0 <0.9.0;\nimport \"@openzeppelin/contracts/access/Ownable.sol\";\n\ncontract DetermineUser is Ownable{\n\n    address[] _privateKeyNRO; address[] _privateKeyNSA; address[] _privateKeyCIA; address[] _privateKeyAWS;\n    constructor(address[] memory privateKeyNRO,address[] memory privateKeyCIA,address[] memory privateKeyNSA,address[] memory privateKeyAWS) { // extend this for user type and orgname, should be a list of numbers\n\n        _privateKeyNRO = privateKeyNRO;\n        _privateKeyNSA = privateKeyNSA;\n        _privateKeyCIA = privateKeyCIA;\n        _privateKeyAWS = privateKeyAWS;\n    }\n\n    enum OrgName{ None, NRO, NSA, CIA, AWS }\n    OrgName _orgName;\n\n    enum UserType{ None, User,ProviderStorage, ProviderCloud, ProviderBoth}\n    UserType _userType;\n\n    struct People {\n        string name;\n        UserType yourUserType;\n        OrgName organization;\n    }\n    \n    People[] public people;\n    mapping(string => UserType) public nameToUserType;\n    mapping(string => OrgName) public nameToOrganization;\n    mapping(OrgName => address[]) public orgnameToKey;\n    \n    function createMapping() public onlyOwner{ //must be called in order for contract to run\n        orgnameToKey[OrgName.NRO]= _privateKeyNRO;\n        orgnameToKey[OrgName.NSA]= _privateKeyNSA;\n        orgnameToKey[OrgName.CIA]= _privateKeyCIA;\n        orgnameToKey[OrgName.AWS]= _privateKeyAWS;\n        \n    }\n\n    // if owner wants to change private keys after contract is deployed\n    function changePrivateKeys(address[] memory _newprivateKeyNRO,address[] memory _newprivateKeyCIA,address[] memory _newprivateKeyNSA,address[] memory _newprivateKeyAWS) public onlyOwner{ //input should be a new list of numbers\n        _privateKeyNRO=_newprivateKeyNRO;\n        _privateKeyNSA=_newprivateKeyNSA;\n        _privateKeyCIA=_newprivateKeyCIA;\n        _privateKeyAWS=_newprivateKeyAWS;\n        createMapping();\n    }\n\n   \n\n    function checkOrgList(address usersPrivateKey,  OrgName selectionNumOrg) public view returns(bool){//checks if number is in list and list is based on organization chosen\n        bool result;\n        result= false;\n        if (selectionNumOrg==OrgName.None) {result=true;}\n        //wont go through the loop anyway if orgname is none\n        for (uint j = 0; j < orgnameToKey[selectionNumOrg].length; j++) {\n            if (orgnameToKey[selectionNumOrg][j]==usersPrivateKey){result=true;break;} else {result=false;} \n        }\n        return result;\n\n    }\n    function checkTypeList(OrgName selectionNumOrg, UserType selectionNumType) public pure returns(bool){ // ensure that only certain organizations can be determined as a specific type etc.\n        bool result;\n        result= false;\n\n        if ((selectionNumOrg==OrgName.NRO || selectionNumOrg==OrgName.NSA || selectionNumOrg==OrgName.CIA) && selectionNumType==UserType.User){result=true;\n        } else if (selectionNumOrg==OrgName.AWS && selectionNumType==UserType.ProviderBoth) {result=true;\n        } else if (selectionNumOrg==OrgName.None && (selectionNumType==UserType.ProviderCloud || selectionNumType==UserType.ProviderStorage || selectionNumType==UserType.None)){result=true;\n        } else {result=false;}\n        \n        return result;\n\n    }\n     // modifier to check whether your private key has authorization to a specific user type. \n    modifier onlyCertainKeys(address usersPrivateKey, UserType selectionNumType, OrgName selectionNumOrg){ \n\n        require(checkOrgList(usersPrivateKey, selectionNumOrg), 'You cant do this');\n        require(checkTypeList(selectionNumOrg, selectionNumType), 'You cant do this');\n        _;\n\n    }\n\n    function people_list() public view returns (People[] memory) { //A list of users\n        return people;\n    }\n\n    // add a person to an organization and determine the type of user.\n    function addPerson( string memory _name, address usersPrivateKey, UserType selectionNumType, OrgName selectionNumOrg) public onlyCertainKeys(usersPrivateKey, selectionNumType, selectionNumOrg) {\n        // Check whether user is authorized to the organization and user type by using their private key and authenticating in the two seperate functions\n\n        people.push(People( _name, selectionNumType, selectionNumOrg));\n        nameToOrganization[_name]= _orgName;\n        nameToUserType[_name]= _userType;\n    }\n\n\n    // only owner can authenticate a key because the contract deployment process and the changePrivateKeys function\n    // if i implement an automatic payment to user type in here than the same owner would have to be for both contracts and i would have to increase allowance everytime someone is added anyway.\n    \n    \n\n}\n","sourcePath":"contracts/DetermineUser.sol","type":"contract","deployment":{"address":"0xa8cb1b2112404c6F272940ee2aeD56612133b6B4","chainid":"4","blockHeight":10079823}}