{"abi":[{"inputs":[{"internalType":"address[]","name":"privateKeyNRO","type":"address[]"},{"internalType":"address[]","name":"privateKeyCIA","type":"address[]"},{"internalType":"address[]","name":"privateKeyNSA","type":"address[]"},{"internalType":"address[]","name":"privateKeyAWS","type":"address[]"}],"stateMutability":"nonpayable","type":"constructor","name":"constructor"},{"anonymous":false,"inputs":[{"indexed":true,"internalType":"address","name":"previousOwner","type":"address"},{"indexed":true,"internalType":"address","name":"newOwner","type":"address"}],"name":"OwnershipTransferred","type":"event"},{"inputs":[{"internalType":"string","name":"_name","type":"string"},{"internalType":"enum DetermineUser.UserType","name":"selectionNumType","type":"uint8"},{"internalType":"enum DetermineUser.OrgName","name":"selectionNumOrg","type":"uint8"}],"name":"addPerson","outputs":[],"stateMutability":"nonpayable","type":"function"},{"inputs":[{"internalType":"address[]","name":"_newprivateKeyNRO","type":"address[]"},{"internalType":"address[]","name":"_newprivateKeyCIA","type":"address[]"},{"internalType":"address[]","name":"_newprivateKeyNSA","type":"address[]"},{"internalType":"address[]","name":"_newprivateKeyAWS","type":"address[]"}],"name":"changePrivateKeys","outputs":[],"stateMutability":"nonpayable","type":"function"},{"inputs":[{"internalType":"address","name":"usersPrivateKey","type":"address"},{"internalType":"enum DetermineUser.OrgName","name":"selectionNumOrg","type":"uint8"}],"name":"checkOrgList","outputs":[{"internalType":"bool","name":"","type":"bool"}],"stateMutability":"view","type":"function"},{"inputs":[{"internalType":"enum DetermineUser.OrgName","name":"selectionNumOrg","type":"uint8"},{"internalType":"enum DetermineUser.UserType","name":"selectionNumType","type":"uint8"}],"name":"checkTypeList","outputs":[{"internalType":"bool","name":"","type":"bool"}],"stateMutability":"pure","type":"function"},{"inputs":[],"name":"createMapping","outputs":[],"stateMutability":"nonpayable","type":"function"},{"inputs":[{"internalType":"string","name":"","type":"string"}],"name":"nameToOrganization","outputs":[{"internalType":"enum DetermineUser.OrgName","name":"","type":"uint8"}],"stateMutability":"view","type":"function"},{"inputs":[{"internalType":"string","name":"","type":"string"}],"name":"nameToUserType","outputs":[{"internalType":"enum DetermineUser.UserType","name":"","type":"uint8"}],"stateMutability":"view","type":"function"},{"inputs":[{"internalType":"enum DetermineUser.OrgName","name":"","type":"uint8"},{"internalType":"uint256","name":"","type":"uint256"}],"name":"orgnameToKey","outputs":[{"internalType":"address","name":"","type":"address"}],"stateMutability":"view","type":"function"},{"inputs":[],"name":"owner","outputs":[{"internalType":"address","name":"","type":"address"}],"stateMutability":"view","type":"function"},{"inputs":[{"internalType":"uint256","name":"","type":"uint256"}],"name":"people","outputs":[{"internalType":"string","name":"name","type":"string"},{"internalType":"enum DetermineUser.UserType","name":"yourUserType","type":"uint8"},{"internalType":"enum DetermineUser.OrgName","name":"organization","type":"uint8"}],"stateMutability":"view","type":"function"},{"inputs":[],"name":"people_list","outputs":[{"internalType":"address[]","name":"","type":"address[]"}],"stateMutability":"view","type":"function"},{"inputs":[],"name":"renounceOwnership","outputs":[],"stateMutability":"nonpayable","type":"function"},{"inputs":[{"internalType":"address","name":"newOwner","type":"address"}],"name":"transferOwnership","outputs":[],"stateMutability":"nonpayable","type":"function"}],"bytecode":"60806040523480156200001157600080fd5b506040516200144538038062001445833981016040819052620000349162000252565b6200003f33620000a1565b835162000054906001906020870190620000f1565b5081516200006a906002906020850190620000f1565b50825162000080906003906020860190620000f1565b50805162000096906004906020840190620000f1565b50505050506200030b565b600080546001600160a01b038381166001600160a01b0319831681178455604051919092169283917f8be0079c531659141344cd1fd0a4f28419497f9722a3daafe3b4186f6b6457e09190a35050565b82805482825590600052602060002090810192821562000149579160200282015b828111156200014957825182546001600160a01b0319166001600160a01b0390911617825560209092019160019091019062000112565b50620001579291506200015b565b5090565b5b808211156200015757600081556001016200015c565b634e487b7160e01b600052604160045260246000fd5b80516001600160a01b0381168114620001a057600080fd5b919050565b600082601f830112620001b757600080fd5b815160206001600160401b0380831115620001d657620001d662000172565b8260051b604051601f19603f83011681018181108482111715620001fe57620001fe62000172565b6040529384528581018301938381019250878511156200021d57600080fd5b83870191505b848210156200024757620002378262000188565b8352918301919083019062000223565b979650505050505050565b600080600080608085870312156200026957600080fd5b84516001600160401b03808211156200028157600080fd5b6200028f88838901620001a5565b95506020870151915080821115620002a657600080fd5b620002b488838901620001a5565b94506040870151915080821115620002cb57600080fd5b620002d988838901620001a5565b93506060870151915080821115620002f057600080fd5b50620002ff87828801620001a5565b91505092959194509250565b61112a806200031b6000396000f3fe608060405234801561001057600080fd5b50600436106100cf5760003560e01c80637fa2bc741161008c578063c60c718f11610066578063c60c718f146101cf578063cb44a116146101e2578063d82b87dc146101f5578063f2fde38b1461022357600080fd5b80637fa2bc74146101615780638da5cb5b1461019c5780639e7a13ad146101ad57600080fd5b806333586ff9146100d45780633ab4059c146100fc5780633afd5656146101065780634bd118841461011957806352d865391461012e578063715018a614610159575b600080fd5b6100e76100e2366004610bd5565b610236565b60405190151581526020015b60405180910390f35b61010461032a565b005b610104610114366004610cc3565b610447565b610121610640565b6040516100f39190610d27565b61014161013c366004610d74565b6106a2565b6040516001600160a01b0390911681526020016100f3565b6101046106da565b61018f61016f366004610da0565b805160208183018101805160088252928201919093012091525460ff1681565b6040516100f39190610e11565b6000546001600160a01b0316610141565b6101c06101bb366004610e24565b610710565b6040516100f393929190610e69565b6100e76101dd366004610ebc565b6107d8565b6101046101f0366004610f61565b610912565b61018f610203366004610da0565b805160208183018101805160078252928201919093012091525460ff1681565b61010461023136600461100e565b61099a565b6000808083600481111561024c5761024c610ddd565b1415610256575060015b60005b6009600085600481111561026f5761026f610ddd565b600481111561028057610280610ddd565b815260208101919091526040016000205481101561032257846001600160a01b0316600960008660048111156102b8576102b8610ddd565b60048111156102c9576102c9610ddd565b815260200190815260200160002082815481106102e8576102e8611029565b6000918252602090912001546001600160a01b0316141561030c5760019150610322565b600091508061031a8161103f565b915050610259565b509392505050565b6000546001600160a01b0316331461035d5760405162461bcd60e51b815260040161035490611068565b60405180910390fd5b6001600081905260096020528054610396917f92e85d02570a8092d09a6e3a57665bc3815a2699a4074001bf1ccabf660f5a3691610a7e565b5060026000819052600960205280546103d0917f6cde3cea4b3a3fb2488b2808bae7556f4a405e50f65e1794383bc026131b13c391610a7e565b50600360008190526009602052805461040a917fc575c31fea594a6eb97c8e9d3f9caee4c16218c6ef37e923234c0fe9014a61e791610a7e565b506004600081905260096020528054610444917f8dc18c4ccfd75f5c815b63770fa542fd953e8fef7e0e44bbdd4913470ce7e9cb91610a7e565b50565b3382826104548382610236565b6104935760405162461bcd60e51b815260206004820152601060248201526f596f752063616e7420646f207468697360801b6044820152606401610354565b61049d81836107d8565b6104dc5760405162461bcd60e51b815260206004820152601060248201526f596f752063616e7420646f207468697360801b6044820152606401610354565b6006604051806060016040528088815260200187600481111561050157610501610ddd565b815260200186600481111561051857610518610ddd565b9052815460018101835560009283526020928390208251805193946002909302909101926105499284920190610ace565b50602082015160018083018054909160ff199091169083600481111561057157610571610ddd565b0217905550604082015160018201805461ff00191661010083600481111561059b5761059b610ddd565b02179055505060055460405160ff90911691506008906105bc90899061109d565b908152604051908190036020019020805460ff191660018360048111156105e5576105e5610ddd565b0217905550600560019054906101000a900460ff1660078760405161060a919061109d565b908152604051908190036020019020805460ff1916600183600481111561063357610633610ddd565b0217905550505050505050565b6060600180548060200260200160405190810160405280929190818152602001828054801561069857602002820191906000526020600020905b81546001600160a01b0316815260019091019060200180831161067a575b5050505050905090565b600960205281600052604060002081815481106106be57600080fd5b6000918252602090912001546001600160a01b03169150829050565b6000546001600160a01b031633146107045760405162461bcd60e51b815260040161035490611068565b61070e6000610a2e565b565b6006818154811061072057600080fd5b9060005260206000209060020201600091509050806000018054610743906110b9565b80601f016020809104026020016040519081016040528092919081815260200182805461076f906110b9565b80156107bc5780601f10610791576101008083540402835291602001916107bc565b820191906000526020600020905b81548152906001019060200180831161079f57829003601f168201915b5050506001909301549192505060ff8082169161010090041683565b60008060018460048111156107ef576107ef610ddd565b148061080c5750600284600481111561080a5761080a610ddd565b145b806108285750600384600481111561082657610826610ddd565b145b80156108455750600183600481111561084357610843610ddd565b145b156108525750600161090b565b600484600481111561086657610866610ddd565b1480156108845750600483600481111561088257610882610ddd565b145b156108915750600161090b565b60008460048111156108a5576108a5610ddd565b1480156108fa575060038360048111156108c1576108c1610ddd565b14806108de575060028360048111156108dc576108dc610ddd565b145b806108fa575060008360048111156108f8576108f8610ddd565b145b156109075750600161090b565b5060005b9392505050565b6000546001600160a01b0316331461093c5760405162461bcd60e51b815260040161035490611068565b835161094f906001906020870190610b42565b508151610963906002906020850190610b42565b508251610977906003906020860190610b42565b50805161098b906004906020840190610b42565b5061099461032a565b50505050565b6000546001600160a01b031633146109c45760405162461bcd60e51b815260040161035490611068565b6001600160a01b038116610a295760405162461bcd60e51b815260206004820152602660248201527f4f776e61626c653a206e6577206f776e657220697320746865207a65726f206160448201526564647265737360d01b6064820152608401610354565b610444815b600080546001600160a01b038381166001600160a01b0319831681178455604051919092169283917f8be0079c531659141344cd1fd0a4f28419497f9722a3daafe3b4186f6b6457e09190a35050565b828054828255906000526020600020908101928215610abe5760005260206000209182015b82811115610abe578254825591600101919060010190610aa3565b50610aca929150610b97565b5090565b828054610ada906110b9565b90600052602060002090601f016020900481019282610afc5760008555610abe565b82601f10610b1557805160ff1916838001178555610abe565b82800160010185558215610abe579182015b82811115610abe578251825591602001919060010190610b27565b828054828255906000526020600020908101928215610abe579160200282015b82811115610abe57825182546001600160a01b0319166001600160a01b03909116178255602090920191600190910190610b62565b5b80821115610aca5760008155600101610b98565b80356001600160a01b0381168114610bc357600080fd5b919050565b6005811061044457600080fd5b60008060408385031215610be857600080fd5b610bf183610bac565b91506020830135610c0181610bc8565b809150509250929050565b634e487b7160e01b600052604160045260246000fd5b604051601f8201601f1916810167ffffffffffffffff81118282101715610c4b57610c4b610c0c565b604052919050565b600082601f830112610c6457600080fd5b813567ffffffffffffffff811115610c7e57610c7e610c0c565b610c91601f8201601f1916602001610c22565b818152846020838601011115610ca657600080fd5b816020850160208301376000918101602001919091529392505050565b600080600060608486031215610cd857600080fd5b833567ffffffffffffffff811115610cef57600080fd5b610cfb86828701610c53565b9350506020840135610d0c81610bc8565b91506040840135610d1c81610bc8565b809150509250925092565b6020808252825182820181905260009190848201906040850190845b81811015610d685783516001600160a01b031683529284019291840191600101610d43565b50909695505050505050565b60008060408385031215610d8757600080fd5b8235610d9281610bc8565b946020939093013593505050565b600060208284031215610db257600080fd5b813567ffffffffffffffff811115610dc957600080fd5b610dd584828501610c53565b949350505050565b634e487b7160e01b600052602160045260246000fd5b6005811061044457634e487b7160e01b600052602160045260246000fd5b60208101610e1e83610df3565b91905290565b600060208284031215610e3657600080fd5b5035919050565b60005b83811015610e58578181015183820152602001610e40565b838111156109945750506000910152565b6060815260008451806060840152610e88816080850160208901610e3d565b601f01601f191682016080019050610e9f84610df3565b836020830152610eae83610df3565b826040830152949350505050565b60008060408385031215610ecf57600080fd5b8235610bf181610bc8565b600082601f830112610eeb57600080fd5b8135602067ffffffffffffffff821115610f0757610f07610c0c565b8160051b610f16828201610c22565b9283528481018201928281019087851115610f3057600080fd5b83870192505b84831015610f5657610f4783610bac565b82529183019190830190610f36565b979650505050505050565b60008060008060808587031215610f7757600080fd5b843567ffffffffffffffff80821115610f8f57600080fd5b610f9b88838901610eda565b95506020870135915080821115610fb157600080fd5b610fbd88838901610eda565b94506040870135915080821115610fd357600080fd5b610fdf88838901610eda565b93506060870135915080821115610ff557600080fd5b5061100287828801610eda565b91505092959194509250565b60006020828403121561102057600080fd5b61090b82610bac565b634e487b7160e01b600052603260045260246000fd5b600060001982141561106157634e487b7160e01b600052601160045260246000fd5b5060010190565b6020808252818101527f4f776e61626c653a2063616c6c6572206973206e6f7420746865206f776e6572604082015260600190565b600082516110af818460208701610e3d565b9190910192915050565b600181811c908216806110cd57607f821691505b602082108114156110ee57634e487b7160e01b600052602260045260246000fd5b5091905056fea26469706673582212202f9237e2a436e1a7af5b69b9a89230903181dd464ce5fda30c47c5bb9b380a3764736f6c634300080b0033","bytecodeSha1":"95493ef64f63851186733ce6301e88daea71acfd","compiler":{"evm_version":"istanbul","optimizer":{"enabled":true,"runs":200},"version":"0.8.11+commit.d7f03943"},"contractName":"DetermineUser","language":"Solidity","natspec":{"kind":"dev","methods":{"owner()":{"details":"Returns the address of the current owner."},"renounceOwnership()":{"details":"Leaves the contract without owner. It will not be possible to call `onlyOwner` functions anymore. Can only be called by the current owner. NOTE: Renouncing ownership will leave the contract without an owner, thereby removing any functionality that is only available to the owner."},"transferOwnership(address)":{"details":"Transfers ownership of the contract to a new account (`newOwner`). Can only be called by the current owner."}},"version":1},"opcodes":"PUSH1 0x80 PUSH1 0x40 MSTORE CALLVALUE DUP1 ISZERO PUSH2 0x10 JUMPI PUSH1 0x0 DUP1 REVERT JUMPDEST POP PUSH1 0x4 CALLDATASIZE LT PUSH2 0xCF JUMPI PUSH1 0x0 CALLDATALOAD PUSH1 0xE0 SHR DUP1 PUSH4 0x7FA2BC74 GT PUSH2 0x8C JUMPI DUP1 PUSH4 0xC60C718F GT PUSH2 0x66 JUMPI DUP1 PUSH4 0xC60C718F EQ PUSH2 0x1CF JUMPI DUP1 PUSH4 0xCB44A116 EQ PUSH2 0x1E2 JUMPI DUP1 PUSH4 0xD82B87DC EQ PUSH2 0x1F5 JUMPI DUP1 PUSH4 0xF2FDE38B EQ PUSH2 0x223 JUMPI PUSH1 0x0 DUP1 REVERT JUMPDEST DUP1 PUSH4 0x7FA2BC74 EQ PUSH2 0x161 JUMPI DUP1 PUSH4 0x8DA5CB5B EQ PUSH2 0x19C JUMPI DUP1 PUSH4 0x9E7A13AD EQ PUSH2 0x1AD JUMPI PUSH1 0x0 DUP1 REVERT JUMPDEST DUP1 PUSH4 0x33586FF9 EQ PUSH2 0xD4 JUMPI DUP1 PUSH4 0x3AB4059C EQ PUSH2 0xFC JUMPI DUP1 PUSH4 0x3AFD5656 EQ PUSH2 0x106 JUMPI DUP1 PUSH4 0x4BD11884 EQ PUSH2 0x119 JUMPI DUP1 PUSH4 0x52D86539 EQ PUSH2 0x12E JUMPI DUP1 PUSH4 0x715018A6 EQ PUSH2 0x159 JUMPI JUMPDEST PUSH1 0x0 DUP1 REVERT JUMPDEST PUSH2 0xE7 PUSH2 0xE2 CALLDATASIZE PUSH1 0x4 PUSH2 0xBD5 JUMP JUMPDEST PUSH2 0x236 JUMP JUMPDEST PUSH1 0x40 MLOAD SWAP1 ISZERO ISZERO DUP2 MSTORE PUSH1 0x20 ADD JUMPDEST PUSH1 0x40 MLOAD DUP1 SWAP2 SUB SWAP1 RETURN JUMPDEST PUSH2 0x104 PUSH2 0x32A JUMP JUMPDEST STOP JUMPDEST PUSH2 0x104 PUSH2 0x114 CALLDATASIZE PUSH1 0x4 PUSH2 0xCC3 JUMP JUMPDEST PUSH2 0x447 JUMP JUMPDEST PUSH2 0x121 PUSH2 0x640 JUMP JUMPDEST PUSH1 0x40 MLOAD PUSH2 0xF3 SWAP2 SWAP1 PUSH2 0xD27 JUMP JUMPDEST PUSH2 0x141 PUSH2 0x13C CALLDATASIZE PUSH1 0x4 PUSH2 0xD74 JUMP JUMPDEST PUSH2 0x6A2 JUMP JUMPDEST PUSH1 0x40 MLOAD PUSH1 0x1 PUSH1 0x1 PUSH1 0xA0 SHL SUB SWAP1 SWAP2 AND DUP2 MSTORE PUSH1 0x20 ADD PUSH2 0xF3 JUMP JUMPDEST PUSH2 0x104 PUSH2 0x6DA JUMP JUMPDEST PUSH2 0x18F PUSH2 0x16F CALLDATASIZE PUSH1 0x4 PUSH2 0xDA0 JUMP JUMPDEST DUP1 MLOAD PUSH1 0x20 DUP2 DUP4 ADD DUP2 ADD DUP1 MLOAD PUSH1 0x8 DUP3 MSTORE SWAP3 DUP3 ADD SWAP2 SWAP1 SWAP4 ADD KECCAK256 SWAP2 MSTORE SLOAD PUSH1 0xFF AND DUP2 JUMP JUMPDEST PUSH1 0x40 MLOAD PUSH2 0xF3 SWAP2 SWAP1 PUSH2 0xE11 JUMP JUMPDEST PUSH1 0x0 SLOAD PUSH1 0x1 PUSH1 0x1 PUSH1 0xA0 SHL SUB AND PUSH2 0x141 JUMP JUMPDEST PUSH2 0x1C0 PUSH2 0x1BB CALLDATASIZE PUSH1 0x4 PUSH2 0xE24 JUMP JUMPDEST PUSH2 0x710 JUMP JUMPDEST PUSH1 0x40 MLOAD PUSH2 0xF3 SWAP4 SWAP3 SWAP2 SWAP1 PUSH2 0xE69 JUMP JUMPDEST PUSH2 0xE7 PUSH2 0x1DD CALLDATASIZE PUSH1 0x4 PUSH2 0xEBC JUMP JUMPDEST PUSH2 0x7D8 JUMP JUMPDEST PUSH2 0x104 PUSH2 0x1F0 CALLDATASIZE PUSH1 0x4 PUSH2 0xF61 JUMP JUMPDEST PUSH2 0x912 JUMP JUMPDEST PUSH2 0x18F PUSH2 0x203 CALLDATASIZE PUSH1 0x4 PUSH2 0xDA0 JUMP JUMPDEST DUP1 MLOAD PUSH1 0x20 DUP2 DUP4 ADD DUP2 ADD DUP1 MLOAD PUSH1 0x7 DUP3 MSTORE SWAP3 DUP3 ADD SWAP2 SWAP1 SWAP4 ADD KECCAK256 SWAP2 MSTORE SLOAD PUSH1 0xFF AND DUP2 JUMP JUMPDEST PUSH2 0x104 PUSH2 0x231 CALLDATASIZE PUSH1 0x4 PUSH2 0x100E JUMP JUMPDEST PUSH2 0x99A JUMP JUMPDEST PUSH1 0x0 DUP1 DUP1 DUP4 PUSH1 0x4 DUP2 GT ISZERO PUSH2 0x24C JUMPI PUSH2 0x24C PUSH2 0xDDD JUMP JUMPDEST EQ ISZERO PUSH2 0x256 JUMPI POP PUSH1 0x1 JUMPDEST PUSH1 0x0 JUMPDEST PUSH1 0x9 PUSH1 0x0 DUP6 PUSH1 0x4 DUP2 GT ISZERO PUSH2 0x26F JUMPI PUSH2 0x26F PUSH2 0xDDD JUMP JUMPDEST PUSH1 0x4 DUP2 GT ISZERO PUSH2 0x280 JUMPI PUSH2 0x280 PUSH2 0xDDD JUMP JUMPDEST DUP2 MSTORE PUSH1 0x20 DUP2 ADD SWAP2 SWAP1 SWAP2 MSTORE PUSH1 0x40 ADD PUSH1 0x0 KECCAK256 SLOAD DUP2 LT ISZERO PUSH2 0x322 JUMPI DUP5 PUSH1 0x1 PUSH1 0x1 PUSH1 0xA0 SHL SUB AND PUSH1 0x9 PUSH1 0x0 DUP7 PUSH1 0x4 DUP2 GT ISZERO PUSH2 0x2B8 JUMPI PUSH2 0x2B8 PUSH2 0xDDD JUMP JUMPDEST PUSH1 0x4 DUP2 GT ISZERO PUSH2 0x2C9 JUMPI PUSH2 0x2C9 PUSH2 0xDDD JUMP JUMPDEST DUP2 MSTORE PUSH1 0x20 ADD SWAP1 DUP2 MSTORE PUSH1 0x20 ADD PUSH1 0x0 KECCAK256 DUP3 DUP2 SLOAD DUP2 LT PUSH2 0x2E8 JUMPI PUSH2 0x2E8 PUSH2 0x1029 JUMP JUMPDEST PUSH1 0x0 SWAP2 DUP3 MSTORE PUSH1 0x20 SWAP1 SWAP2 KECCAK256 ADD SLOAD PUSH1 0x1 PUSH1 0x1 PUSH1 0xA0 SHL SUB AND EQ ISZERO PUSH2 0x30C JUMPI PUSH1 0x1 SWAP2 POP PUSH2 0x322 JUMP JUMPDEST PUSH1 0x0 SWAP2 POP DUP1 PUSH2 0x31A DUP2 PUSH2 0x103F JUMP JUMPDEST SWAP2 POP POP PUSH2 0x259 JUMP JUMPDEST POP SWAP4 SWAP3 POP POP POP JUMP JUMPDEST PUSH1 0x0 SLOAD PUSH1 0x1 PUSH1 0x1 PUSH1 0xA0 SHL SUB AND CALLER EQ PUSH2 0x35D JUMPI PUSH1 0x40 MLOAD PUSH3 0x461BCD PUSH1 0xE5 SHL DUP2 MSTORE PUSH1 0x4 ADD PUSH2 0x354 SWAP1 PUSH2 0x1068 JUMP JUMPDEST PUSH1 0x40 MLOAD DUP1 SWAP2 SUB SWAP1 REVERT JUMPDEST PUSH1 0x1 PUSH1 0x0 DUP2 SWAP1 MSTORE PUSH1 0x9 PUSH1 0x20 MSTORE DUP1 SLOAD PUSH2 0x396 SWAP2 PUSH32 0x92E85D02570A8092D09A6E3A57665BC3815A2699A4074001BF1CCABF660F5A36 SWAP2 PUSH2 0xA7E JUMP JUMPDEST POP PUSH1 0x2 PUSH1 0x0 DUP2 SWAP1 MSTORE PUSH1 0x9 PUSH1 0x20 MSTORE DUP1 SLOAD PUSH2 0x3D0 SWAP2 PUSH32 0x6CDE3CEA4B3A3FB2488B2808BAE7556F4A405E50F65E1794383BC026131B13C3 SWAP2 PUSH2 0xA7E JUMP JUMPDEST POP PUSH1 0x3 PUSH1 0x0 DUP2 SWAP1 MSTORE PUSH1 0x9 PUSH1 0x20 MSTORE DUP1 SLOAD PUSH2 0x40A SWAP2 PUSH32 0xC575C31FEA594A6EB97C8E9D3F9CAEE4C16218C6EF37E923234C0FE9014A61E7 SWAP2 PUSH2 0xA7E JUMP JUMPDEST POP PUSH1 0x4 PUSH1 0x0 DUP2 SWAP1 MSTORE PUSH1 0x9 PUSH1 0x20 MSTORE DUP1 SLOAD PUSH2 0x444 SWAP2 PUSH32 0x8DC18C4CCFD75F5C815B63770FA542FD953E8FEF7E0E44BBDD4913470CE7E9CB SWAP2 PUSH2 0xA7E JUMP JUMPDEST POP JUMP JUMPDEST CALLER DUP3 DUP3 PUSH2 0x454 DUP4 DUP3 PUSH2 0x236 JUMP JUMPDEST PUSH2 0x493 JUMPI PUSH1 0x40 MLOAD PUSH3 0x461BCD PUSH1 0xE5 SHL DUP2 MSTORE PUSH1 0x20 PUSH1 0x4 DUP3 ADD MSTORE PUSH1 0x10 PUSH1 0x24 DUP3 ADD MSTORE PUSH16 0x596F752063616E7420646F2074686973 PUSH1 0x80 SHL PUSH1 0x44 DUP3 ADD MSTORE PUSH1 0x64 ADD PUSH2 0x354 JUMP JUMPDEST PUSH2 0x49D DUP2 DUP4 PUSH2 0x7D8 JUMP JUMPDEST PUSH2 0x4DC JUMPI PUSH1 0x40 MLOAD PUSH3 0x461BCD PUSH1 0xE5 SHL DUP2 MSTORE PUSH1 0x20 PUSH1 0x4 DUP3 ADD MSTORE PUSH1 0x10 PUSH1 0x24 DUP3 ADD MSTORE PUSH16 0x596F752063616E7420646F2074686973 PUSH1 0x80 SHL PUSH1 0x44 DUP3 ADD MSTORE PUSH1 0x64 ADD PUSH2 0x354 JUMP JUMPDEST PUSH1 0x6 PUSH1 0x40 MLOAD DUP1 PUSH1 0x60 ADD PUSH1 0x40 MSTORE DUP1 DUP9 DUP2 MSTORE PUSH1 0x20 ADD DUP8 PUSH1 0x4 DUP2 GT ISZERO PUSH2 0x501 JUMPI PUSH2 0x501 PUSH2 0xDDD JUMP JUMPDEST DUP2 MSTORE PUSH1 0x20 ADD DUP7 PUSH1 0x4 DUP2 GT ISZERO PUSH2 0x518 JUMPI PUSH2 0x518 PUSH2 0xDDD JUMP JUMPDEST SWAP1 MSTORE DUP2 SLOAD PUSH1 0x1 DUP2 ADD DUP4 SSTORE PUSH1 0x0 SWAP3 DUP4 MSTORE PUSH1 0x20 SWAP3 DUP4 SWAP1 KECCAK256 DUP3 MLOAD DUP1 MLOAD SWAP4 SWAP5 PUSH1 0x2 SWAP1 SWAP4 MUL SWAP1 SWAP2 ADD SWAP3 PUSH2 0x549 SWAP3 DUP5 SWAP3 ADD SWAP1 PUSH2 0xACE JUMP JUMPDEST POP PUSH1 0x20 DUP3 ADD MLOAD PUSH1 0x1 DUP1 DUP4 ADD DUP1 SLOAD SWAP1 SWAP2 PUSH1 0xFF NOT SWAP1 SWAP2 AND SWAP1 DUP4 PUSH1 0x4 DUP2 GT ISZERO PUSH2 0x571 JUMPI PUSH2 0x571 PUSH2 0xDDD JUMP JUMPDEST MUL OR SWAP1 SSTORE POP PUSH1 0x40 DUP3 ADD MLOAD PUSH1 0x1 DUP3 ADD DUP1 SLOAD PUSH2 0xFF00 NOT AND PUSH2 0x100 DUP4 PUSH1 0x4 DUP2 GT ISZERO PUSH2 0x59B JUMPI PUSH2 0x59B PUSH2 0xDDD JUMP JUMPDEST MUL OR SWAP1 SSTORE POP POP PUSH1 0x5 SLOAD PUSH1 0x40 MLOAD PUSH1 0xFF SWAP1 SWAP2 AND SWAP2 POP PUSH1 0x8 SWAP1 PUSH2 0x5BC SWAP1 DUP10 SWAP1 PUSH2 0x109D JUMP JUMPDEST SWAP1 DUP2 MSTORE PUSH1 0x40 MLOAD SWAP1 DUP2 SWAP1 SUB PUSH1 0x20 ADD SWAP1 KECCAK256 DUP1 SLOAD PUSH1 0xFF NOT AND PUSH1 0x1 DUP4 PUSH1 0x4 DUP2 GT ISZERO PUSH2 0x5E5 JUMPI PUSH2 0x5E5 PUSH2 0xDDD JUMP JUMPDEST MUL OR SWAP1 SSTORE POP PUSH1 0x5 PUSH1 0x1 SWAP1 SLOAD SWAP1 PUSH2 0x100 EXP SWAP1 DIV PUSH1 0xFF AND PUSH1 0x7 DUP8 PUSH1 0x40 MLOAD PUSH2 0x60A SWAP2 SWAP1 PUSH2 0x109D JUMP JUMPDEST SWAP1 DUP2 MSTORE PUSH1 0x40 MLOAD SWAP1 DUP2 SWAP1 SUB PUSH1 0x20 ADD SWAP1 KECCAK256 DUP1 SLOAD PUSH1 0xFF NOT AND PUSH1 0x1 DUP4 PUSH1 0x4 DUP2 GT ISZERO PUSH2 0x633 JUMPI PUSH2 0x633 PUSH2 0xDDD JUMP JUMPDEST MUL OR SWAP1 SSTORE POP POP POP POP POP POP POP JUMP JUMPDEST PUSH1 0x60 PUSH1 0x1 DUP1 SLOAD DUP1 PUSH1 0x20 MUL PUSH1 0x20 ADD PUSH1 0x40 MLOAD SWAP1 DUP2 ADD PUSH1 0x40 MSTORE DUP1 SWAP3 SWAP2 SWAP1 DUP2 DUP2 MSTORE PUSH1 0x20 ADD DUP3 DUP1 SLOAD DUP1 ISZERO PUSH2 0x698 JUMPI PUSH1 0x20 MUL DUP3 ADD SWAP2 SWAP1 PUSH1 0x0 MSTORE PUSH1 0x20 PUSH1 0x0 KECCAK256 SWAP1 JUMPDEST DUP2 SLOAD PUSH1 0x1 PUSH1 0x1 PUSH1 0xA0 SHL SUB AND DUP2 MSTORE PUSH1 0x1 SWAP1 SWAP2 ADD SWAP1 PUSH1 0x20 ADD DUP1 DUP4 GT PUSH2 0x67A JUMPI JUMPDEST POP POP POP POP POP SWAP1 POP SWAP1 JUMP JUMPDEST PUSH1 0x9 PUSH1 0x20 MSTORE DUP2 PUSH1 0x0 MSTORE PUSH1 0x40 PUSH1 0x0 KECCAK256 DUP2 DUP2 SLOAD DUP2 LT PUSH2 0x6BE JUMPI PUSH1 0x0 DUP1 REVERT JUMPDEST PUSH1 0x0 SWAP2 DUP3 MSTORE PUSH1 0x20 SWAP1 SWAP2 KECCAK256 ADD SLOAD PUSH1 0x1 PUSH1 0x1 PUSH1 0xA0 SHL SUB AND SWAP2 POP DUP3 SWAP1 POP JUMP JUMPDEST PUSH1 0x0 SLOAD PUSH1 0x1 PUSH1 0x1 PUSH1 0xA0 SHL SUB AND CALLER EQ PUSH2 0x704 JUMPI PUSH1 0x40 MLOAD PUSH3 0x461BCD PUSH1 0xE5 SHL DUP2 MSTORE PUSH1 0x4 ADD PUSH2 0x354 SWAP1 PUSH2 0x1068 JUMP JUMPDEST PUSH2 0x70E PUSH1 0x0 PUSH2 0xA2E JUMP JUMPDEST JUMP JUMPDEST PUSH1 0x6 DUP2 DUP2 SLOAD DUP2 LT PUSH2 0x720 JUMPI PUSH1 0x0 DUP1 REVERT JUMPDEST SWAP1 PUSH1 0x0 MSTORE PUSH1 0x20 PUSH1 0x0 KECCAK256 SWAP1 PUSH1 0x2 MUL ADD PUSH1 0x0 SWAP2 POP SWAP1 POP DUP1 PUSH1 0x0 ADD DUP1 SLOAD PUSH2 0x743 SWAP1 PUSH2 0x10B9 JUMP JUMPDEST DUP1 PUSH1 0x1F ADD PUSH1 0x20 DUP1 SWAP2 DIV MUL PUSH1 0x20 ADD PUSH1 0x40 MLOAD SWAP1 DUP2 ADD PUSH1 0x40 MSTORE DUP1 SWAP3 SWAP2 SWAP1 DUP2 DUP2 MSTORE PUSH1 0x20 ADD DUP3 DUP1 SLOAD PUSH2 0x76F SWAP1 PUSH2 0x10B9 JUMP JUMPDEST DUP1 ISZERO PUSH2 0x7BC JUMPI DUP1 PUSH1 0x1F LT PUSH2 0x791 JUMPI PUSH2 0x100 DUP1 DUP4 SLOAD DIV MUL DUP4 MSTORE SWAP2 PUSH1 0x20 ADD SWAP2 PUSH2 0x7BC JUMP JUMPDEST DUP3 ADD SWAP2 SWAP1 PUSH1 0x0 MSTORE PUSH1 0x20 PUSH1 0x0 KECCAK256 SWAP1 JUMPDEST DUP2 SLOAD DUP2 MSTORE SWAP1 PUSH1 0x1 ADD SWAP1 PUSH1 0x20 ADD DUP1 DUP4 GT PUSH2 0x79F JUMPI DUP3 SWAP1 SUB PUSH1 0x1F AND DUP3 ADD SWAP2 JUMPDEST POP POP POP PUSH1 0x1 SWAP1 SWAP4 ADD SLOAD SWAP2 SWAP3 POP POP PUSH1 0xFF DUP1 DUP3 AND SWAP2 PUSH2 0x100 SWAP1 DIV AND DUP4 JUMP JUMPDEST PUSH1 0x0 DUP1 PUSH1 0x1 DUP5 PUSH1 0x4 DUP2 GT ISZERO PUSH2 0x7EF JUMPI PUSH2 0x7EF PUSH2 0xDDD JUMP JUMPDEST EQ DUP1 PUSH2 0x80C JUMPI POP PUSH1 0x2 DUP5 PUSH1 0x4 DUP2 GT ISZERO PUSH2 0x80A JUMPI PUSH2 0x80A PUSH2 0xDDD JUMP JUMPDEST EQ JUMPDEST DUP1 PUSH2 0x828 JUMPI POP PUSH1 0x3 DUP5 PUSH1 0x4 DUP2 GT ISZERO PUSH2 0x826 JUMPI PUSH2 0x826 PUSH2 0xDDD JUMP JUMPDEST EQ JUMPDEST DUP1 ISZERO PUSH2 0x845 JUMPI POP PUSH1 0x1 DUP4 PUSH1 0x4 DUP2 GT ISZERO PUSH2 0x843 JUMPI PUSH2 0x843 PUSH2 0xDDD JUMP JUMPDEST EQ JUMPDEST ISZERO PUSH2 0x852 JUMPI POP PUSH1 0x1 PUSH2 0x90B JUMP JUMPDEST PUSH1 0x4 DUP5 PUSH1 0x4 DUP2 GT ISZERO PUSH2 0x866 JUMPI PUSH2 0x866 PUSH2 0xDDD JUMP JUMPDEST EQ DUP1 ISZERO PUSH2 0x884 JUMPI POP PUSH1 0x4 DUP4 PUSH1 0x4 DUP2 GT ISZERO PUSH2 0x882 JUMPI PUSH2 0x882 PUSH2 0xDDD JUMP JUMPDEST EQ JUMPDEST ISZERO PUSH2 0x891 JUMPI POP PUSH1 0x1 PUSH2 0x90B JUMP JUMPDEST PUSH1 0x0 DUP5 PUSH1 0x4 DUP2 GT ISZERO PUSH2 0x8A5 JUMPI PUSH2 0x8A5 PUSH2 0xDDD JUMP JUMPDEST EQ DUP1 ISZERO PUSH2 0x8FA JUMPI POP PUSH1 0x3 DUP4 PUSH1 0x4 DUP2 GT ISZERO PUSH2 0x8C1 JUMPI PUSH2 0x8C1 PUSH2 0xDDD JUMP JUMPDEST EQ DUP1 PUSH2 0x8DE JUMPI POP PUSH1 0x2 DUP4 PUSH1 0x4 DUP2 GT ISZERO PUSH2 0x8DC JUMPI PUSH2 0x8DC PUSH2 0xDDD JUMP JUMPDEST EQ JUMPDEST DUP1 PUSH2 0x8FA JUMPI POP PUSH1 0x0 DUP4 PUSH1 0x4 DUP2 GT ISZERO PUSH2 0x8F8 JUMPI PUSH2 0x8F8 PUSH2 0xDDD JUMP JUMPDEST EQ JUMPDEST ISZERO PUSH2 0x907 JUMPI POP PUSH1 0x1 PUSH2 0x90B JUMP JUMPDEST POP PUSH1 0x0 JUMPDEST SWAP4 SWAP3 POP POP POP JUMP JUMPDEST PUSH1 0x0 SLOAD PUSH1 0x1 PUSH1 0x1 PUSH1 0xA0 SHL SUB AND CALLER EQ PUSH2 0x93C JUMPI PUSH1 0x40 MLOAD PUSH3 0x461BCD PUSH1 0xE5 SHL DUP2 MSTORE PUSH1 0x4 ADD PUSH2 0x354 SWAP1 PUSH2 0x1068 JUMP JUMPDEST DUP4 MLOAD PUSH2 0x94F SWAP1 PUSH1 0x1 SWAP1 PUSH1 0x20 DUP8 ADD SWAP1 PUSH2 0xB42 JUMP JUMPDEST POP DUP2 MLOAD PUSH2 0x963 SWAP1 PUSH1 0x2 SWAP1 PUSH1 0x20 DUP6 ADD SWAP1 PUSH2 0xB42 JUMP JUMPDEST POP DUP3 MLOAD PUSH2 0x977 SWAP1 PUSH1 0x3 SWAP1 PUSH1 0x20 DUP7 ADD SWAP1 PUSH2 0xB42 JUMP JUMPDEST POP DUP1 MLOAD PUSH2 0x98B SWAP1 PUSH1 0x4 SWAP1 PUSH1 0x20 DUP5 ADD SWAP1 PUSH2 0xB42 JUMP JUMPDEST POP PUSH2 0x994 PUSH2 0x32A JUMP JUMPDEST POP POP POP POP JUMP JUMPDEST PUSH1 0x0 SLOAD PUSH1 0x1 PUSH1 0x1 PUSH1 0xA0 SHL SUB AND CALLER EQ PUSH2 0x9C4 JUMPI PUSH1 0x40 MLOAD PUSH3 0x461BCD PUSH1 0xE5 SHL DUP2 MSTORE PUSH1 0x4 ADD PUSH2 0x354 SWAP1 PUSH2 0x1068 JUMP JUMPDEST PUSH1 0x1 PUSH1 0x1 PUSH1 0xA0 SHL SUB DUP2 AND PUSH2 0xA29 JUMPI PUSH1 0x40 MLOAD PUSH3 0x461BCD PUSH1 0xE5 SHL DUP2 MSTORE PUSH1 0x20 PUSH1 0x4 DUP3 ADD MSTORE PUSH1 0x26 PUSH1 0x24 DUP3 ADD MSTORE PUSH32 0x4F776E61626C653A206E6577206F776E657220697320746865207A65726F2061 PUSH1 0x44 DUP3 ADD MSTORE PUSH6 0x646472657373 PUSH1 0xD0 SHL PUSH1 0x64 DUP3 ADD MSTORE PUSH1 0x84 ADD PUSH2 0x354 JUMP JUMPDEST PUSH2 0x444 DUP2 JUMPDEST PUSH1 0x0 DUP1 SLOAD PUSH1 0x1 PUSH1 0x1 PUSH1 0xA0 SHL SUB DUP4 DUP2 AND PUSH1 0x1 PUSH1 0x1 PUSH1 0xA0 SHL SUB NOT DUP4 AND DUP2 OR DUP5 SSTORE PUSH1 0x40 MLOAD SWAP2 SWAP1 SWAP3 AND SWAP3 DUP4 SWAP2 PUSH32 0x8BE0079C531659141344CD1FD0A4F28419497F9722A3DAAFE3B4186F6B6457E0 SWAP2 SWAP1 LOG3 POP POP JUMP JUMPDEST DUP3 DUP1 SLOAD DUP3 DUP3 SSTORE SWAP1 PUSH1 0x0 MSTORE PUSH1 0x20 PUSH1 0x0 KECCAK256 SWAP1 DUP2 ADD SWAP3 DUP3 ISZERO PUSH2 0xABE JUMPI PUSH1 0x0 MSTORE PUSH1 0x20 PUSH1 0x0 KECCAK256 SWAP2 DUP3 ADD JUMPDEST DUP3 DUP2 GT ISZERO PUSH2 0xABE JUMPI DUP3 SLOAD DUP3 SSTORE SWAP2 PUSH1 0x1 ADD SWAP2 SWAP1 PUSH1 0x1 ADD SWAP1 PUSH2 0xAA3 JUMP JUMPDEST POP PUSH2 0xACA SWAP3 SWAP2 POP PUSH2 0xB97 JUMP JUMPDEST POP SWAP1 JUMP JUMPDEST DUP3 DUP1 SLOAD PUSH2 0xADA SWAP1 PUSH2 0x10B9 JUMP JUMPDEST SWAP1 PUSH1 0x0 MSTORE PUSH1 0x20 PUSH1 0x0 KECCAK256 SWAP1 PUSH1 0x1F ADD PUSH1 0x20 SWAP1 DIV DUP2 ADD SWAP3 DUP3 PUSH2 0xAFC JUMPI PUSH1 0x0 DUP6 SSTORE PUSH2 0xABE JUMP JUMPDEST DUP3 PUSH1 0x1F LT PUSH2 0xB15 JUMPI DUP1 MLOAD PUSH1 0xFF NOT AND DUP4 DUP1 ADD OR DUP6 SSTORE PUSH2 0xABE JUMP JUMPDEST DUP3 DUP1 ADD PUSH1 0x1 ADD DUP6 SSTORE DUP3 ISZERO PUSH2 0xABE JUMPI SWAP2 DUP3 ADD JUMPDEST DUP3 DUP2 GT ISZERO PUSH2 0xABE JUMPI DUP3 MLOAD DUP3 SSTORE SWAP2 PUSH1 0x20 ADD SWAP2 SWAP1 PUSH1 0x1 ADD SWAP1 PUSH2 0xB27 JUMP JUMPDEST DUP3 DUP1 SLOAD DUP3 DUP3 SSTORE SWAP1 PUSH1 0x0 MSTORE PUSH1 0x20 PUSH1 0x0 KECCAK256 SWAP1 DUP2 ADD SWAP3 DUP3 ISZERO PUSH2 0xABE JUMPI SWAP2 PUSH1 0x20 MUL DUP3 ADD JUMPDEST DUP3 DUP2 GT ISZERO PUSH2 0xABE JUMPI DUP3 MLOAD DUP3 SLOAD PUSH1 0x1 PUSH1 0x1 PUSH1 0xA0 SHL SUB NOT AND PUSH1 0x1 PUSH1 0x1 PUSH1 0xA0 SHL SUB SWAP1 SWAP2 AND OR DUP3 SSTORE PUSH1 0x20 SWAP1 SWAP3 ADD SWAP2 PUSH1 0x1 SWAP1 SWAP2 ADD SWAP1 PUSH2 0xB62 JUMP JUMPDEST JUMPDEST DUP1 DUP3 GT ISZERO PUSH2 0xACA JUMPI PUSH1 0x0 DUP2 SSTORE PUSH1 0x1 ADD PUSH2 0xB98 JUMP JUMPDEST DUP1 CALLDATALOAD PUSH1 0x1 PUSH1 0x1 PUSH1 0xA0 SHL SUB DUP2 AND DUP2 EQ PUSH2 0xBC3 JUMPI PUSH1 0x0 DUP1 REVERT JUMPDEST SWAP2 SWAP1 POP JUMP JUMPDEST PUSH1 0x5 DUP2 LT PUSH2 0x444 JUMPI PUSH1 0x0 DUP1 REVERT JUMPDEST PUSH1 0x0 DUP1 PUSH1 0x40 DUP4 DUP6 SUB SLT ISZERO PUSH2 0xBE8 JUMPI PUSH1 0x0 DUP1 REVERT JUMPDEST PUSH2 0xBF1 DUP4 PUSH2 0xBAC JUMP JUMPDEST SWAP2 POP PUSH1 0x20 DUP4 ADD CALLDATALOAD PUSH2 0xC01 DUP2 PUSH2 0xBC8 JUMP JUMPDEST DUP1 SWAP2 POP POP SWAP3 POP SWAP3 SWAP1 POP JUMP JUMPDEST PUSH4 0x4E487B71 PUSH1 0xE0 SHL PUSH1 0x0 MSTORE PUSH1 0x41 PUSH1 0x4 MSTORE PUSH1 0x24 PUSH1 0x0 REVERT JUMPDEST PUSH1 0x40 MLOAD PUSH1 0x1F DUP3 ADD PUSH1 0x1F NOT AND DUP2 ADD PUSH8 0xFFFFFFFFFFFFFFFF DUP2 GT DUP3 DUP3 LT OR ISZERO PUSH2 0xC4B JUMPI PUSH2 0xC4B PUSH2 0xC0C JUMP JUMPDEST PUSH1 0x40 MSTORE SWAP2 SWAP1 POP JUMP JUMPDEST PUSH1 0x0 DUP3 PUSH1 0x1F DUP4 ADD SLT PUSH2 0xC64 JUMPI PUSH1 0x0 DUP1 REVERT JUMPDEST DUP2 CALLDATALOAD PUSH8 0xFFFFFFFFFFFFFFFF DUP2 GT ISZERO PUSH2 0xC7E JUMPI PUSH2 0xC7E PUSH2 0xC0C JUMP JUMPDEST PUSH2 0xC91 PUSH1 0x1F DUP3 ADD PUSH1 0x1F NOT AND PUSH1 0x20 ADD PUSH2 0xC22 JUMP JUMPDEST DUP2 DUP2 MSTORE DUP5 PUSH1 0x20 DUP4 DUP7 ADD ADD GT ISZERO PUSH2 0xCA6 JUMPI PUSH1 0x0 DUP1 REVERT JUMPDEST DUP2 PUSH1 0x20 DUP6 ADD PUSH1 0x20 DUP4 ADD CALLDATACOPY PUSH1 0x0 SWAP2 DUP2 ADD PUSH1 0x20 ADD SWAP2 SWAP1 SWAP2 MSTORE SWAP4 SWAP3 POP POP POP JUMP JUMPDEST PUSH1 0x0 DUP1 PUSH1 0x0 PUSH1 0x60 DUP5 DUP7 SUB SLT ISZERO PUSH2 0xCD8 JUMPI PUSH1 0x0 DUP1 REVERT JUMPDEST DUP4 CALLDATALOAD PUSH8 0xFFFFFFFFFFFFFFFF DUP2 GT ISZERO PUSH2 0xCEF JUMPI PUSH1 0x0 DUP1 REVERT JUMPDEST PUSH2 0xCFB DUP7 DUP3 DUP8 ADD PUSH2 0xC53 JUMP JUMPDEST SWAP4 POP POP PUSH1 0x20 DUP5 ADD CALLDATALOAD PUSH2 0xD0C DUP2 PUSH2 0xBC8 JUMP JUMPDEST SWAP2 POP PUSH1 0x40 DUP5 ADD CALLDATALOAD PUSH2 0xD1C DUP2 PUSH2 0xBC8 JUMP JUMPDEST DUP1 SWAP2 POP POP SWAP3 POP SWAP3 POP SWAP3 JUMP JUMPDEST PUSH1 0x20 DUP1 DUP3 MSTORE DUP3 MLOAD DUP3 DUP3 ADD DUP2 SWAP1 MSTORE PUSH1 0x0 SWAP2 SWAP1 DUP5 DUP3 ADD SWAP1 PUSH1 0x40 DUP6 ADD SWAP1 DUP5 JUMPDEST DUP2 DUP2 LT ISZERO PUSH2 0xD68 JUMPI DUP4 MLOAD PUSH1 0x1 PUSH1 0x1 PUSH1 0xA0 SHL SUB AND DUP4 MSTORE SWAP3 DUP5 ADD SWAP3 SWAP2 DUP5 ADD SWAP2 PUSH1 0x1 ADD PUSH2 0xD43 JUMP JUMPDEST POP SWAP1 SWAP7 SWAP6 POP POP POP POP POP POP JUMP JUMPDEST PUSH1 0x0 DUP1 PUSH1 0x40 DUP4 DUP6 SUB SLT ISZERO PUSH2 0xD87 JUMPI PUSH1 0x0 DUP1 REVERT JUMPDEST DUP3 CALLDATALOAD PUSH2 0xD92 DUP2 PUSH2 0xBC8 JUMP JUMPDEST SWAP5 PUSH1 0x20 SWAP4 SWAP1 SWAP4 ADD CALLDATALOAD SWAP4 POP POP POP JUMP JUMPDEST PUSH1 0x0 PUSH1 0x20 DUP3 DUP5 SUB SLT ISZERO PUSH2 0xDB2 JUMPI PUSH1 0x0 DUP1 REVERT JUMPDEST DUP2 CALLDATALOAD PUSH8 0xFFFFFFFFFFFFFFFF DUP2 GT ISZERO PUSH2 0xDC9 JUMPI PUSH1 0x0 DUP1 REVERT JUMPDEST PUSH2 0xDD5 DUP5 DUP3 DUP6 ADD PUSH2 0xC53 JUMP JUMPDEST SWAP5 SWAP4 POP POP POP POP JUMP JUMPDEST PUSH4 0x4E487B71 PUSH1 0xE0 SHL PUSH1 0x0 MSTORE PUSH1 0x21 PUSH1 0x4 MSTORE PUSH1 0x24 PUSH1 0x0 REVERT JUMPDEST PUSH1 0x5 DUP2 LT PUSH2 0x444 JUMPI PUSH4 0x4E487B71 PUSH1 0xE0 SHL PUSH1 0x0 MSTORE PUSH1 0x21 PUSH1 0x4 MSTORE PUSH1 0x24 PUSH1 0x0 REVERT JUMPDEST PUSH1 0x20 DUP2 ADD PUSH2 0xE1E DUP4 PUSH2 0xDF3 JUMP JUMPDEST SWAP2 SWAP1 MSTORE SWAP1 JUMP JUMPDEST PUSH1 0x0 PUSH1 0x20 DUP3 DUP5 SUB SLT ISZERO PUSH2 0xE36 JUMPI PUSH1 0x0 DUP1 REVERT JUMPDEST POP CALLDATALOAD SWAP2 SWAP1 POP JUMP JUMPDEST PUSH1 0x0 JUMPDEST DUP4 DUP2 LT ISZERO PUSH2 0xE58 JUMPI DUP2 DUP2 ADD MLOAD DUP4 DUP3 ADD MSTORE PUSH1 0x20 ADD PUSH2 0xE40 JUMP JUMPDEST DUP4 DUP2 GT ISZERO PUSH2 0x994 JUMPI POP POP PUSH1 0x0 SWAP2 ADD MSTORE JUMP JUMPDEST PUSH1 0x60 DUP2 MSTORE PUSH1 0x0 DUP5 MLOAD DUP1 PUSH1 0x60 DUP5 ADD MSTORE PUSH2 0xE88 DUP2 PUSH1 0x80 DUP6 ADD PUSH1 0x20 DUP10 ADD PUSH2 0xE3D JUMP JUMPDEST PUSH1 0x1F ADD PUSH1 0x1F NOT AND DUP3 ADD PUSH1 0x80 ADD SWAP1 POP PUSH2 0xE9F DUP5 PUSH2 0xDF3 JUMP JUMPDEST DUP4 PUSH1 0x20 DUP4 ADD MSTORE PUSH2 0xEAE DUP4 PUSH2 0xDF3 JUMP JUMPDEST DUP3 PUSH1 0x40 DUP4 ADD MSTORE SWAP5 SWAP4 POP POP POP POP JUMP JUMPDEST PUSH1 0x0 DUP1 PUSH1 0x40 DUP4 DUP6 SUB SLT ISZERO PUSH2 0xECF JUMPI PUSH1 0x0 DUP1 REVERT JUMPDEST DUP3 CALLDATALOAD PUSH2 0xBF1 DUP2 PUSH2 0xBC8 JUMP JUMPDEST PUSH1 0x0 DUP3 PUSH1 0x1F DUP4 ADD SLT PUSH2 0xEEB JUMPI PUSH1 0x0 DUP1 REVERT JUMPDEST DUP2 CALLDATALOAD PUSH1 0x20 PUSH8 0xFFFFFFFFFFFFFFFF DUP3 GT ISZERO PUSH2 0xF07 JUMPI PUSH2 0xF07 PUSH2 0xC0C JUMP JUMPDEST DUP2 PUSH1 0x5 SHL PUSH2 0xF16 DUP3 DUP3 ADD PUSH2 0xC22 JUMP JUMPDEST SWAP3 DUP4 MSTORE DUP5 DUP2 ADD DUP3 ADD SWAP3 DUP3 DUP2 ADD SWAP1 DUP8 DUP6 GT ISZERO PUSH2 0xF30 JUMPI PUSH1 0x0 DUP1 REVERT JUMPDEST DUP4 DUP8 ADD SWAP3 POP JUMPDEST DUP5 DUP4 LT ISZERO PUSH2 0xF56 JUMPI PUSH2 0xF47 DUP4 PUSH2 0xBAC JUMP JUMPDEST DUP3 MSTORE SWAP2 DUP4 ADD SWAP2 SWAP1 DUP4 ADD SWAP1 PUSH2 0xF36 JUMP JUMPDEST SWAP8 SWAP7 POP POP POP POP POP POP POP JUMP JUMPDEST PUSH1 0x0 DUP1 PUSH1 0x0 DUP1 PUSH1 0x80 DUP6 DUP8 SUB SLT ISZERO PUSH2 0xF77 JUMPI PUSH1 0x0 DUP1 REVERT JUMPDEST DUP5 CALLDATALOAD PUSH8 0xFFFFFFFFFFFFFFFF DUP1 DUP3 GT ISZERO PUSH2 0xF8F JUMPI PUSH1 0x0 DUP1 REVERT JUMPDEST PUSH2 0xF9B DUP9 DUP4 DUP10 ADD PUSH2 0xEDA JUMP JUMPDEST SWAP6 POP PUSH1 0x20 DUP8 ADD CALLDATALOAD SWAP2 POP DUP1 DUP3 GT ISZERO PUSH2 0xFB1 JUMPI PUSH1 0x0 DUP1 REVERT JUMPDEST PUSH2 0xFBD DUP9 DUP4 DUP10 ADD PUSH2 0xEDA JUMP JUMPDEST SWAP5 POP PUSH1 0x40 DUP8 ADD CALLDATALOAD SWAP2 POP DUP1 DUP3 GT ISZERO PUSH2 0xFD3 JUMPI PUSH1 0x0 DUP1 REVERT JUMPDEST PUSH2 0xFDF DUP9 DUP4 DUP10 ADD PUSH2 0xEDA JUMP JUMPDEST SWAP4 POP PUSH1 0x60 DUP8 ADD CALLDATALOAD SWAP2 POP DUP1 DUP3 GT ISZERO PUSH2 0xFF5 JUMPI PUSH1 0x0 DUP1 REVERT JUMPDEST POP PUSH2 0x1002 DUP8 DUP3 DUP9 ADD PUSH2 0xEDA JUMP JUMPDEST SWAP2 POP POP SWAP3 SWAP6 SWAP2 SWAP5 POP SWAP3 POP JUMP JUMPDEST PUSH1 0x0 PUSH1 0x20 DUP3 DUP5 SUB SLT ISZERO PUSH2 0x1020 JUMPI PUSH1 0x0 DUP1 REVERT JUMPDEST PUSH2 0x90B DUP3 PUSH2 0xBAC JUMP JUMPDEST PUSH4 0x4E487B71 PUSH1 0xE0 SHL PUSH1 0x0 MSTORE PUSH1 0x32 PUSH1 0x4 MSTORE PUSH1 0x24 PUSH1 0x0 REVERT JUMPDEST PUSH1 0x0 PUSH1 0x0 NOT DUP3 EQ ISZERO PUSH2 0x1061 JUMPI PUSH4 0x4E487B71 PUSH1 0xE0 SHL PUSH1 0x0 MSTORE PUSH1 0x11 PUSH1 0x4 MSTORE PUSH1 0x24 PUSH1 0x0 REVERT JUMPDEST POP PUSH1 0x1 ADD SWAP1 JUMP JUMPDEST PUSH1 0x20 DUP1 DUP3 MSTORE DUP2 DUP2 ADD MSTORE PUSH32 0x4F776E61626C653A2063616C6C6572206973206E6F7420746865206F776E6572 PUSH1 0x40 DUP3 ADD MSTORE PUSH1 0x60 ADD SWAP1 JUMP JUMPDEST PUSH1 0x0 DUP3 MLOAD PUSH2 0x10AF DUP2 DUP5 PUSH1 0x20 DUP8 ADD PUSH2 0xE3D JUMP JUMPDEST SWAP2 SWAP1 SWAP2 ADD SWAP3 SWAP2 POP POP JUMP JUMPDEST PUSH1 0x1 DUP2 DUP2 SHR SWAP1 DUP3 AND DUP1 PUSH2 0x10CD JUMPI PUSH1 0x7F DUP3 AND SWAP2 POP JUMPDEST PUSH1 0x20 DUP3 LT DUP2 EQ ISZERO PUSH2 0x10EE JUMPI PUSH4 0x4E487B71 PUSH1 0xE0 SHL PUSH1 0x0 MSTORE PUSH1 0x22 PUSH1 0x4 MSTORE PUSH1 0x24 PUSH1 0x0 REVERT JUMPDEST POP SWAP2 SWAP1 POP JUMP INVALID LOG2 PUSH5 0x6970667358 0x22 SLT KECCAK256 0x2F SWAP3 CALLDATACOPY 0xE2 LOG4 CALLDATASIZE 0xE1 0xA7 0xAF JUMPDEST PUSH10 0xB9A89230903181DD464C 0xE5 REVERT LOG3 0xC SELFBALANCE 0xC5 0xBB SWAP12 CODESIZE EXP CALLDATACOPY PUSH5 0x736F6C6343 STOP ADDMOD SIGNEXTEND STOP CALLER ","sha1":"fe6da80a5d46e22bacca0cc4479f82a2179cb352","source":"// SPDX-License-Identifier: MIT\n\n// This contract will allow you to setup your user account to either be an uploader and downloadedr and cloud storage user (NRO user), service provider for storage, cloud or both (AWS)\n// Users should belong to an organization. * Can implement different coins to allow you to authenticate to a group. * Service providers do not need to belong to an organization for now\n// Authentication should be occuring throughout. Once your account is established correctly you should only be able to click the link for the page you will be allowed to use.\n// There will be different contracts once you enter a link. \n\npragma solidity >=0.6.0 <0.9.0;\nimport \"@openzeppelin/contracts/access/Ownable.sol\";\n\ncontract DetermineUser is Ownable{\n\n    address[] _privateKeyNRO; address[] _privateKeyNSA; address[] _privateKeyCIA; address[] _privateKeyAWS;\n    constructor(address[] memory privateKeyNRO,address[] memory privateKeyCIA,address[] memory privateKeyNSA,address[] memory privateKeyAWS) { // extend this for user type and orgname, should be a list of numbers\n\n        _privateKeyNRO = privateKeyNRO;\n        _privateKeyNSA = privateKeyNSA;\n        _privateKeyCIA = privateKeyCIA;\n        _privateKeyAWS = privateKeyAWS;\n    }\n\n    enum OrgName{ None, NRO, NSA, CIA, AWS }\n    OrgName _orgName;\n\n    enum UserType{ None, User,ProviderStorage, ProviderCloud, ProviderBoth}\n    UserType _userType;\n\n    struct People {\n        string name;\n        UserType yourUserType;\n        OrgName organization;\n    }\n    \n    People[] public people;\n    mapping(string => UserType) public nameToUserType;\n    mapping(string => OrgName) public nameToOrganization;\n    mapping(OrgName => address[]) public orgnameToKey;\n    \n    function createMapping() public onlyOwner{ //must be called in order for contract to run\n        orgnameToKey[OrgName.NRO]= _privateKeyNRO;\n        orgnameToKey[OrgName.NSA]= _privateKeyNSA;\n        orgnameToKey[OrgName.CIA]= _privateKeyCIA;\n        orgnameToKey[OrgName.AWS]= _privateKeyAWS;\n        \n    }\n\n    // if owner wants to change private keys after contract is deployed\n    function changePrivateKeys(address[] memory _newprivateKeyNRO,address[] memory _newprivateKeyCIA,address[] memory _newprivateKeyNSA,address[] memory _newprivateKeyAWS) public onlyOwner{ //input should be a new list of numbers\n        _privateKeyNRO=_newprivateKeyNRO;\n        _privateKeyNSA=_newprivateKeyNSA;\n        _privateKeyCIA=_newprivateKeyCIA;\n        _privateKeyAWS=_newprivateKeyAWS;\n        createMapping();\n    }\n\n   \n\n    function checkOrgList(address usersPrivateKey,  OrgName selectionNumOrg) public view returns(bool){//checks if number is in list and list is based on organization chosen\n        bool result;\n        result= false;\n        if (selectionNumOrg==OrgName.None) {result=true;}\n        //wont go through the loop anyway if orgname is none\n        for (uint j = 0; j < orgnameToKey[selectionNumOrg].length; j++) {\n            if (orgnameToKey[selectionNumOrg][j]==usersPrivateKey){result=true;break;} else {result=false;} \n        }\n        return result;\n\n    }\n    function checkTypeList(OrgName selectionNumOrg, UserType selectionNumType) public pure returns(bool){ // ensure that only certain organizations can be determined as a specific type etc.\n        bool result;\n        result= false;\n\n        if ((selectionNumOrg==OrgName.NRO || selectionNumOrg==OrgName.NSA || selectionNumOrg==OrgName.CIA) && selectionNumType==UserType.User){result=true;\n        } else if (selectionNumOrg==OrgName.AWS && selectionNumType==UserType.ProviderBoth) {result=true;\n        } else if (selectionNumOrg==OrgName.None && (selectionNumType==UserType.ProviderCloud || selectionNumType==UserType.ProviderStorage || selectionNumType==UserType.None)){result=true;\n        } else {result=false;}\n        \n        return result;\n\n    }\n     // modifier to check whether your private key has authorization to a specific user type. \n\n\n    modifier onlyCertainKeys(address usersPrivateKey, UserType selectionNumType, OrgName selectionNumOrg) { \n\n        require(checkOrgList(usersPrivateKey, selectionNumOrg), 'You cant do this');\n        require(checkTypeList(selectionNumOrg, selectionNumType), 'You cant do this');\n        _;\n\n    }\n\n    function people_list() public view returns (address[] memory) { //A list of users\n        return _privateKeyNRO;\n    }\n\n    // add a person to an organization and determine the type of user.\n    function addPerson( string memory _name,  UserType selectionNumType, OrgName selectionNumOrg) public onlyCertainKeys(msg.sender, selectionNumType, selectionNumOrg) {\n        // Check whether user is authorized to the organization and user type by using their private key and authenticating in the two seperate functions\n\n        people.push(People( _name, selectionNumType, selectionNumOrg));\n        nameToOrganization[_name]= _orgName;\n        nameToUserType[_name]= _userType;\n    }\n\n\n    // only owner can authenticate a key because the contract deployment process and the changePrivateKeys function\n    // if i implement an automatic payment to user type in here than the same owner would have to be for both contracts and i would have to increase allowance everytime someone is added anyway.\n    \n    \n\n}\n","sourcePath":"contracts/DetermineUser.sol","type":"contract","deployment":{"address":"0xdf593aD8DC445410AC2E766D39df7d5CAB9e7b19","chainid":"4","blockHeight":10082060}}